{
	"contracts/AmmExchange.sol": {
		"AmmExchange": {
			"abi": [
				{
					"inputs": [
						{
							"internalType": "address",
							"name": "_tokenA",
							"type": "address"
						},
						{
							"internalType": "address",
							"name": "_tokenB",
							"type": "address"
						}
					],
					"stateMutability": "nonpayable",
					"type": "constructor"
				},
				{
					"inputs": [
						{
							"internalType": "address",
							"name": "spender",
							"type": "address"
						},
						{
							"internalType": "uint256",
							"name": "allowance",
							"type": "uint256"
						},
						{
							"internalType": "uint256",
							"name": "needed",
							"type": "uint256"
						}
					],
					"name": "ERC20InsufficientAllowance",
					"type": "error"
				},
				{
					"inputs": [
						{
							"internalType": "address",
							"name": "sender",
							"type": "address"
						},
						{
							"internalType": "uint256",
							"name": "balance",
							"type": "uint256"
						},
						{
							"internalType": "uint256",
							"name": "needed",
							"type": "uint256"
						}
					],
					"name": "ERC20InsufficientBalance",
					"type": "error"
				},
				{
					"inputs": [
						{
							"internalType": "address",
							"name": "approver",
							"type": "address"
						}
					],
					"name": "ERC20InvalidApprover",
					"type": "error"
				},
				{
					"inputs": [
						{
							"internalType": "address",
							"name": "receiver",
							"type": "address"
						}
					],
					"name": "ERC20InvalidReceiver",
					"type": "error"
				},
				{
					"inputs": [
						{
							"internalType": "address",
							"name": "sender",
							"type": "address"
						}
					],
					"name": "ERC20InvalidSender",
					"type": "error"
				},
				{
					"inputs": [
						{
							"internalType": "address",
							"name": "spender",
							"type": "address"
						}
					],
					"name": "ERC20InvalidSpender",
					"type": "error"
				},
				{
					"anonymous": false,
					"inputs": [
						{
							"indexed": true,
							"internalType": "address",
							"name": "owner",
							"type": "address"
						},
						{
							"indexed": true,
							"internalType": "address",
							"name": "spender",
							"type": "address"
						},
						{
							"indexed": false,
							"internalType": "uint256",
							"name": "value",
							"type": "uint256"
						}
					],
					"name": "Approval",
					"type": "event"
				},
				{
					"anonymous": false,
					"inputs": [
						{
							"indexed": true,
							"internalType": "address",
							"name": "from",
							"type": "address"
						},
						{
							"indexed": true,
							"internalType": "address",
							"name": "to",
							"type": "address"
						},
						{
							"indexed": false,
							"internalType": "uint256",
							"name": "value",
							"type": "uint256"
						}
					],
					"name": "Transfer",
					"type": "event"
				},
				{
					"inputs": [
						{
							"internalType": "uint256",
							"name": "_amountA",
							"type": "uint256"
						},
						{
							"internalType": "uint256",
							"name": "_amountB",
							"type": "uint256"
						}
					],
					"name": "addLiquidity",
					"outputs": [
						{
							"internalType": "uint256",
							"name": "liquidity",
							"type": "uint256"
						}
					],
					"stateMutability": "nonpayable",
					"type": "function"
				},
				{
					"inputs": [
						{
							"internalType": "address",
							"name": "owner",
							"type": "address"
						},
						{
							"internalType": "address",
							"name": "spender",
							"type": "address"
						}
					],
					"name": "allowance",
					"outputs": [
						{
							"internalType": "uint256",
							"name": "",
							"type": "uint256"
						}
					],
					"stateMutability": "view",
					"type": "function"
				},
				{
					"inputs": [
						{
							"internalType": "address",
							"name": "spender",
							"type": "address"
						},
						{
							"internalType": "uint256",
							"name": "value",
							"type": "uint256"
						}
					],
					"name": "approve",
					"outputs": [
						{
							"internalType": "bool",
							"name": "",
							"type": "bool"
						}
					],
					"stateMutability": "nonpayable",
					"type": "function"
				},
				{
					"inputs": [
						{
							"internalType": "address",
							"name": "account",
							"type": "address"
						}
					],
					"name": "balanceOf",
					"outputs": [
						{
							"internalType": "uint256",
							"name": "",
							"type": "uint256"
						}
					],
					"stateMutability": "view",
					"type": "function"
				},
				{
					"inputs": [],
					"name": "decimals",
					"outputs": [
						{
							"internalType": "uint8",
							"name": "",
							"type": "uint8"
						}
					],
					"stateMutability": "view",
					"type": "function"
				},
				{
					"inputs": [],
					"name": "getReserves",
					"outputs": [
						{
							"internalType": "uint256",
							"name": "",
							"type": "uint256"
						},
						{
							"internalType": "uint256",
							"name": "",
							"type": "uint256"
						}
					],
					"stateMutability": "view",
					"type": "function"
				},
				{
					"inputs": [],
					"name": "name",
					"outputs": [
						{
							"internalType": "string",
							"name": "",
							"type": "string"
						}
					],
					"stateMutability": "view",
					"type": "function"
				},
				{
					"inputs": [
						{
							"internalType": "uint256",
							"name": "_lpTokenAmount",
							"type": "uint256"
						}
					],
					"name": "removeLiquidity",
					"outputs": [
						{
							"internalType": "uint256",
							"name": "amountA",
							"type": "uint256"
						},
						{
							"internalType": "uint256",
							"name": "amountB",
							"type": "uint256"
						}
					],
					"stateMutability": "nonpayable",
					"type": "function"
				},
				{
					"inputs": [],
					"name": "reserveA",
					"outputs": [
						{
							"internalType": "uint256",
							"name": "",
							"type": "uint256"
						}
					],
					"stateMutability": "view",
					"type": "function"
				},
				{
					"inputs": [],
					"name": "reserveB",
					"outputs": [
						{
							"internalType": "uint256",
							"name": "",
							"type": "uint256"
						}
					],
					"stateMutability": "view",
					"type": "function"
				},
				{
					"inputs": [
						{
							"internalType": "address",
							"name": "_tokenIn",
							"type": "address"
						},
						{
							"internalType": "uint256",
							"name": "_amountIn",
							"type": "uint256"
						}
					],
					"name": "swap",
					"outputs": [
						{
							"internalType": "uint256",
							"name": "amountOut",
							"type": "uint256"
						}
					],
					"stateMutability": "nonpayable",
					"type": "function"
				},
				{
					"inputs": [],
					"name": "symbol",
					"outputs": [
						{
							"internalType": "string",
							"name": "",
							"type": "string"
						}
					],
					"stateMutability": "view",
					"type": "function"
				},
				{
					"inputs": [],
					"name": "tokenA",
					"outputs": [
						{
							"internalType": "contract IERC20",
							"name": "",
							"type": "address"
						}
					],
					"stateMutability": "view",
					"type": "function"
				},
				{
					"inputs": [],
					"name": "tokenB",
					"outputs": [
						{
							"internalType": "contract IERC20",
							"name": "",
							"type": "address"
						}
					],
					"stateMutability": "view",
					"type": "function"
				},
				{
					"inputs": [],
					"name": "totalSupply",
					"outputs": [
						{
							"internalType": "uint256",
							"name": "",
							"type": "uint256"
						}
					],
					"stateMutability": "view",
					"type": "function"
				},
				{
					"inputs": [
						{
							"internalType": "address",
							"name": "to",
							"type": "address"
						},
						{
							"internalType": "uint256",
							"name": "value",
							"type": "uint256"
						}
					],
					"name": "transfer",
					"outputs": [
						{
							"internalType": "bool",
							"name": "",
							"type": "bool"
						}
					],
					"stateMutability": "nonpayable",
					"type": "function"
				},
				{
					"inputs": [
						{
							"internalType": "address",
							"name": "from",
							"type": "address"
						},
						{
							"internalType": "address",
							"name": "to",
							"type": "address"
						},
						{
							"internalType": "uint256",
							"name": "value",
							"type": "uint256"
						}
					],
					"name": "transferFrom",
					"outputs": [
						{
							"internalType": "bool",
							"name": "",
							"type": "bool"
						}
					],
					"stateMutability": "nonpayable",
					"type": "function"
				}
			],
			"devdoc": {
				"errors": {
					"ERC20InsufficientAllowance(address,uint256,uint256)": [
						{
							"details": "Indicates a failure with the `spender`’s `allowance`. Used in transfers.",
							"params": {
								"allowance": "Amount of tokens a `spender` is allowed to operate with.",
								"needed": "Minimum amount required to perform a transfer.",
								"spender": "Address that may be allowed to operate on tokens without being their owner."
							}
						}
					],
					"ERC20InsufficientBalance(address,uint256,uint256)": [
						{
							"details": "Indicates an error related to the current `balance` of a `sender`. Used in transfers.",
							"params": {
								"balance": "Current balance for the interacting account.",
								"needed": "Minimum amount required to perform a transfer.",
								"sender": "Address whose tokens are being transferred."
							}
						}
					],
					"ERC20InvalidApprover(address)": [
						{
							"details": "Indicates a failure with the `approver` of a token to be approved. Used in approvals.",
							"params": {
								"approver": "Address initiating an approval operation."
							}
						}
					],
					"ERC20InvalidReceiver(address)": [
						{
							"details": "Indicates a failure with the token `receiver`. Used in transfers.",
							"params": {
								"receiver": "Address to which tokens are being transferred."
							}
						}
					],
					"ERC20InvalidSender(address)": [
						{
							"details": "Indicates a failure with the token `sender`. Used in transfers.",
							"params": {
								"sender": "Address whose tokens are being transferred."
							}
						}
					],
					"ERC20InvalidSpender(address)": [
						{
							"details": "Indicates a failure with the `spender` to be approved. Used in approvals.",
							"params": {
								"spender": "Address that may be allowed to operate on tokens without being their owner."
							}
						}
					]
				},
				"events": {
					"Approval(address,address,uint256)": {
						"details": "Emitted when the allowance of a `spender` for an `owner` is set by a call to {approve}. `value` is the new allowance."
					},
					"Transfer(address,address,uint256)": {
						"details": "Emitted when `value` tokens are moved from one account (`from`) to another (`to`). Note that `value` may be zero."
					}
				},
				"kind": "dev",
				"methods": {
					"allowance(address,address)": {
						"details": "Returns the remaining number of tokens that `spender` will be allowed to spend on behalf of `owner` through {transferFrom}. This is zero by default. This value changes when {approve} or {transferFrom} are called."
					},
					"approve(address,uint256)": {
						"details": "See {IERC20-approve}. NOTE: If `value` is the maximum `uint256`, the allowance is not updated on `transferFrom`. This is semantically equivalent to an infinite approval. Requirements: - `spender` cannot be the zero address."
					},
					"balanceOf(address)": {
						"details": "Returns the value of tokens owned by `account`."
					},
					"decimals()": {
						"details": "Returns the number of decimals used to get its user representation. For example, if `decimals` equals `2`, a balance of `505` tokens should be displayed to a user as `5.05` (`505 / 10 ** 2`). Tokens usually opt for a value of 18, imitating the relationship between Ether and Wei. This is the default value returned by this function, unless it's overridden. NOTE: This information is only used for _display_ purposes: it in no way affects any of the arithmetic of the contract, including {IERC20-balanceOf} and {IERC20-transfer}."
					},
					"name()": {
						"details": "Returns the name of the token."
					},
					"symbol()": {
						"details": "Returns the symbol of the token, usually a shorter version of the name."
					},
					"totalSupply()": {
						"details": "Returns the value of tokens in existence."
					},
					"transfer(address,uint256)": {
						"details": "See {IERC20-transfer}. Requirements: - `to` cannot be the zero address. - the caller must have a balance of at least `value`."
					},
					"transferFrom(address,address,uint256)": {
						"details": "See {IERC20-transferFrom}. Skips emitting an {Approval} event indicating an allowance update. This is not required by the ERC. See {xref-ERC20-_approve-address-address-uint256-bool-}[_approve]. NOTE: Does not update the allowance if the current allowance is the maximum `uint256`. Requirements: - `from` and `to` cannot be the zero address. - `from` must have a balance of at least `value`. - the caller must have allowance for ``from``'s tokens of at least `value`."
					}
				},
				"version": 1
			},
			"evm": {
				"assembly": "    /* \"contracts/AmmExchange.sol\":226:3955  contract AmmExchange is ERC20 {... */\n  mstore(0x40, 0xc0)\n    /* \"contracts/AmmExchange.sol\":476:632  constructor(address _tokenA, address _tokenB) ERC20(\"Akin LP Token\", \"AK-LP\") {... */\n  callvalue\n  dup1\n  iszero\n  tag_1\n  jumpi\n  revert(0x00, 0x00)\ntag_1:\n  pop\n  mload(0x40)\n  sub(codesize, bytecodeSize)\n  dup1\n  bytecodeSize\n  dup4\n  codecopy\n  dup2\n  add\n  0x40\n  dup2\n  swap1\n  mstore\n  tag_2\n  swap2\n  tag_3\n  jump\t// in\ntag_2:\n    /* \"@openzeppelin/contracts/token/ERC20/ERC20.sol\":1582:1695  constructor(string memory name_, string memory symbol_) {... */\n  mload(0x40)\n  dup1\n  0x40\n  add\n  0x40\n  mstore\n  dup1\n  0x0d\n  dup2\n  mstore\n  0x20\n  add\n  shl(0x99, 0x20b5b4b7102628102a37b5b2b7)\n  dup2\n  mstore\n  pop\n  mload(0x40)\n  dup1\n  0x40\n  add\n  0x40\n  mstore\n  dup1\n  0x05\n  dup2\n  mstore\n  0x20\n  add\n  shl(0xdc, 0x0414b2d4c5)\n  dup2\n  mstore\n  pop\n    /* \"@openzeppelin/contracts/token/ERC20/ERC20.sol\":1656:1661  name_ */\n  dup2\n    /* \"@openzeppelin/contracts/token/ERC20/ERC20.sol\":1648:1653  _name */\n  0x03\n    /* \"@openzeppelin/contracts/token/ERC20/ERC20.sol\":1648:1661  _name = name_ */\n  swap1\n  dup2\n  tag_7\n  swap2\n  swap1\n  tag_8\n  jump\t// in\ntag_7:\n  pop\n    /* \"@openzeppelin/contracts/token/ERC20/ERC20.sol\":1671:1678  _symbol */\n  0x04\n    /* \"@openzeppelin/contracts/token/ERC20/ERC20.sol\":1671:1688  _symbol = symbol_ */\n  tag_9\n    /* \"@openzeppelin/contracts/token/ERC20/ERC20.sol\":1681:1688  symbol_ */\n  dup3\n    /* \"@openzeppelin/contracts/token/ERC20/ERC20.sol\":1671:1678  _symbol */\n  dup3\n    /* \"@openzeppelin/contracts/token/ERC20/ERC20.sol\":1671:1688  _symbol = symbol_ */\n  tag_8\n  jump\t// in\ntag_9:\n  pop\n  pop\n  pop\n  sub(shl(0xa0, 0x01), 0x01)\n    /* \"contracts/AmmExchange.sol\":565:589  tokenA = IERC20(_tokenA) */\n  swap2\n  dup3\n  and\n  0x80\n  mstore\n    /* \"contracts/AmmExchange.sol\":600:624  tokenB = IERC20(_tokenB) */\n  and\n  0xa0\n  mstore\n    /* \"contracts/AmmExchange.sol\":226:3955  contract AmmExchange is ERC20 {... */\n  jump(tag_18)\n    /* \"#utility.yul\":14:191   */\ntag_12:\n    /* \"#utility.yul\":93:106   */\n  dup1\n  mload\n  sub(shl(0xa0, 0x01), 0x01)\n    /* \"#utility.yul\":135:166   */\n  dup2\n  and\n    /* \"#utility.yul\":125:167   */\n  dup2\n  eq\n    /* \"#utility.yul\":115:185   */\n  tag_20\n  jumpi\n    /* \"#utility.yul\":181:182   */\n  0x00\n    /* \"#utility.yul\":178:179   */\n  0x00\n    /* \"#utility.yul\":171:183   */\n  revert\n    /* \"#utility.yul\":115:185   */\ntag_20:\n    /* \"#utility.yul\":14:191   */\n  swap2\n  swap1\n  pop\n  jump\t// out\n    /* \"#utility.yul\":196:489   */\ntag_3:\n    /* \"#utility.yul\":275:281   */\n  0x00\n    /* \"#utility.yul\":283:289   */\n  0x00\n    /* \"#utility.yul\":336:338   */\n  0x40\n    /* \"#utility.yul\":324:333   */\n  dup4\n    /* \"#utility.yul\":315:322   */\n  dup6\n    /* \"#utility.yul\":311:334   */\n  sub\n    /* \"#utility.yul\":307:339   */\n  slt\n    /* \"#utility.yul\":304:356   */\n  iszero\n  tag_22\n  jumpi\n    /* \"#utility.yul\":352:353   */\n  0x00\n    /* \"#utility.yul\":349:350   */\n  0x00\n    /* \"#utility.yul\":342:354   */\n  revert\n    /* \"#utility.yul\":304:356   */\ntag_22:\n    /* \"#utility.yul\":375:415   */\n  tag_23\n    /* \"#utility.yul\":405:414   */\n  dup4\n    /* \"#utility.yul\":375:415   */\n  tag_12\n  jump\t// in\ntag_23:\n    /* \"#utility.yul\":365:415   */\n  swap2\n  pop\n    /* \"#utility.yul\":434:483   */\n  tag_24\n    /* \"#utility.yul\":479:481   */\n  0x20\n    /* \"#utility.yul\":468:477   */\n  dup5\n    /* \"#utility.yul\":464:482   */\n  add\n    /* \"#utility.yul\":434:483   */\n  tag_12\n  jump\t// in\ntag_24:\n    /* \"#utility.yul\":424:483   */\n  swap1\n  pop\n    /* \"#utility.yul\":196:489   */\n  swap3\n  pop\n  swap3\n  swap1\n  pop\n  jump\t// out\n    /* \"#utility.yul\":494:621   */\ntag_13:\n    /* \"#utility.yul\":555:565   */\n  0x4e487b71\n    /* \"#utility.yul\":550:553   */\n  0xe0\n    /* \"#utility.yul\":546:566   */\n  shl\n    /* \"#utility.yul\":543:544   */\n  0x00\n    /* \"#utility.yul\":536:567   */\n  mstore\n    /* \"#utility.yul\":586:590   */\n  0x41\n    /* \"#utility.yul\":583:584   */\n  0x04\n    /* \"#utility.yul\":576:591   */\n  mstore\n    /* \"#utility.yul\":610:614   */\n  0x24\n    /* \"#utility.yul\":607:608   */\n  0x00\n    /* \"#utility.yul\":600:615   */\n  revert\n    /* \"#utility.yul\":626:1006   */\ntag_14:\n    /* \"#utility.yul\":705:706   */\n  0x01\n    /* \"#utility.yul\":701:713   */\n  dup2\n  dup2\n  shr\n  swap1\n    /* \"#utility.yul\":748:760   */\n  dup3\n  and\n  dup1\n    /* \"#utility.yul\":769:830   */\n  tag_27\n  jumpi\n    /* \"#utility.yul\":823:827   */\n  0x7f\n    /* \"#utility.yul\":815:821   */\n  dup3\n    /* \"#utility.yul\":811:828   */\n  and\n    /* \"#utility.yul\":801:828   */\n  swap2\n  pop\n    /* \"#utility.yul\":769:830   */\ntag_27:\n    /* \"#utility.yul\":876:878   */\n  0x20\n    /* \"#utility.yul\":868:874   */\n  dup3\n    /* \"#utility.yul\":865:879   */\n  lt\n    /* \"#utility.yul\":845:863   */\n  dup2\n    /* \"#utility.yul\":842:880   */\n  sub\n    /* \"#utility.yul\":839:1000   */\n  tag_28\n  jumpi\n    /* \"#utility.yul\":922:932   */\n  0x4e487b71\n    /* \"#utility.yul\":917:920   */\n  0xe0\n    /* \"#utility.yul\":913:933   */\n  shl\n    /* \"#utility.yul\":910:911   */\n  0x00\n    /* \"#utility.yul\":903:934   */\n  mstore\n    /* \"#utility.yul\":957:961   */\n  0x22\n    /* \"#utility.yul\":954:955   */\n  0x04\n    /* \"#utility.yul\":947:962   */\n  mstore\n    /* \"#utility.yul\":985:989   */\n  0x24\n    /* \"#utility.yul\":982:983   */\n  0x00\n    /* \"#utility.yul\":975:990   */\n  revert\n    /* \"#utility.yul\":839:1000   */\ntag_28:\n  pop\n    /* \"#utility.yul\":626:1006   */\n  swap2\n  swap1\n  pop\n  jump\t// out\n    /* \"#utility.yul\":1137:1655   */\ntag_16:\n    /* \"#utility.yul\":1239:1241   */\n  0x1f\n    /* \"#utility.yul\":1234:1237   */\n  dup3\n    /* \"#utility.yul\":1231:1242   */\n  gt\n    /* \"#utility.yul\":1228:1649   */\n  iszero\n  tag_31\n  jumpi\n    /* \"#utility.yul\":1275:1280   */\n  dup1\n    /* \"#utility.yul\":1272:1273   */\n  0x00\n    /* \"#utility.yul\":1265:1281   */\n  mstore\n    /* \"#utility.yul\":1319:1323   */\n  0x20\n    /* \"#utility.yul\":1316:1317   */\n  0x00\n    /* \"#utility.yul\":1306:1324   */\n  keccak256\n    /* \"#utility.yul\":1389:1391   */\n  0x1f\n    /* \"#utility.yul\":1377:1387   */\n  dup5\n    /* \"#utility.yul\":1373:1392   */\n  add\n    /* \"#utility.yul\":1370:1371   */\n  0x05\n    /* \"#utility.yul\":1366:1393   */\n  shr\n    /* \"#utility.yul\":1360:1364   */\n  dup2\n    /* \"#utility.yul\":1356:1394   */\n  add\n    /* \"#utility.yul\":1425:1429   */\n  0x20\n    /* \"#utility.yul\":1413:1423   */\n  dup6\n    /* \"#utility.yul\":1410:1430   */\n  lt\n    /* \"#utility.yul\":1407:1454   */\n  iszero\n  tag_32\n  jumpi\n  pop\n    /* \"#utility.yul\":1448:1452   */\n  dup1\n    /* \"#utility.yul\":1407:1454   */\ntag_32:\n    /* \"#utility.yul\":1503:1505   */\n  0x1f\n    /* \"#utility.yul\":1498:1501   */\n  dup5\n    /* \"#utility.yul\":1494:1506   */\n  add\n    /* \"#utility.yul\":1491:1492   */\n  0x05\n    /* \"#utility.yul\":1487:1507   */\n  shr\n    /* \"#utility.yul\":1481:1485   */\n  dup3\n    /* \"#utility.yul\":1477:1508   */\n  add\n    /* \"#utility.yul\":1467:1508   */\n  swap2\n  pop\n    /* \"#utility.yul\":1558:1639   */\ntag_33:\n    /* \"#utility.yul\":1576:1578   */\n  dup2\n    /* \"#utility.yul\":1569:1574   */\n  dup2\n    /* \"#utility.yul\":1566:1579   */\n  lt\n    /* \"#utility.yul\":1558:1639   */\n  iszero\n  tag_35\n  jumpi\n    /* \"#utility.yul\":1635:1636   */\n  0x00\n    /* \"#utility.yul\":1621:1637   */\n  dup2\n  sstore\n    /* \"#utility.yul\":1602:1603   */\n  0x01\n    /* \"#utility.yul\":1591:1604   */\n  add\n    /* \"#utility.yul\":1558:1639   */\n  jump(tag_33)\ntag_35:\n    /* \"#utility.yul\":1562:1565   */\n  pop\n  pop\n    /* \"#utility.yul\":1228:1649   */\ntag_31:\n    /* \"#utility.yul\":1137:1655   */\n  pop\n  pop\n  pop\n  jump\t// out\n    /* \"#utility.yul\":1831:3130   */\ntag_8:\n    /* \"#utility.yul\":1951:1961   */\n  dup2\n  mload\n  sub(shl(0x40, 0x01), 0x01)\n    /* \"#utility.yul\":1973:2003   */\n  dup2\n  gt\n    /* \"#utility.yul\":1970:2026   */\n  iszero\n  tag_39\n  jumpi\n    /* \"#utility.yul\":2006:2024   */\n  tag_39\n  tag_13\n  jump\t// in\ntag_39:\n    /* \"#utility.yul\":2035:2132   */\n  tag_40\n    /* \"#utility.yul\":2125:2131   */\n  dup2\n    /* \"#utility.yul\":2085:2123   */\n  tag_41\n    /* \"#utility.yul\":2117:2121   */\n  dup5\n    /* \"#utility.yul\":2111:2122   */\n  sload\n    /* \"#utility.yul\":2085:2123   */\n  tag_14\n  jump\t// in\ntag_41:\n    /* \"#utility.yul\":2079:2083   */\n  dup5\n    /* \"#utility.yul\":2035:2132   */\n  tag_16\n  jump\t// in\ntag_40:\n    /* \"#utility.yul\":2181:2185   */\n  0x20\n    /* \"#utility.yul\":2212:2214   */\n  0x1f\n    /* \"#utility.yul\":2201:2215   */\n  dup3\n  gt\n    /* \"#utility.yul\":2229:2230   */\n  0x01\n    /* \"#utility.yul\":2224:2873   */\n  dup2\n  eq\n  tag_43\n  jumpi\n    /* \"#utility.yul\":2917:2918   */\n  0x00\n    /* \"#utility.yul\":2934:2940   */\n  dup4\n    /* \"#utility.yul\":2931:3020   */\n  iszero\n  tag_44\n  jumpi\n  pop\n    /* \"#utility.yul\":2986:3005   */\n  dup5\n  dup3\n  add\n    /* \"#utility.yul\":2980:3006   */\n  mload\n    /* \"#utility.yul\":2931:3020   */\ntag_44:\n  not(0x00)\n    /* \"#utility.yul\":1788:1789   */\n  0x03\n    /* \"#utility.yul\":1784:1795   */\n  dup6\n  swap1\n  shl\n    /* \"#utility.yul\":1780:1804   */\n  shr\n    /* \"#utility.yul\":1776:1805   */\n  not\n    /* \"#utility.yul\":1766:1806   */\n  and\n    /* \"#utility.yul\":1812:1813   */\n  0x01\n    /* \"#utility.yul\":1808:1819   */\n  dup5\n  swap1\n  shl\n    /* \"#utility.yul\":1763:1820   */\n  or\n    /* \"#utility.yul\":3033:3114   */\n  dup5\n  sstore\n    /* \"#utility.yul\":2194:3124   */\n  jump(tag_35)\n    /* \"#utility.yul\":2224:2873   */\ntag_43:\n    /* \"#utility.yul\":1084:1085   */\n  0x00\n    /* \"#utility.yul\":1077:1091   */\n  dup5\n  dup2\n  mstore\n    /* \"#utility.yul\":1121:1125   */\n  0x20\n    /* \"#utility.yul\":1108:1126   */\n  dup2\n  keccak256\n  not(0x1f)\n    /* \"#utility.yul\":2260:2280   */\n  dup6\n  and\n  swap2\n    /* \"#utility.yul\":2378:2600   */\ntag_47:\n    /* \"#utility.yul\":2392:2399   */\n  dup3\n    /* \"#utility.yul\":2389:2390   */\n  dup2\n    /* \"#utility.yul\":2386:2400   */\n  lt\n    /* \"#utility.yul\":2378:2600   */\n  iszero\n  tag_49\n  jumpi\n    /* \"#utility.yul\":2474:2493   */\n  dup8\n  dup6\n  add\n    /* \"#utility.yul\":2468:2494   */\n  mload\n    /* \"#utility.yul\":2453:2495   */\n  dup3\n  sstore\n    /* \"#utility.yul\":2581:2585   */\n  0x20\n    /* \"#utility.yul\":2566:2586   */\n  swap5\n  dup6\n  add\n  swap5\n    /* \"#utility.yul\":2534:2535   */\n  0x01\n    /* \"#utility.yul\":2522:2536   */\n  swap1\n  swap3\n  add\n  swap2\n    /* \"#utility.yul\":2408:2420   */\n  add\n    /* \"#utility.yul\":2378:2600   */\n  jump(tag_47)\ntag_49:\n    /* \"#utility.yul\":2382:2385   */\n  pop\n    /* \"#utility.yul\":2628:2634   */\n  dup5\n    /* \"#utility.yul\":2619:2626   */\n  dup3\n    /* \"#utility.yul\":2616:2635   */\n  lt\n    /* \"#utility.yul\":2613:2814   */\n  iszero\n  tag_50\n  jumpi\n    /* \"#utility.yul\":2689:2708   */\n  dup7\n  dup5\n  add\n    /* \"#utility.yul\":2683:2709   */\n  mload\n  not(0x00)\n    /* \"#utility.yul\":2772:2773   */\n  0x03\n    /* \"#utility.yul\":2768:2782   */\n  dup8\n  swap1\n  shl\n    /* \"#utility.yul\":2784:2787   */\n  0xf8\n    /* \"#utility.yul\":2764:2788   */\n  and\n    /* \"#utility.yul\":2760:2797   */\n  shr\n    /* \"#utility.yul\":2756:2798   */\n  not\n    /* \"#utility.yul\":2741:2799   */\n  and\n    /* \"#utility.yul\":2726:2800   */\n  dup2\n  sstore\n    /* \"#utility.yul\":2613:2814   */\ntag_50:\n  pop\n  pop\n  pop\n  pop\n    /* \"#utility.yul\":2860:2861   */\n  0x01\n    /* \"#utility.yul\":2844:2858   */\n  swap1\n  dup2\n  shl\n    /* \"#utility.yul\":2840:2862   */\n  add\n    /* \"#utility.yul\":2827:2863   */\n  swap1\n  sstore\n  pop\n    /* \"#utility.yul\":1831:3130   */\n  jump\t// out\ntag_18:\n    /* \"contracts/AmmExchange.sol\":226:3955  contract AmmExchange is ERC20 {... */\n  mload(0x80)\n  mload(0xa0)\n  codecopy(0x00, dataOffset(sub_0), dataSize(sub_0))\n  0x00\n  assignImmutable(\"0xf7cd777c1c37c29af53ca944c4f85299ef255c4bda4754e5ba8570de0e121e29\")\n  0x00\n  assignImmutable(\"0x03065c56175bab9d6c02682cec557b5c933cd8364ccf2dd44ab76e0c260931e7\")\n  return(0x00, dataSize(sub_0))\nstop\n\nsub_0: assembly {\n        /* \"contracts/AmmExchange.sol\":226:3955  contract AmmExchange is ERC20 {... */\n      mstore(0x40, 0x80)\n      callvalue\n      dup1\n      iszero\n      tag_1\n      jumpi\n      revert(0x00, 0x00)\n    tag_1:\n      pop\n      jumpi(tag_2, lt(calldatasize, 0x04))\n      shr(0xe0, calldataload(0x00))\n      dup1\n      0x5f64b55b\n      gt\n      tag_20\n      jumpi\n      dup1\n      0x5f64b55b\n      eq\n      tag_11\n      jumpi\n      dup1\n      0x70a08231\n      eq\n      tag_12\n      jumpi\n      dup1\n      0x95d89b41\n      eq\n      tag_13\n      jumpi\n      dup1\n      0x9c8f9f23\n      eq\n      tag_14\n      jumpi\n      dup1\n      0x9cd441da\n      eq\n      tag_15\n      jumpi\n      dup1\n      0xa9059cbb\n      eq\n      tag_16\n      jumpi\n      dup1\n      0xd004f0f7\n      eq\n      tag_17\n      jumpi\n      dup1\n      0xdc5fa6c5\n      eq\n      tag_18\n      jumpi\n      dup1\n      0xdd62ed3e\n      eq\n      tag_19\n      jumpi\n      revert(0x00, 0x00)\n    tag_20:\n      dup1\n      0x06fdde03\n      eq\n      tag_3\n      jumpi\n      dup1\n      0x0902f1ac\n      eq\n      tag_4\n      jumpi\n      dup1\n      0x095ea7b3\n      eq\n      tag_5\n      jumpi\n      dup1\n      0x0fc63d10\n      eq\n      tag_6\n      jumpi\n      dup1\n      0x18160ddd\n      eq\n      tag_7\n      jumpi\n      dup1\n      0x19e36f3b\n      eq\n      tag_8\n      jumpi\n      dup1\n      0x23b872dd\n      eq\n      tag_9\n      jumpi\n      dup1\n      0x313ce567\n      eq\n      tag_10\n      jumpi\n    tag_2:\n      revert(0x00, 0x00)\n        /* \"@openzeppelin/contracts/token/ERC20/ERC20.sol\":1760:1849  function name() public view virtual returns (string memory) {... */\n    tag_3:\n      tag_21\n      tag_22\n      jump\t// in\n    tag_21:\n      mload(0x40)\n      tag_23\n      swap2\n      swap1\n      tag_24\n      jump\t// in\n    tag_23:\n      mload(0x40)\n      dup1\n      swap2\n      sub\n      swap1\n      return\n        /* \"contracts/AmmExchange.sol\":671:779  function getReserves() public view returns (uint256, uint256) {... */\n    tag_4:\n        /* \"contracts/AmmExchange.sol\":752:760  reserveA */\n      sload(0x05)\n        /* \"contracts/AmmExchange.sol\":762:770  reserveB */\n      sload(0x06)\n        /* \"contracts/AmmExchange.sol\":671:779  function getReserves() public view returns (uint256, uint256) {... */\n    tag_25:\n      0x40\n      dup1\n      mload\n        /* \"#utility.yul\":611:636   */\n      swap3\n      dup4\n      mstore\n        /* \"#utility.yul\":667:669   */\n      0x20\n        /* \"#utility.yul\":652:670   */\n      dup4\n      add\n        /* \"#utility.yul\":645:679   */\n      swap2\n      swap1\n      swap2\n      mstore\n        /* \"#utility.yul\":584:602   */\n      add\n        /* \"contracts/AmmExchange.sol\":671:779  function getReserves() public view returns (uint256, uint256) {... */\n      tag_23\n        /* \"#utility.yul\":437:685   */\n      jump\n        /* \"@openzeppelin/contracts/token/ERC20/ERC20.sol\":3902:4088  function approve(address spender, uint256 value) public virtual returns (bool) {... */\n    tag_5:\n      tag_29\n      tag_30\n      calldatasize\n      0x04\n      tag_31\n      jump\t// in\n    tag_30:\n      tag_32\n      jump\t// in\n    tag_29:\n      mload(0x40)\n        /* \"#utility.yul\":1338:1352   */\n      swap1\n      iszero\n        /* \"#utility.yul\":1331:1353   */\n      iszero\n        /* \"#utility.yul\":1313:1354   */\n      dup2\n      mstore\n        /* \"#utility.yul\":1301:1303   */\n      0x20\n        /* \"#utility.yul\":1286:1304   */\n      add\n        /* \"@openzeppelin/contracts/token/ERC20/ERC20.sol\":3902:4088  function approve(address spender, uint256 value) public virtual returns (bool) {... */\n      tag_23\n        /* \"#utility.yul\":1173:1360   */\n      jump\n        /* \"contracts/AmmExchange.sol\":263:293  IERC20 public immutable tokenA */\n    tag_6:\n      tag_35\n      immutable(\"0x03065c56175bab9d6c02682cec557b5c933cd8364ccf2dd44ab76e0c260931e7\")\n      dup2\n      jump\n    tag_35:\n      mload(0x40)\n      tag_23\n      swap2\n      swap1\n      tag_38\n      jump\t// in\n        /* \"@openzeppelin/contracts/token/ERC20/ERC20.sol\":2803:2900  function totalSupply() public view virtual returns (uint256) {... */\n    tag_7:\n        /* \"@openzeppelin/contracts/token/ERC20/ERC20.sol\":2881:2893  _totalSupply */\n      sload(0x02)\n        /* \"@openzeppelin/contracts/token/ERC20/ERC20.sol\":2803:2900  function totalSupply() public view virtual returns (uint256) {... */\n    tag_39:\n      mload(0x40)\n        /* \"#utility.yul\":1733:1758   */\n      swap1\n      dup2\n      mstore\n        /* \"#utility.yul\":1721:1723   */\n      0x20\n        /* \"#utility.yul\":1706:1724   */\n      add\n        /* \"@openzeppelin/contracts/token/ERC20/ERC20.sol\":2803:2900  function totalSupply() public view virtual returns (uint256) {... */\n      tag_23\n        /* \"#utility.yul\":1587:1764   */\n      jump\n        /* \"contracts/AmmExchange.sol\":369:392  uint256 public reserveB */\n    tag_8:\n      tag_39\n      sload(0x06)\n      dup2\n      jump\n        /* \"@openzeppelin/contracts/token/ERC20/ERC20.sol\":4680:4924  function transferFrom(address from, address to, uint256 value) public virtual returns (bool) {... */\n    tag_9:\n      tag_29\n      tag_47\n      calldatasize\n      0x04\n      tag_48\n      jump\t// in\n    tag_47:\n      tag_49\n      jump\t// in\n        /* \"@openzeppelin/contracts/token/ERC20/ERC20.sol\":2688:2770  function decimals() public view virtual returns (uint8) {... */\n    tag_10:\n      mload(0x40)\n        /* \"@openzeppelin/contracts/token/ERC20/ERC20.sol\":2761:2763  18 */\n      0x12\n        /* \"#utility.yul\":2290:2326   */\n      dup2\n      mstore\n        /* \"#utility.yul\":2278:2280   */\n      0x20\n        /* \"#utility.yul\":2263:2281   */\n      add\n        /* \"@openzeppelin/contracts/token/ERC20/ERC20.sol\":2688:2770  function decimals() public view virtual returns (uint8) {... */\n      tag_23\n        /* \"#utility.yul\":2148:2332   */\n      jump\n        /* \"contracts/AmmExchange.sol\":300:330  IERC20 public immutable tokenB */\n    tag_11:\n      tag_35\n      immutable(\"0xf7cd777c1c37c29af53ca944c4f85299ef255c4bda4754e5ba8570de0e121e29\")\n      dup2\n      jump\n        /* \"@openzeppelin/contracts/token/ERC20/ERC20.sol\":2933:3049  function balanceOf(address account) public view virtual returns (uint256) {... */\n    tag_12:\n      tag_39\n      tag_59\n      calldatasize\n      0x04\n      tag_60\n      jump\t// in\n    tag_59:\n      sub(shl(0xa0, 0x01), 0x01)\n        /* \"@openzeppelin/contracts/token/ERC20/ERC20.sol\":3024:3042  _balances[account] */\n      and\n        /* \"@openzeppelin/contracts/token/ERC20/ERC20.sol\":2998:3005  uint256 */\n      0x00\n        /* \"@openzeppelin/contracts/token/ERC20/ERC20.sol\":3024:3042  _balances[account] */\n      swap1\n      dup2\n      mstore\n      0x20\n      dup2\n      swap1\n      mstore\n      0x40\n      swap1\n      keccak256\n      sload\n      swap1\n        /* \"@openzeppelin/contracts/token/ERC20/ERC20.sol\":2933:3049  function balanceOf(address account) public view virtual returns (uint256) {... */\n      jump\n        /* \"@openzeppelin/contracts/token/ERC20/ERC20.sol\":1962:2055  function symbol() public view virtual returns (string memory) {... */\n    tag_13:\n      tag_21\n      tag_64\n      jump\t// in\n        /* \"contracts/AmmExchange.sol\":1831:2538  function removeLiquidity(uint256 _lpTokenAmount) public returns (uint256 amountA, uint256 amountB) {... */\n    tag_14:\n      tag_25\n      tag_67\n      calldatasize\n      0x04\n      tag_68\n      jump\t// in\n    tag_67:\n      tag_69\n      jump\t// in\n        /* \"contracts/AmmExchange.sol\":861:1782  function addLiquidity(uint256 _amountA, uint256 _amountB) public returns (uint256 liquidity) {... */\n    tag_15:\n      tag_39\n      tag_72\n      calldatasize\n      0x04\n      tag_73\n      jump\t// in\n    tag_72:\n      tag_74\n      jump\t// in\n        /* \"@openzeppelin/contracts/token/ERC20/ERC20.sol\":3244:3422  function transfer(address to, uint256 value) public virtual returns (bool) {... */\n    tag_16:\n      tag_29\n      tag_77\n      calldatasize\n      0x04\n      tag_31\n      jump\t// in\n    tag_77:\n      tag_78\n      jump\t// in\n        /* \"contracts/AmmExchange.sol\":2615:3952  function swap(address _tokenIn, uint256 _amountIn) public returns (uint256 amountOut) {... */\n    tag_17:\n      tag_39\n      tag_81\n      calldatasize\n      0x04\n      tag_31\n      jump\t// in\n    tag_81:\n      tag_82\n      jump\t// in\n        /* \"contracts/AmmExchange.sol\":339:362  uint256 public reserveA */\n    tag_18:\n      tag_39\n      sload(0x05)\n      dup2\n      jump\n        /* \"@openzeppelin/contracts/token/ERC20/ERC20.sol\":3455:3595  function allowance(address owner, address spender) public view virtual returns (uint256) {... */\n    tag_19:\n      tag_39\n      tag_88\n      calldatasize\n      0x04\n      tag_89\n      jump\t// in\n    tag_88:\n      tag_90\n      jump\t// in\n        /* \"@openzeppelin/contracts/token/ERC20/ERC20.sol\":1760:1849  function name() public view virtual returns (string memory) {... */\n    tag_22:\n        /* \"@openzeppelin/contracts/token/ERC20/ERC20.sol\":1805:1818  string memory */\n      0x60\n        /* \"@openzeppelin/contracts/token/ERC20/ERC20.sol\":1837:1842  _name */\n      0x03\n        /* \"@openzeppelin/contracts/token/ERC20/ERC20.sol\":1830:1842  return _name */\n      dup1\n      sload\n      tag_93\n      swap1\n      tag_94\n      jump\t// in\n    tag_93:\n      dup1\n      0x1f\n      add\n      0x20\n      dup1\n      swap2\n      div\n      mul\n      0x20\n      add\n      mload(0x40)\n      swap1\n      dup2\n      add\n      0x40\n      mstore\n      dup1\n      swap3\n      swap2\n      swap1\n      dup2\n      dup2\n      mstore\n      0x20\n      add\n      dup3\n      dup1\n      sload\n      tag_95\n      swap1\n      tag_94\n      jump\t// in\n    tag_95:\n      dup1\n      iszero\n      tag_96\n      jumpi\n      dup1\n      0x1f\n      lt\n      tag_97\n      jumpi\n      0x0100\n      dup1\n      dup4\n      sload\n      div\n      mul\n      dup4\n      mstore\n      swap2\n      0x20\n      add\n      swap2\n      jump(tag_96)\n    tag_97:\n      dup3\n      add\n      swap2\n      swap1\n      0x00\n      mstore\n      keccak256(0x00, 0x20)\n      swap1\n    tag_98:\n      dup2\n      sload\n      dup2\n      mstore\n      swap1\n      0x01\n      add\n      swap1\n      0x20\n      add\n      dup1\n      dup4\n      gt\n      tag_98\n      jumpi\n      dup3\n      swap1\n      sub\n      0x1f\n      and\n      dup3\n      add\n      swap2\n    tag_96:\n      pop\n      pop\n      pop\n      pop\n      pop\n      swap1\n      pop\n        /* \"@openzeppelin/contracts/token/ERC20/ERC20.sol\":1760:1849  function name() public view virtual returns (string memory) {... */\n      swap1\n      jump\t// out\n        /* \"@openzeppelin/contracts/token/ERC20/ERC20.sol\":3902:4088  function approve(address spender, uint256 value) public virtual returns (bool) {... */\n    tag_32:\n        /* \"@openzeppelin/contracts/token/ERC20/ERC20.sol\":3975:3979  bool */\n      0x00\n        /* \"@openzeppelin/contracts/utils/Context.sol\":735:745  msg.sender */\n      caller\n        /* \"@openzeppelin/contracts/token/ERC20/ERC20.sol\":4029:4060  _approve(owner, spender, value) */\n      tag_103\n        /* \"@openzeppelin/contracts/utils/Context.sol\":735:745  msg.sender */\n      dup2\n        /* \"@openzeppelin/contracts/token/ERC20/ERC20.sol\":4045:4052  spender */\n      dup6\n        /* \"@openzeppelin/contracts/token/ERC20/ERC20.sol\":4054:4059  value */\n      dup6\n        /* \"@openzeppelin/contracts/token/ERC20/ERC20.sol\":4029:4037  _approve */\n      tag_104\n        /* \"@openzeppelin/contracts/token/ERC20/ERC20.sol\":4029:4060  _approve(owner, spender, value) */\n      jump\t// in\n    tag_103:\n        /* \"@openzeppelin/contracts/token/ERC20/ERC20.sol\":4077:4081  true */\n      0x01\n        /* \"@openzeppelin/contracts/token/ERC20/ERC20.sol\":4070:4081  return true */\n      swap2\n      pop\n      pop\n        /* \"@openzeppelin/contracts/token/ERC20/ERC20.sol\":3902:4088  function approve(address spender, uint256 value) public virtual returns (bool) {... */\n    tag_100:\n      swap3\n      swap2\n      pop\n      pop\n      jump\t// out\n        /* \"@openzeppelin/contracts/token/ERC20/ERC20.sol\":4680:4924  function transferFrom(address from, address to, uint256 value) public virtual returns (bool) {... */\n    tag_49:\n        /* \"@openzeppelin/contracts/token/ERC20/ERC20.sol\":4767:4771  bool */\n      0x00\n        /* \"@openzeppelin/contracts/utils/Context.sol\":735:745  msg.sender */\n      caller\n        /* \"@openzeppelin/contracts/token/ERC20/ERC20.sol\":4823:4860  _spendAllowance(from, spender, value) */\n      tag_108\n        /* \"@openzeppelin/contracts/token/ERC20/ERC20.sol\":4839:4843  from */\n      dup6\n        /* \"@openzeppelin/contracts/utils/Context.sol\":735:745  msg.sender */\n      dup3\n        /* \"@openzeppelin/contracts/token/ERC20/ERC20.sol\":4854:4859  value */\n      dup6\n        /* \"@openzeppelin/contracts/token/ERC20/ERC20.sol\":4823:4838  _spendAllowance */\n      tag_109\n        /* \"@openzeppelin/contracts/token/ERC20/ERC20.sol\":4823:4860  _spendAllowance(from, spender, value) */\n      jump\t// in\n    tag_108:\n        /* \"@openzeppelin/contracts/token/ERC20/ERC20.sol\":4870:4896  _transfer(from, to, value) */\n      tag_110\n        /* \"@openzeppelin/contracts/token/ERC20/ERC20.sol\":4880:4884  from */\n      dup6\n        /* \"@openzeppelin/contracts/token/ERC20/ERC20.sol\":4886:4888  to */\n      dup6\n        /* \"@openzeppelin/contracts/token/ERC20/ERC20.sol\":4890:4895  value */\n      dup6\n        /* \"@openzeppelin/contracts/token/ERC20/ERC20.sol\":4870:4879  _transfer */\n      tag_111\n        /* \"@openzeppelin/contracts/token/ERC20/ERC20.sol\":4870:4896  _transfer(from, to, value) */\n      jump\t// in\n    tag_110:\n      pop\n        /* \"@openzeppelin/contracts/token/ERC20/ERC20.sol\":4913:4917  true */\n      0x01\n      swap5\n        /* \"@openzeppelin/contracts/token/ERC20/ERC20.sol\":4680:4924  function transferFrom(address from, address to, uint256 value) public virtual returns (bool) {... */\n      swap4\n      pop\n      pop\n      pop\n      pop\n      jump\t// out\n        /* \"@openzeppelin/contracts/token/ERC20/ERC20.sol\":1962:2055  function symbol() public view virtual returns (string memory) {... */\n    tag_64:\n        /* \"@openzeppelin/contracts/token/ERC20/ERC20.sol\":2009:2022  string memory */\n      0x60\n        /* \"@openzeppelin/contracts/token/ERC20/ERC20.sol\":2041:2048  _symbol */\n      0x04\n        /* \"@openzeppelin/contracts/token/ERC20/ERC20.sol\":2034:2048  return _symbol */\n      dup1\n      sload\n      tag_93\n      swap1\n      tag_94\n      jump\t// in\n        /* \"contracts/AmmExchange.sol\":1831:2538  function removeLiquidity(uint256 _lpTokenAmount) public returns (uint256 amountA, uint256 amountB) {... */\n    tag_69:\n        /* \"contracts/AmmExchange.sol\":1896:1911  uint256 amountA */\n      0x00\n        /* \"contracts/AmmExchange.sol\":1913:1928  uint256 amountB */\n      0x00\n        /* \"contracts/AmmExchange.sol\":1966:1967  0 */\n      0x00\n        /* \"contracts/AmmExchange.sol\":1949:1963  _lpTokenAmount */\n      dup4\n        /* \"contracts/AmmExchange.sol\":1949:1967  _lpTokenAmount > 0 */\n      gt\n        /* \"contracts/AmmExchange.sol\":1941:1997  require(_lpTokenAmount > 0, \"Cannot remove 0 liquidity\") */\n      tag_121\n      jumpi\n      mload(0x40)\n      shl(0xe5, 0x461bcd)\n      dup2\n      mstore\n        /* \"#utility.yul\":3962:3964   */\n      0x20\n        /* \"contracts/AmmExchange.sol\":1941:1997  require(_lpTokenAmount > 0, \"Cannot remove 0 liquidity\") */\n      0x04\n      dup3\n      add\n        /* \"#utility.yul\":3944:3965   */\n      mstore\n        /* \"#utility.yul\":4001:4003   */\n      0x19\n        /* \"#utility.yul\":3981:3999   */\n      0x24\n      dup3\n      add\n        /* \"#utility.yul\":3974:4004   */\n      mstore\n      shl(0x38, 0x43616e6e6f742072656d6f76652030206c6971756964697479)\n        /* \"#utility.yul\":4020:4038   */\n      0x44\n      dup3\n      add\n        /* \"#utility.yul\":4013:4068   */\n      mstore\n        /* \"#utility.yul\":4085:4103   */\n      0x64\n      add\n        /* \"contracts/AmmExchange.sol\":1941:1997  require(_lpTokenAmount > 0, \"Cannot remove 0 liquidity\") */\n    tag_122:\n      mload(0x40)\n      dup1\n      swap2\n      sub\n      swap1\n      revert\n    tag_121:\n        /* \"contracts/AmmExchange.sol\":2018:2033  uint256 totalLP */\n      0x00\n        /* \"contracts/AmmExchange.sol\":2036:2049  totalSupply() */\n      tag_124\n        /* \"@openzeppelin/contracts/token/ERC20/ERC20.sol\":2881:2893  _totalSupply */\n      sload(0x02)\n      swap1\n        /* \"@openzeppelin/contracts/token/ERC20/ERC20.sol\":2803:2900  function totalSupply() public view virtual returns (uint256) {... */\n      jump\n        /* \"contracts/AmmExchange.sol\":2036:2049  totalSupply() */\n    tag_124:\n        /* \"contracts/AmmExchange.sol\":2018:2049  uint256 totalLP = totalSupply() */\n      swap1\n      pop\n        /* \"contracts/AmmExchange.sol\":2100:2107  totalLP */\n      dup1\n        /* \"contracts/AmmExchange.sol\":2082:2096  _lpTokenAmount */\n      dup5\n        /* \"contracts/AmmExchange.sol\":2071:2079  reserveA */\n      sload(0x05)\n        /* \"contracts/AmmExchange.sol\":2071:2096  reserveA * _lpTokenAmount */\n      tag_125\n      swap2\n      swap1\n      tag_126\n      jump\t// in\n    tag_125:\n        /* \"contracts/AmmExchange.sol\":2070:2107  (reserveA * _lpTokenAmount) / totalLP */\n      tag_127\n      swap2\n      swap1\n      tag_128\n      jump\t// in\n    tag_127:\n        /* \"contracts/AmmExchange.sol\":2060:2107  amountA = (reserveA * _lpTokenAmount) / totalLP */\n      swap3\n      pop\n        /* \"contracts/AmmExchange.sol\":2158:2165  totalLP */\n      dup1\n        /* \"contracts/AmmExchange.sol\":2140:2154  _lpTokenAmount */\n      dup5\n        /* \"contracts/AmmExchange.sol\":2129:2137  reserveB */\n      sload(0x06)\n        /* \"contracts/AmmExchange.sol\":2129:2154  reserveB * _lpTokenAmount */\n      tag_129\n      swap2\n      swap1\n      tag_126\n      jump\t// in\n    tag_129:\n        /* \"contracts/AmmExchange.sol\":2128:2165  (reserveB * _lpTokenAmount) / totalLP */\n      tag_130\n      swap2\n      swap1\n      tag_128\n      jump\t// in\n    tag_130:\n        /* \"contracts/AmmExchange.sol\":2118:2165  amountB = (reserveB * _lpTokenAmount) / totalLP */\n      swap2\n      pop\n        /* \"contracts/AmmExchange.sol\":2196:2197  0 */\n      0x00\n        /* \"contracts/AmmExchange.sol\":2186:2193  amountA */\n      dup4\n        /* \"contracts/AmmExchange.sol\":2186:2197  amountA > 0 */\n      gt\n        /* \"contracts/AmmExchange.sol\":2186:2212  amountA > 0 && amountB > 0 */\n      dup1\n      iszero\n      tag_131\n      jumpi\n      pop\n        /* \"contracts/AmmExchange.sol\":2211:2212  0 */\n      0x00\n        /* \"contracts/AmmExchange.sol\":2201:2208  amountB */\n      dup3\n        /* \"contracts/AmmExchange.sol\":2201:2212  amountB > 0 */\n      gt\n        /* \"contracts/AmmExchange.sol\":2186:2212  amountA > 0 && amountB > 0 */\n    tag_131:\n        /* \"contracts/AmmExchange.sol\":2178:2249  require(amountA > 0 && amountB > 0, \"Insufficient amounts to withdraw\") */\n      tag_132\n      jumpi\n      mload(0x40)\n      shl(0xe5, 0x461bcd)\n      dup2\n      mstore\n        /* \"#utility.yul\":4843:4845   */\n      0x20\n        /* \"contracts/AmmExchange.sol\":2178:2249  require(amountA > 0 && amountB > 0, \"Insufficient amounts to withdraw\") */\n      0x04\n      dup3\n      add\n        /* \"#utility.yul\":4825:4846   */\n      dup2\n      swap1\n      mstore\n        /* \"#utility.yul\":4862:4880   */\n      0x24\n      dup3\n      add\n        /* \"#utility.yul\":4855:4885   */\n      mstore\n        /* \"#utility.yul\":4921:4955   */\n      0x496e73756666696369656e7420616d6f756e747320746f207769746864726177\n        /* \"#utility.yul\":4901:4919   */\n      0x44\n      dup3\n      add\n        /* \"#utility.yul\":4894:4956   */\n      mstore\n        /* \"#utility.yul\":4973:4991   */\n      0x64\n      add\n        /* \"contracts/AmmExchange.sol\":2178:2249  require(amountA > 0 && amountB > 0, \"Insufficient amounts to withdraw\") */\n      tag_122\n        /* \"#utility.yul\":4641:4997   */\n      jump\n        /* \"contracts/AmmExchange.sol\":2178:2249  require(amountA > 0 && amountB > 0, \"Insufficient amounts to withdraw\") */\n    tag_132:\n        /* \"contracts/AmmExchange.sol\":2262:2295  _burn(msg.sender, _lpTokenAmount) */\n      tag_135\n        /* \"contracts/AmmExchange.sol\":2268:2278  msg.sender */\n      caller\n        /* \"contracts/AmmExchange.sol\":2280:2294  _lpTokenAmount */\n      dup6\n        /* \"contracts/AmmExchange.sol\":2262:2267  _burn */\n      tag_136\n        /* \"contracts/AmmExchange.sol\":2262:2295  _burn(msg.sender, _lpTokenAmount) */\n      jump\t// in\n    tag_135:\n        /* \"contracts/AmmExchange.sol\":2335:2371  tokenA.transfer(msg.sender, amountA) */\n      mload(0x40)\n      shl(0xe0, 0xa9059cbb)\n      dup2\n      mstore\n      sub(shl(0xa0, 0x01), 0x01)\n        /* \"contracts/AmmExchange.sol\":2335:2341  tokenA */\n      immutable(\"0x03065c56175bab9d6c02682cec557b5c933cd8364ccf2dd44ab76e0c260931e7\")\n        /* \"contracts/AmmExchange.sol\":2335:2350  tokenA.transfer */\n      and\n      swap1\n      0xa9059cbb\n      swap1\n        /* \"contracts/AmmExchange.sol\":2335:2371  tokenA.transfer(msg.sender, amountA) */\n      tag_137\n      swap1\n        /* \"contracts/AmmExchange.sol\":2351:2361  msg.sender */\n      caller\n      swap1\n        /* \"contracts/AmmExchange.sol\":2363:2370  amountA */\n      dup8\n      swap1\n        /* \"contracts/AmmExchange.sol\":2335:2371  tokenA.transfer(msg.sender, amountA) */\n      0x04\n      add\n      tag_138\n      jump\t// in\n    tag_137:\n      0x20\n      mload(0x40)\n      dup1\n      dup4\n      sub\n      dup2\n      0x00\n      dup8\n      gas\n      call\n      iszero\n      dup1\n      iszero\n      tag_140\n      jumpi\n      returndatacopy(0x00, 0x00, returndatasize)\n      revert(0x00, returndatasize)\n    tag_140:\n      pop\n      pop\n      pop\n      pop\n      mload(0x40)\n      returndatasize\n      not(0x1f)\n      0x1f\n      dup3\n      add\n      and\n      dup3\n      add\n      dup1\n      0x40\n      mstore\n      pop\n      dup2\n      add\n      swap1\n      tag_141\n      swap2\n      swap1\n      tag_142\n      jump\t// in\n    tag_141:\n      pop\n        /* \"contracts/AmmExchange.sol\":2403:2439  tokenB.transfer(msg.sender, amountB) */\n      mload(0x40)\n      shl(0xe0, 0xa9059cbb)\n      dup2\n      mstore\n      sub(shl(0xa0, 0x01), 0x01)\n        /* \"contracts/AmmExchange.sol\":2403:2409  tokenB */\n      immutable(\"0xf7cd777c1c37c29af53ca944c4f85299ef255c4bda4754e5ba8570de0e121e29\")\n        /* \"contracts/AmmExchange.sol\":2403:2418  tokenB.transfer */\n      and\n      swap1\n      0xa9059cbb\n      swap1\n        /* \"contracts/AmmExchange.sol\":2403:2439  tokenB.transfer(msg.sender, amountB) */\n      tag_143\n      swap1\n        /* \"contracts/AmmExchange.sol\":2419:2429  msg.sender */\n      caller\n      swap1\n        /* \"contracts/AmmExchange.sol\":2431:2438  amountB */\n      dup7\n      swap1\n        /* \"contracts/AmmExchange.sol\":2403:2439  tokenB.transfer(msg.sender, amountB) */\n      0x04\n      add\n      tag_138\n      jump\t// in\n    tag_143:\n      0x20\n      mload(0x40)\n      dup1\n      dup4\n      sub\n      dup2\n      0x00\n      dup8\n      gas\n      call\n      iszero\n      dup1\n      iszero\n      tag_145\n      jumpi\n      returndatacopy(0x00, 0x00, returndatasize)\n      revert(0x00, returndatasize)\n    tag_145:\n      pop\n      pop\n      pop\n      pop\n      mload(0x40)\n      returndatasize\n      not(0x1f)\n      0x1f\n      dup3\n      add\n      and\n      dup3\n      add\n      dup1\n      0x40\n      mstore\n      pop\n      dup2\n      add\n      swap1\n      tag_146\n      swap2\n      swap1\n      tag_142\n      jump\t// in\n    tag_146:\n      pop\n        /* \"contracts/AmmExchange.sol\":2493:2500  amountA */\n      dup3\n        /* \"contracts/AmmExchange.sol\":2481:2489  reserveA */\n      0x05\n      0x00\n        /* \"contracts/AmmExchange.sol\":2481:2500  reserveA -= amountA */\n      dup3\n      dup3\n      sload\n      tag_147\n      swap2\n      swap1\n      tag_148\n      jump\t// in\n    tag_147:\n      swap3\n      pop\n      pop\n      dup2\n      swap1\n      sstore\n      pop\n        /* \"contracts/AmmExchange.sol\":2523:2530  amountB */\n      dup2\n        /* \"contracts/AmmExchange.sol\":2511:2519  reserveB */\n      0x06\n      0x00\n        /* \"contracts/AmmExchange.sol\":2511:2530  reserveB -= amountB */\n      dup3\n      dup3\n      sload\n      tag_149\n      swap2\n      swap1\n      tag_148\n      jump\t// in\n    tag_149:\n      swap3\n      pop\n      pop\n      dup2\n      swap1\n      sstore\n      pop\n        /* \"contracts/AmmExchange.sol\":1930:2538  {... */\n      pop\n        /* \"contracts/AmmExchange.sol\":1831:2538  function removeLiquidity(uint256 _lpTokenAmount) public returns (uint256 amountA, uint256 amountB) {... */\n      swap2\n      pop\n      swap2\n      jump\t// out\n        /* \"contracts/AmmExchange.sol\":861:1782  function addLiquidity(uint256 _amountA, uint256 _amountB) public returns (uint256 liquidity) {... */\n    tag_74:\n        /* \"contracts/AmmExchange.sol\":1050:1106  tokenA.transferFrom(msg.sender, address(this), _amountA) */\n      mload(0x40)\n      shl(0xe0, 0x23b872dd)\n      dup2\n      mstore\n        /* \"contracts/AmmExchange.sol\":935:952  uint256 liquidity */\n      0x00\n      swap1\n      sub(shl(0xa0, 0x01), 0x01)\n        /* \"contracts/AmmExchange.sol\":1050:1056  tokenA */\n      immutable(\"0x03065c56175bab9d6c02682cec557b5c933cd8364ccf2dd44ab76e0c260931e7\")\n        /* \"contracts/AmmExchange.sol\":1050:1069  tokenA.transferFrom */\n      and\n      swap1\n      0x23b872dd\n      swap1\n        /* \"contracts/AmmExchange.sol\":1050:1106  tokenA.transferFrom(msg.sender, address(this), _amountA) */\n      tag_151\n      swap1\n        /* \"contracts/AmmExchange.sol\":1070:1080  msg.sender */\n      caller\n      swap1\n        /* \"contracts/AmmExchange.sol\":1090:1094  this */\n      address\n      swap1\n        /* \"contracts/AmmExchange.sol\":1097:1105  _amountA */\n      dup9\n      swap1\n        /* \"contracts/AmmExchange.sol\":1050:1106  tokenA.transferFrom(msg.sender, address(this), _amountA) */\n      0x04\n      add\n      tag_152\n      jump\t// in\n    tag_151:\n      0x20\n      mload(0x40)\n      dup1\n      dup4\n      sub\n      dup2\n      0x00\n      dup8\n      gas\n      call\n      iszero\n      dup1\n      iszero\n      tag_154\n      jumpi\n      returndatacopy(0x00, 0x00, returndatasize)\n      revert(0x00, returndatasize)\n    tag_154:\n      pop\n      pop\n      pop\n      pop\n      mload(0x40)\n      returndatasize\n      not(0x1f)\n      0x1f\n      dup3\n      add\n      and\n      dup3\n      add\n      dup1\n      0x40\n      mstore\n      pop\n      dup2\n      add\n      swap1\n      tag_155\n      swap2\n      swap1\n      tag_142\n      jump\t// in\n    tag_155:\n        /* \"contracts/AmmExchange.sol\":1042:1128  require(tokenA.transferFrom(msg.sender, address(this), _amountA), \"Transfer A failed\") */\n      tag_156\n      jumpi\n      mload(0x40)\n      shl(0xe5, 0x461bcd)\n      dup2\n      mstore\n        /* \"#utility.yul\":6274:6276   */\n      0x20\n        /* \"contracts/AmmExchange.sol\":1042:1128  require(tokenA.transferFrom(msg.sender, address(this), _amountA), \"Transfer A failed\") */\n      0x04\n      dup3\n      add\n        /* \"#utility.yul\":6256:6277   */\n      mstore\n        /* \"#utility.yul\":6313:6315   */\n      0x11\n        /* \"#utility.yul\":6293:6311   */\n      0x24\n      dup3\n      add\n        /* \"#utility.yul\":6286:6316   */\n      mstore\n      shl(0x7a, 0x151c985b9cd9995c88104819985a5b1959)\n        /* \"#utility.yul\":6332:6350   */\n      0x44\n      dup3\n      add\n        /* \"#utility.yul\":6325:6372   */\n      mstore\n        /* \"#utility.yul\":6389:6407   */\n      0x64\n      add\n        /* \"contracts/AmmExchange.sol\":1042:1128  require(tokenA.transferFrom(msg.sender, address(this), _amountA), \"Transfer A failed\") */\n      tag_122\n        /* \"#utility.yul\":6072:6413   */\n      jump\n        /* \"contracts/AmmExchange.sol\":1042:1128  require(tokenA.transferFrom(msg.sender, address(this), _amountA), \"Transfer A failed\") */\n    tag_156:\n        /* \"contracts/AmmExchange.sol\":1147:1203  tokenB.transferFrom(msg.sender, address(this), _amountB) */\n      mload(0x40)\n      shl(0xe0, 0x23b872dd)\n      dup2\n      mstore\n      sub(shl(0xa0, 0x01), 0x01)\n        /* \"contracts/AmmExchange.sol\":1147:1153  tokenB */\n      immutable(\"0xf7cd777c1c37c29af53ca944c4f85299ef255c4bda4754e5ba8570de0e121e29\")\n        /* \"contracts/AmmExchange.sol\":1147:1166  tokenB.transferFrom */\n      and\n      swap1\n      0x23b872dd\n      swap1\n        /* \"contracts/AmmExchange.sol\":1147:1203  tokenB.transferFrom(msg.sender, address(this), _amountB) */\n      tag_159\n      swap1\n        /* \"contracts/AmmExchange.sol\":1167:1177  msg.sender */\n      caller\n      swap1\n        /* \"contracts/AmmExchange.sol\":1187:1191  this */\n      address\n      swap1\n        /* \"contracts/AmmExchange.sol\":1194:1202  _amountB */\n      dup8\n      swap1\n        /* \"contracts/AmmExchange.sol\":1147:1203  tokenB.transferFrom(msg.sender, address(this), _amountB) */\n      0x04\n      add\n      tag_152\n      jump\t// in\n    tag_159:\n      0x20\n      mload(0x40)\n      dup1\n      dup4\n      sub\n      dup2\n      0x00\n      dup8\n      gas\n      call\n      iszero\n      dup1\n      iszero\n      tag_161\n      jumpi\n      returndatacopy(0x00, 0x00, returndatasize)\n      revert(0x00, returndatasize)\n    tag_161:\n      pop\n      pop\n      pop\n      pop\n      mload(0x40)\n      returndatasize\n      not(0x1f)\n      0x1f\n      dup3\n      add\n      and\n      dup3\n      add\n      dup1\n      0x40\n      mstore\n      pop\n      dup2\n      add\n      swap1\n      tag_162\n      swap2\n      swap1\n      tag_142\n      jump\t// in\n    tag_162:\n        /* \"contracts/AmmExchange.sol\":1139:1225  require(tokenB.transferFrom(msg.sender, address(this), _amountB), \"Transfer B failed\") */\n      tag_163\n      jumpi\n      mload(0x40)\n      shl(0xe5, 0x461bcd)\n      dup2\n      mstore\n        /* \"#utility.yul\":6620:6622   */\n      0x20\n        /* \"contracts/AmmExchange.sol\":1139:1225  require(tokenB.transferFrom(msg.sender, address(this), _amountB), \"Transfer B failed\") */\n      0x04\n      dup3\n      add\n        /* \"#utility.yul\":6602:6623   */\n      mstore\n        /* \"#utility.yul\":6659:6661   */\n      0x11\n        /* \"#utility.yul\":6639:6657   */\n      0x24\n      dup3\n      add\n        /* \"#utility.yul\":6632:6662   */\n      mstore\n      shl(0x7a, 0x151c985b9cd9995c88108819985a5b1959)\n        /* \"#utility.yul\":6678:6696   */\n      0x44\n      dup3\n      add\n        /* \"#utility.yul\":6671:6718   */\n      mstore\n        /* \"#utility.yul\":6735:6753   */\n      0x64\n      add\n        /* \"contracts/AmmExchange.sol\":1139:1225  require(tokenB.transferFrom(msg.sender, address(this), _amountB), \"Transfer B failed\") */\n      tag_122\n        /* \"#utility.yul\":6418:6759   */\n      jump\n        /* \"contracts/AmmExchange.sol\":1139:1225  require(tokenB.transferFrom(msg.sender, address(this), _amountB), \"Transfer B failed\") */\n    tag_163:\n        /* \"@openzeppelin/contracts/token/ERC20/ERC20.sol\":2881:2893  _totalSupply */\n      sload(0x02)\n        /* \"contracts/AmmExchange.sol\":1298:1299  0 */\n      0x00\n        /* \"contracts/AmmExchange.sol\":1281:1299  totalSupply() == 0 */\n      sub\n        /* \"contracts/AmmExchange.sol\":1277:1576  if (totalSupply() == 0) {... */\n      tag_167\n      jumpi\n      pop\n        /* \"contracts/AmmExchange.sol\":1417:1425  _amountA */\n      dup2\n        /* \"contracts/AmmExchange.sol\":1277:1576  if (totalSupply() == 0) {... */\n      jump(tag_168)\n    tag_167:\n        /* \"contracts/AmmExchange.sol\":1556:1564  reserveA */\n      sload(0x05)\n        /* \"@openzeppelin/contracts/token/ERC20/ERC20.sol\":2881:2893  _totalSupply */\n      sload(0x02)\n        /* \"contracts/AmmExchange.sol\":1528:1552  _amountA * totalSupply() */\n      tag_170\n      swap1\n        /* \"contracts/AmmExchange.sol\":1528:1536  _amountA */\n      dup6\n        /* \"contracts/AmmExchange.sol\":1528:1552  _amountA * totalSupply() */\n      tag_126\n      jump\t// in\n    tag_170:\n        /* \"contracts/AmmExchange.sol\":1527:1564  (_amountA * totalSupply()) / reserveA */\n      tag_171\n      swap2\n      swap1\n      tag_128\n      jump\t// in\n    tag_171:\n        /* \"contracts/AmmExchange.sol\":1515:1564  liquidity = (_amountA * totalSupply()) / reserveA */\n      swap1\n      pop\n        /* \"contracts/AmmExchange.sol\":1277:1576  if (totalSupply() == 0) {... */\n    tag_168:\n        /* \"contracts/AmmExchange.sol\":1608:1609  0 */\n      0x00\n        /* \"contracts/AmmExchange.sol\":1596:1605  liquidity */\n      dup2\n        /* \"contracts/AmmExchange.sol\":1596:1609  liquidity > 0 */\n      gt\n        /* \"contracts/AmmExchange.sol\":1588:1643  require(liquidity > 0, \"Insufficient liquidity minted\") */\n      tag_172\n      jumpi\n      mload(0x40)\n      shl(0xe5, 0x461bcd)\n      dup2\n      mstore\n        /* \"#utility.yul\":6966:6968   */\n      0x20\n        /* \"contracts/AmmExchange.sol\":1588:1643  require(liquidity > 0, \"Insufficient liquidity minted\") */\n      0x04\n      dup3\n      add\n        /* \"#utility.yul\":6948:6969   */\n      mstore\n        /* \"#utility.yul\":7005:7007   */\n      0x1d\n        /* \"#utility.yul\":6985:7003   */\n      0x24\n      dup3\n      add\n        /* \"#utility.yul\":6978:7008   */\n      mstore\n        /* \"#utility.yul\":7044:7075   */\n      0x496e73756666696369656e74206c6971756964697479206d696e746564000000\n        /* \"#utility.yul\":7024:7042   */\n      0x44\n      dup3\n      add\n        /* \"#utility.yul\":7017:7076   */\n      mstore\n        /* \"#utility.yul\":7093:7111   */\n      0x64\n      add\n        /* \"contracts/AmmExchange.sol\":1588:1643  require(liquidity > 0, \"Insufficient liquidity minted\") */\n      tag_122\n        /* \"#utility.yul\":6764:7117   */\n      jump\n        /* \"contracts/AmmExchange.sol\":1588:1643  require(liquidity > 0, \"Insufficient liquidity minted\") */\n    tag_172:\n        /* \"contracts/AmmExchange.sol\":1654:1682  _mint(msg.sender, liquidity) */\n      tag_175\n        /* \"contracts/AmmExchange.sol\":1660:1670  msg.sender */\n      caller\n        /* \"contracts/AmmExchange.sol\":1672:1681  liquidity */\n      dup3\n        /* \"contracts/AmmExchange.sol\":1654:1659  _mint */\n      tag_176\n        /* \"contracts/AmmExchange.sol\":1654:1682  _mint(msg.sender, liquidity) */\n      jump\t// in\n    tag_175:\n        /* \"contracts/AmmExchange.sol\":1735:1743  _amountA */\n      dup3\n        /* \"contracts/AmmExchange.sol\":1723:1731  reserveA */\n      0x05\n      0x00\n        /* \"contracts/AmmExchange.sol\":1723:1743  reserveA += _amountA */\n      dup3\n      dup3\n      sload\n      tag_177\n      swap2\n      swap1\n      tag_178\n      jump\t// in\n    tag_177:\n      swap3\n      pop\n      pop\n      dup2\n      swap1\n      sstore\n      pop\n        /* \"contracts/AmmExchange.sol\":1766:1774  _amountB */\n      dup2\n        /* \"contracts/AmmExchange.sol\":1754:1762  reserveB */\n      0x06\n      0x00\n        /* \"contracts/AmmExchange.sol\":1754:1774  reserveB += _amountB */\n      dup3\n      dup3\n      sload\n      tag_179\n      swap2\n      swap1\n      tag_178\n      jump\t// in\n    tag_179:\n      swap1\n      swap2\n      sstore\n      pop\n        /* \"contracts/AmmExchange.sol\":861:1782  function addLiquidity(uint256 _amountA, uint256 _amountB) public returns (uint256 liquidity) {... */\n      swap1\n      swap4\n      swap3\n      pop\n      pop\n      pop\n      jump\t// out\n        /* \"@openzeppelin/contracts/token/ERC20/ERC20.sol\":3244:3422  function transfer(address to, uint256 value) public virtual returns (bool) {... */\n    tag_78:\n        /* \"@openzeppelin/contracts/token/ERC20/ERC20.sol\":3313:3317  bool */\n      0x00\n        /* \"@openzeppelin/contracts/utils/Context.sol\":735:745  msg.sender */\n      caller\n        /* \"@openzeppelin/contracts/token/ERC20/ERC20.sol\":3367:3394  _transfer(owner, to, value) */\n      tag_103\n        /* \"@openzeppelin/contracts/utils/Context.sol\":735:745  msg.sender */\n      dup2\n        /* \"@openzeppelin/contracts/token/ERC20/ERC20.sol\":3384:3386  to */\n      dup6\n        /* \"@openzeppelin/contracts/token/ERC20/ERC20.sol\":3388:3393  value */\n      dup6\n        /* \"@openzeppelin/contracts/token/ERC20/ERC20.sol\":3367:3376  _transfer */\n      tag_111\n        /* \"@openzeppelin/contracts/token/ERC20/ERC20.sol\":3367:3394  _transfer(owner, to, value) */\n      jump\t// in\n        /* \"contracts/AmmExchange.sol\":2615:3952  function swap(address _tokenIn, uint256 _amountIn) public returns (uint256 amountOut) {... */\n    tag_82:\n        /* \"contracts/AmmExchange.sol\":2682:2699  uint256 amountOut */\n      0x00\n        /* \"contracts/AmmExchange.sol\":2740:2746  tokenA */\n      immutable(\"0x03065c56175bab9d6c02682cec557b5c933cd8364ccf2dd44ab76e0c260931e7\")\n      sub(shl(0xa0, 0x01), 0x01)\n        /* \"contracts/AmmExchange.sol\":2720:2747  _tokenIn == address(tokenA) */\n      and\n        /* \"contracts/AmmExchange.sol\":2720:2728  _tokenIn */\n      dup4\n      sub(shl(0xa0, 0x01), 0x01)\n        /* \"contracts/AmmExchange.sol\":2720:2747  _tokenIn == address(tokenA) */\n      and\n      eq\n        /* \"contracts/AmmExchange.sol\":2720:2778  _tokenIn == address(tokenA) || _tokenIn == address(tokenB) */\n      dup1\n      tag_184\n      jumpi\n      pop\n        /* \"contracts/AmmExchange.sol\":2771:2777  tokenB */\n      immutable(\"0xf7cd777c1c37c29af53ca944c4f85299ef255c4bda4754e5ba8570de0e121e29\")\n      sub(shl(0xa0, 0x01), 0x01)\n        /* \"contracts/AmmExchange.sol\":2751:2778  _tokenIn == address(tokenB) */\n      and\n        /* \"contracts/AmmExchange.sol\":2751:2759  _tokenIn */\n      dup4\n      sub(shl(0xa0, 0x01), 0x01)\n        /* \"contracts/AmmExchange.sol\":2751:2778  _tokenIn == address(tokenB) */\n      and\n      eq\n        /* \"contracts/AmmExchange.sol\":2720:2778  _tokenIn == address(tokenA) || _tokenIn == address(tokenB) */\n    tag_184:\n        /* \"contracts/AmmExchange.sol\":2712:2802  require(_tokenIn == address(tokenA) || _tokenIn == address(tokenB), \"Invalid input token\") */\n      tag_185\n      jumpi\n      mload(0x40)\n      shl(0xe5, 0x461bcd)\n      dup2\n      mstore\n        /* \"#utility.yul\":7454:7456   */\n      0x20\n        /* \"contracts/AmmExchange.sol\":2712:2802  require(_tokenIn == address(tokenA) || _tokenIn == address(tokenB), \"Invalid input token\") */\n      0x04\n      dup3\n      add\n        /* \"#utility.yul\":7436:7457   */\n      mstore\n        /* \"#utility.yul\":7493:7495   */\n      0x13\n        /* \"#utility.yul\":7473:7491   */\n      0x24\n      dup3\n      add\n        /* \"#utility.yul\":7466:7496   */\n      mstore\n      shl(0x69, 0x24b73b30b634b21034b7383aba103a37b5b2b7)\n        /* \"#utility.yul\":7512:7530   */\n      0x44\n      dup3\n      add\n        /* \"#utility.yul\":7505:7554   */\n      mstore\n        /* \"#utility.yul\":7571:7589   */\n      0x64\n      add\n        /* \"contracts/AmmExchange.sol\":2712:2802  require(_tokenIn == address(tokenA) || _tokenIn == address(tokenB), \"Invalid input token\") */\n      tag_122\n        /* \"#utility.yul\":7252:7595   */\n      jump\n        /* \"contracts/AmmExchange.sol\":2712:2802  require(_tokenIn == address(tokenA) || _tokenIn == address(tokenB), \"Invalid input token\") */\n    tag_185:\n        /* \"contracts/AmmExchange.sol\":2833:2834  0 */\n      0x00\n        /* \"contracts/AmmExchange.sol\":2821:2830  _amountIn */\n      dup3\n        /* \"contracts/AmmExchange.sol\":2821:2834  _amountIn > 0 */\n      gt\n        /* \"contracts/AmmExchange.sol\":2813:2865  require(_amountIn > 0, \"Amount in must be positive\") */\n      tag_188\n      jumpi\n      mload(0x40)\n      shl(0xe5, 0x461bcd)\n      dup2\n      mstore\n        /* \"#utility.yul\":7802:7804   */\n      0x20\n        /* \"contracts/AmmExchange.sol\":2813:2865  require(_amountIn > 0, \"Amount in must be positive\") */\n      0x04\n      dup3\n      add\n        /* \"#utility.yul\":7784:7805   */\n      mstore\n        /* \"#utility.yul\":7841:7843   */\n      0x1a\n        /* \"#utility.yul\":7821:7839   */\n      0x24\n      dup3\n      add\n        /* \"#utility.yul\":7814:7844   */\n      mstore\n        /* \"#utility.yul\":7880:7908   */\n      0x416d6f756e7420696e206d75737420626520706f736974697665000000000000\n        /* \"#utility.yul\":7860:7878   */\n      0x44\n      dup3\n      add\n        /* \"#utility.yul\":7853:7909   */\n      mstore\n        /* \"#utility.yul\":7926:7944   */\n      0x64\n      add\n        /* \"contracts/AmmExchange.sol\":2813:2865  require(_amountIn > 0, \"Amount in must be positive\") */\n      tag_122\n        /* \"#utility.yul\":7600:7950   */\n      jump\n        /* \"contracts/AmmExchange.sol\":2813:2865  require(_amountIn > 0, \"Amount in must be positive\") */\n    tag_188:\n        /* \"contracts/AmmExchange.sol\":2926:2993  IERC20(_tokenIn).transferFrom(msg.sender, address(this), _amountIn) */\n      mload(0x40)\n      shl(0xe0, 0x23b872dd)\n      dup2\n      mstore\n      sub(shl(0xa0, 0x01), 0x01)\n        /* \"contracts/AmmExchange.sol\":2926:2955  IERC20(_tokenIn).transferFrom */\n      dup5\n      and\n      swap1\n      0x23b872dd\n      swap1\n        /* \"contracts/AmmExchange.sol\":2926:2993  IERC20(_tokenIn).transferFrom(msg.sender, address(this), _amountIn) */\n      tag_191\n      swap1\n        /* \"contracts/AmmExchange.sol\":2956:2966  msg.sender */\n      caller\n      swap1\n        /* \"contracts/AmmExchange.sol\":2976:2980  this */\n      address\n      swap1\n        /* \"contracts/AmmExchange.sol\":2983:2992  _amountIn */\n      dup8\n      swap1\n        /* \"contracts/AmmExchange.sol\":2926:2993  IERC20(_tokenIn).transferFrom(msg.sender, address(this), _amountIn) */\n      0x04\n      add\n      tag_152\n      jump\t// in\n    tag_191:\n      0x20\n      mload(0x40)\n      dup1\n      dup4\n      sub\n      dup2\n      0x00\n      dup8\n      gas\n      call\n      iszero\n      dup1\n      iszero\n      tag_193\n      jumpi\n      returndatacopy(0x00, 0x00, returndatasize)\n      revert(0x00, returndatasize)\n    tag_193:\n      pop\n      pop\n      pop\n      pop\n      mload(0x40)\n      returndatasize\n      not(0x1f)\n      0x1f\n      dup3\n      add\n      and\n      dup3\n      add\n      dup1\n      0x40\n      mstore\n      pop\n      dup2\n      add\n      swap1\n      tag_194\n      swap2\n      swap1\n      tag_142\n      jump\t// in\n    tag_194:\n      pop\n        /* \"contracts/AmmExchange.sol\":3093:3116  uint256 amountInWithFee */\n      0x00\n        /* \"contracts/AmmExchange.sol\":3119:3134  _amountIn * 997 */\n      tag_195\n        /* \"contracts/AmmExchange.sol\":3119:3128  _amountIn */\n      dup4\n        /* \"contracts/AmmExchange.sol\":3131:3134  997 */\n      0x03e5\n        /* \"contracts/AmmExchange.sol\":3119:3134  _amountIn * 997 */\n      tag_126\n      jump\t// in\n    tag_195:\n        /* \"contracts/AmmExchange.sol\":3093:3134  uint256 amountInWithFee = _amountIn * 997 */\n      swap1\n      pop\n        /* \"contracts/AmmExchange.sol\":3194:3200  tokenA */\n      immutable(\"0x03065c56175bab9d6c02682cec557b5c933cd8364ccf2dd44ab76e0c260931e7\")\n      sub(shl(0xa0, 0x01), 0x01)\n        /* \"contracts/AmmExchange.sol\":3174:3201  _tokenIn == address(tokenA) */\n      and\n        /* \"contracts/AmmExchange.sol\":3174:3182  _tokenIn */\n      dup5\n      sub(shl(0xa0, 0x01), 0x01)\n        /* \"contracts/AmmExchange.sol\":3174:3201  _tokenIn == address(tokenA) */\n      and\n      sub\n        /* \"contracts/AmmExchange.sol\":3170:3945  if (_tokenIn == address(tokenA)) { // User is swapping Token A for Token B... */\n      tag_196\n      jumpi\n        /* \"contracts/AmmExchange.sol\":3258:3275  uint256 numerator */\n      0x00\n        /* \"contracts/AmmExchange.sol\":3296:3304  reserveB */\n      sload(0x06)\n        /* \"contracts/AmmExchange.sol\":3278:3293  amountInWithFee */\n      dup3\n        /* \"contracts/AmmExchange.sol\":3278:3304  amountInWithFee * reserveB */\n      tag_197\n      swap2\n      swap1\n      tag_126\n      jump\t// in\n    tag_197:\n        /* \"contracts/AmmExchange.sol\":3258:3304  uint256 numerator = amountInWithFee * reserveB */\n      swap1\n      pop\n        /* \"contracts/AmmExchange.sol\":3319:3338  uint256 denominator */\n      0x00\n        /* \"contracts/AmmExchange.sol\":3361:3376  amountInWithFee */\n      dup3\n        /* \"contracts/AmmExchange.sol\":3342:3350  reserveA */\n      sload(0x05)\n        /* \"contracts/AmmExchange.sol\":3353:3357  1000 */\n      0x03e8\n        /* \"contracts/AmmExchange.sol\":3342:3357  reserveA * 1000 */\n      tag_198\n      swap2\n      swap1\n      tag_126\n      jump\t// in\n    tag_198:\n        /* \"contracts/AmmExchange.sol\":3341:3376  (reserveA * 1000) + amountInWithFee */\n      tag_199\n      swap2\n      swap1\n      tag_178\n      jump\t// in\n    tag_199:\n        /* \"contracts/AmmExchange.sol\":3319:3376  uint256 denominator = (reserveA * 1000) + amountInWithFee */\n      swap1\n      pop\n        /* \"contracts/AmmExchange.sol\":3403:3426  numerator / denominator */\n      tag_200\n        /* \"contracts/AmmExchange.sol\":3319:3376  uint256 denominator = (reserveA * 1000) + amountInWithFee */\n      dup2\n        /* \"contracts/AmmExchange.sol\":3403:3412  numerator */\n      dup4\n        /* \"contracts/AmmExchange.sol\":3403:3426  numerator / denominator */\n      tag_128\n      jump\t// in\n    tag_200:\n        /* \"contracts/AmmExchange.sol\":3391:3426  amountOut = numerator / denominator */\n      swap4\n      pop\n        /* \"contracts/AmmExchange.sol\":3467:3476  _amountIn */\n      dup5\n        /* \"contracts/AmmExchange.sol\":3455:3463  reserveA */\n      0x05\n      0x00\n        /* \"contracts/AmmExchange.sol\":3455:3476  reserveA += _amountIn */\n      dup3\n      dup3\n      sload\n      tag_201\n      swap2\n      swap1\n      tag_178\n      jump\t// in\n    tag_201:\n      swap3\n      pop\n      pop\n      dup2\n      swap1\n      sstore\n      pop\n        /* \"contracts/AmmExchange.sol\":3503:3512  amountOut */\n      dup4\n        /* \"contracts/AmmExchange.sol\":3491:3499  reserveB */\n      0x06\n      0x00\n        /* \"contracts/AmmExchange.sol\":3491:3512  reserveB -= amountOut */\n      dup3\n      dup3\n      sload\n      tag_202\n      swap2\n      swap1\n      tag_148\n      jump\t// in\n    tag_202:\n      swap1\n      swap2\n      sstore\n      pop\n      pop\n        /* \"contracts/AmmExchange.sol\":3527:3565  tokenB.transfer(msg.sender, amountOut) */\n      mload(0x40)\n      shl(0xe0, 0xa9059cbb)\n      dup2\n      mstore\n      sub(shl(0xa0, 0x01), 0x01)\n        /* \"contracts/AmmExchange.sol\":3527:3533  tokenB */\n      immutable(\"0xf7cd777c1c37c29af53ca944c4f85299ef255c4bda4754e5ba8570de0e121e29\")\n        /* \"contracts/AmmExchange.sol\":3527:3542  tokenB.transfer */\n      and\n      swap1\n      0xa9059cbb\n      swap1\n        /* \"contracts/AmmExchange.sol\":3527:3565  tokenB.transfer(msg.sender, amountOut) */\n      tag_203\n      swap1\n        /* \"contracts/AmmExchange.sol\":3543:3553  msg.sender */\n      caller\n      swap1\n        /* \"contracts/AmmExchange.sol\":3555:3564  amountOut */\n      dup9\n      swap1\n        /* \"contracts/AmmExchange.sol\":3527:3565  tokenB.transfer(msg.sender, amountOut) */\n      0x04\n      add\n      tag_138\n      jump\t// in\n    tag_203:\n      0x20\n      mload(0x40)\n      dup1\n      dup4\n      sub\n      dup2\n      0x00\n      dup8\n      gas\n      call\n      iszero\n      dup1\n      iszero\n      tag_205\n      jumpi\n      returndatacopy(0x00, 0x00, returndatasize)\n      revert(0x00, returndatasize)\n    tag_205:\n      pop\n      pop\n      pop\n      pop\n      mload(0x40)\n      returndatasize\n      not(0x1f)\n      0x1f\n      dup3\n      add\n      and\n      dup3\n      add\n      dup1\n      0x40\n      mstore\n      pop\n      dup2\n      add\n      swap1\n      tag_206\n      swap2\n      swap1\n      tag_142\n      jump\t// in\n    tag_206:\n      pop\n        /* \"contracts/AmmExchange.sol\":3203:3577  { // User is swapping Token A for Token B... */\n      pop\n      pop\n        /* \"contracts/AmmExchange.sol\":3170:3945  if (_tokenIn == address(tokenA)) { // User is swapping Token A for Token B... */\n      jump(tag_207)\n    tag_196:\n        /* \"contracts/AmmExchange.sol\":3638:3655  uint256 numerator */\n      0x00\n        /* \"contracts/AmmExchange.sol\":3676:3684  reserveA */\n      sload(0x05)\n        /* \"contracts/AmmExchange.sol\":3658:3673  amountInWithFee */\n      dup3\n        /* \"contracts/AmmExchange.sol\":3658:3684  amountInWithFee * reserveA */\n      tag_208\n      swap2\n      swap1\n      tag_126\n      jump\t// in\n    tag_208:\n        /* \"contracts/AmmExchange.sol\":3638:3684  uint256 numerator = amountInWithFee * reserveA */\n      swap1\n      pop\n        /* \"contracts/AmmExchange.sol\":3699:3718  uint256 denominator */\n      0x00\n        /* \"contracts/AmmExchange.sol\":3741:3756  amountInWithFee */\n      dup3\n        /* \"contracts/AmmExchange.sol\":3722:3730  reserveB */\n      sload(0x06)\n        /* \"contracts/AmmExchange.sol\":3733:3737  1000 */\n      0x03e8\n        /* \"contracts/AmmExchange.sol\":3722:3737  reserveB * 1000 */\n      tag_209\n      swap2\n      swap1\n      tag_126\n      jump\t// in\n    tag_209:\n        /* \"contracts/AmmExchange.sol\":3721:3756  (reserveB * 1000) + amountInWithFee */\n      tag_210\n      swap2\n      swap1\n      tag_178\n      jump\t// in\n    tag_210:\n        /* \"contracts/AmmExchange.sol\":3699:3756  uint256 denominator = (reserveB * 1000) + amountInWithFee */\n      swap1\n      pop\n        /* \"contracts/AmmExchange.sol\":3783:3806  numerator / denominator */\n      tag_211\n        /* \"contracts/AmmExchange.sol\":3699:3756  uint256 denominator = (reserveB * 1000) + amountInWithFee */\n      dup2\n        /* \"contracts/AmmExchange.sol\":3783:3792  numerator */\n      dup4\n        /* \"contracts/AmmExchange.sol\":3783:3806  numerator / denominator */\n      tag_128\n      jump\t// in\n    tag_211:\n        /* \"contracts/AmmExchange.sol\":3771:3806  amountOut = numerator / denominator */\n      swap4\n      pop\n        /* \"contracts/AmmExchange.sol\":3835:3844  _amountIn */\n      dup5\n        /* \"contracts/AmmExchange.sol\":3823:3831  reserveB */\n      0x06\n      0x00\n        /* \"contracts/AmmExchange.sol\":3823:3844  reserveB += _amountIn */\n      dup3\n      dup3\n      sload\n      tag_212\n      swap2\n      swap1\n      tag_178\n      jump\t// in\n    tag_212:\n      swap3\n      pop\n      pop\n      dup2\n      swap1\n      sstore\n      pop\n        /* \"contracts/AmmExchange.sol\":3871:3880  amountOut */\n      dup4\n        /* \"contracts/AmmExchange.sol\":3859:3867  reserveA */\n      0x05\n      0x00\n        /* \"contracts/AmmExchange.sol\":3859:3880  reserveA -= amountOut */\n      dup3\n      dup3\n      sload\n      tag_213\n      swap2\n      swap1\n      tag_148\n      jump\t// in\n    tag_213:\n      swap1\n      swap2\n      sstore\n      pop\n      pop\n        /* \"contracts/AmmExchange.sol\":3895:3933  tokenA.transfer(msg.sender, amountOut) */\n      mload(0x40)\n      shl(0xe0, 0xa9059cbb)\n      dup2\n      mstore\n      sub(shl(0xa0, 0x01), 0x01)\n        /* \"contracts/AmmExchange.sol\":3895:3901  tokenA */\n      immutable(\"0x03065c56175bab9d6c02682cec557b5c933cd8364ccf2dd44ab76e0c260931e7\")\n        /* \"contracts/AmmExchange.sol\":3895:3910  tokenA.transfer */\n      and\n      swap1\n      0xa9059cbb\n      swap1\n        /* \"contracts/AmmExchange.sol\":3895:3933  tokenA.transfer(msg.sender, amountOut) */\n      tag_214\n      swap1\n        /* \"contracts/AmmExchange.sol\":3911:3921  msg.sender */\n      caller\n      swap1\n        /* \"contracts/AmmExchange.sol\":3923:3932  amountOut */\n      dup9\n      swap1\n        /* \"contracts/AmmExchange.sol\":3895:3933  tokenA.transfer(msg.sender, amountOut) */\n      0x04\n      add\n      tag_138\n      jump\t// in\n    tag_214:\n      0x20\n      mload(0x40)\n      dup1\n      dup4\n      sub\n      dup2\n      0x00\n      dup8\n      gas\n      call\n      iszero\n      dup1\n      iszero\n      tag_216\n      jumpi\n      returndatacopy(0x00, 0x00, returndatasize)\n      revert(0x00, returndatasize)\n    tag_216:\n      pop\n      pop\n      pop\n      pop\n      mload(0x40)\n      returndatasize\n      not(0x1f)\n      0x1f\n      dup3\n      add\n      and\n      dup3\n      add\n      dup1\n      0x40\n      mstore\n      pop\n      dup2\n      add\n      swap1\n      tag_217\n      swap2\n      swap1\n      tag_142\n      jump\t// in\n    tag_217:\n      pop\n        /* \"contracts/AmmExchange.sol\":3583:3945  { // User is swapping Token B for Token A... */\n      pop\n      pop\n        /* \"contracts/AmmExchange.sol\":3170:3945  if (_tokenIn == address(tokenA)) { // User is swapping Token A for Token B... */\n    tag_207:\n        /* \"contracts/AmmExchange.sol\":2701:3952  {... */\n      pop\n        /* \"contracts/AmmExchange.sol\":2615:3952  function swap(address _tokenIn, uint256 _amountIn) public returns (uint256 amountOut) {... */\n      swap3\n      swap2\n      pop\n      pop\n      jump\t// out\n        /* \"@openzeppelin/contracts/token/ERC20/ERC20.sol\":3455:3595  function allowance(address owner, address spender) public view virtual returns (uint256) {... */\n    tag_90:\n      sub(shl(0xa0, 0x01), 0x01)\n        /* \"@openzeppelin/contracts/token/ERC20/ERC20.sol\":3561:3579  _allowances[owner] */\n      swap2\n      dup3\n      and\n        /* \"@openzeppelin/contracts/token/ERC20/ERC20.sol\":3535:3542  uint256 */\n      0x00\n        /* \"@openzeppelin/contracts/token/ERC20/ERC20.sol\":3561:3579  _allowances[owner] */\n      swap1\n      dup2\n      mstore\n        /* \"@openzeppelin/contracts/token/ERC20/ERC20.sol\":3561:3572  _allowances */\n      0x01\n        /* \"@openzeppelin/contracts/token/ERC20/ERC20.sol\":3561:3579  _allowances[owner] */\n      0x20\n      swap1\n      dup2\n      mstore\n      0x40\n      dup1\n      dup4\n      keccak256\n        /* \"@openzeppelin/contracts/token/ERC20/ERC20.sol\":3561:3588  _allowances[owner][spender] */\n      swap4\n      swap1\n      swap5\n      and\n      dup3\n      mstore\n      swap2\n      swap1\n      swap2\n      mstore\n      keccak256\n      sload\n      swap1\n        /* \"@openzeppelin/contracts/token/ERC20/ERC20.sol\":3455:3595  function allowance(address owner, address spender) public view virtual returns (uint256) {... */\n      jump\t// out\n        /* \"@openzeppelin/contracts/token/ERC20/ERC20.sol\":8630:8758  function _approve(address owner, address spender, uint256 value) internal {... */\n    tag_104:\n        /* \"@openzeppelin/contracts/token/ERC20/ERC20.sol\":8714:8751  _approve(owner, spender, value, true) */\n      tag_221\n        /* \"@openzeppelin/contracts/token/ERC20/ERC20.sol\":8723:8728  owner */\n      dup4\n        /* \"@openzeppelin/contracts/token/ERC20/ERC20.sol\":8730:8737  spender */\n      dup4\n        /* \"@openzeppelin/contracts/token/ERC20/ERC20.sol\":8739:8744  value */\n      dup4\n        /* \"@openzeppelin/contracts/token/ERC20/ERC20.sol\":8746:8750  true */\n      0x01\n        /* \"@openzeppelin/contracts/token/ERC20/ERC20.sol\":8714:8722  _approve */\n      tag_222\n        /* \"@openzeppelin/contracts/token/ERC20/ERC20.sol\":8714:8751  _approve(owner, spender, value, true) */\n      jump\t// in\n    tag_221:\n        /* \"@openzeppelin/contracts/token/ERC20/ERC20.sol\":8630:8758  function _approve(address owner, address spender, uint256 value) internal {... */\n      pop\n      pop\n      pop\n      jump\t// out\n        /* \"@openzeppelin/contracts/token/ERC20/ERC20.sol\":10319:10795  function _spendAllowance(address owner, address spender, uint256 value) internal virtual {... */\n    tag_109:\n        /* \"@openzeppelin/contracts/token/ERC20/ERC20.sol\":10418:10442  uint256 currentAllowance */\n      0x00\n        /* \"@openzeppelin/contracts/token/ERC20/ERC20.sol\":10445:10470  allowance(owner, spender) */\n      tag_224\n        /* \"@openzeppelin/contracts/token/ERC20/ERC20.sol\":10455:10460  owner */\n      dup5\n        /* \"@openzeppelin/contracts/token/ERC20/ERC20.sol\":10462:10469  spender */\n      dup5\n        /* \"@openzeppelin/contracts/token/ERC20/ERC20.sol\":10445:10454  allowance */\n      tag_90\n        /* \"@openzeppelin/contracts/token/ERC20/ERC20.sol\":10445:10470  allowance(owner, spender) */\n      jump\t// in\n    tag_224:\n        /* \"@openzeppelin/contracts/token/ERC20/ERC20.sol\":10418:10470  uint256 currentAllowance = allowance(owner, spender) */\n      swap1\n      pop\n      not(0x00)\n        /* \"@openzeppelin/contracts/token/ERC20/ERC20.sol\":10484:10500  currentAllowance */\n      dup2\n        /* \"@openzeppelin/contracts/token/ERC20/ERC20.sol\":10484:10520  currentAllowance < type(uint256).max */\n      lt\n        /* \"@openzeppelin/contracts/token/ERC20/ERC20.sol\":10480:10789  if (currentAllowance < type(uint256).max) {... */\n      iszero\n      tag_229\n      jumpi\n        /* \"@openzeppelin/contracts/token/ERC20/ERC20.sol\":10559:10564  value */\n      dup2\n        /* \"@openzeppelin/contracts/token/ERC20/ERC20.sol\":10540:10556  currentAllowance */\n      dup2\n        /* \"@openzeppelin/contracts/token/ERC20/ERC20.sol\":10540:10564  currentAllowance < value */\n      lt\n        /* \"@openzeppelin/contracts/token/ERC20/ERC20.sol\":10536:10666  if (currentAllowance < value) {... */\n      iszero\n      tag_226\n      jumpi\n        /* \"@openzeppelin/contracts/token/ERC20/ERC20.sol\":10618:10625  spender */\n      dup3\n        /* \"@openzeppelin/contracts/token/ERC20/ERC20.sol\":10627:10643  currentAllowance */\n      dup2\n        /* \"@openzeppelin/contracts/token/ERC20/ERC20.sol\":10645:10650  value */\n      dup4\n        /* \"@openzeppelin/contracts/token/ERC20/ERC20.sol\":10591:10651  ERC20InsufficientAllowance(spender, currentAllowance, value) */\n      mload(0x40)\n      shl(0xe1, 0x7dc7a0d9)\n      dup2\n      mstore\n      0x04\n      add\n      tag_122\n      swap4\n      swap3\n      swap2\n      swap1\n      tag_228\n      jump\t// in\n        /* \"@openzeppelin/contracts/token/ERC20/ERC20.sol\":10536:10666  if (currentAllowance < value) {... */\n    tag_226:\n        /* \"@openzeppelin/contracts/token/ERC20/ERC20.sol\":10707:10764  _approve(owner, spender, currentAllowance - value, false) */\n      tag_229\n        /* \"@openzeppelin/contracts/token/ERC20/ERC20.sol\":10716:10721  owner */\n      dup5\n        /* \"@openzeppelin/contracts/token/ERC20/ERC20.sol\":10723:10730  spender */\n      dup5\n        /* \"@openzeppelin/contracts/token/ERC20/ERC20.sol\":10751:10756  value */\n      dup5\n        /* \"@openzeppelin/contracts/token/ERC20/ERC20.sol\":10732:10748  currentAllowance */\n      dup5\n        /* \"@openzeppelin/contracts/token/ERC20/ERC20.sol\":10732:10756  currentAllowance - value */\n      sub\n        /* \"@openzeppelin/contracts/token/ERC20/ERC20.sol\":10758:10763  false */\n      0x00\n        /* \"@openzeppelin/contracts/token/ERC20/ERC20.sol\":10707:10715  _approve */\n      tag_222\n        /* \"@openzeppelin/contracts/token/ERC20/ERC20.sol\":10707:10764  _approve(owner, spender, currentAllowance - value, false) */\n      jump\t// in\n    tag_229:\n        /* \"@openzeppelin/contracts/token/ERC20/ERC20.sol\":10408:10795  {... */\n      pop\n        /* \"@openzeppelin/contracts/token/ERC20/ERC20.sol\":10319:10795  function _spendAllowance(address owner, address spender, uint256 value) internal virtual {... */\n      pop\n      pop\n      pop\n      jump\t// out\n        /* \"@openzeppelin/contracts/token/ERC20/ERC20.sol\":5297:5597  function _transfer(address from, address to, uint256 value) internal {... */\n    tag_111:\n      sub(shl(0xa0, 0x01), 0x01)\n        /* \"@openzeppelin/contracts/token/ERC20/ERC20.sol\":5380:5398  from == address(0) */\n      dup4\n      and\n        /* \"@openzeppelin/contracts/token/ERC20/ERC20.sol\":5376:5462  if (from == address(0)) {... */\n      tag_231\n      jumpi\n        /* \"@openzeppelin/contracts/token/ERC20/ERC20.sol\":5448:5449  0 */\n      0x00\n        /* \"@openzeppelin/contracts/token/ERC20/ERC20.sol\":5421:5451  ERC20InvalidSender(address(0)) */\n      mload(0x40)\n      shl(0xe1, 0x4b637e8f)\n      dup2\n      mstore\n      0x04\n      add\n      tag_122\n      swap2\n      swap1\n      tag_38\n      jump\t// in\n        /* \"@openzeppelin/contracts/token/ERC20/ERC20.sol\":5376:5462  if (from == address(0)) {... */\n    tag_231:\n      sub(shl(0xa0, 0x01), 0x01)\n        /* \"@openzeppelin/contracts/token/ERC20/ERC20.sol\":5475:5491  to == address(0) */\n      dup3\n      and\n        /* \"@openzeppelin/contracts/token/ERC20/ERC20.sol\":5471:5557  if (to == address(0)) {... */\n      tag_234\n      jumpi\n        /* \"@openzeppelin/contracts/token/ERC20/ERC20.sol\":5543:5544  0 */\n      0x00\n        /* \"@openzeppelin/contracts/token/ERC20/ERC20.sol\":5514:5546  ERC20InvalidReceiver(address(0)) */\n      mload(0x40)\n      shl(0xe0, 0xec442f05)\n      dup2\n      mstore\n      0x04\n      add\n      tag_122\n      swap2\n      swap1\n      tag_38\n      jump\t// in\n        /* \"@openzeppelin/contracts/token/ERC20/ERC20.sol\":5471:5557  if (to == address(0)) {... */\n    tag_234:\n        /* \"@openzeppelin/contracts/token/ERC20/ERC20.sol\":5566:5590  _update(from, to, value) */\n      tag_221\n        /* \"@openzeppelin/contracts/token/ERC20/ERC20.sol\":5574:5578  from */\n      dup4\n        /* \"@openzeppelin/contracts/token/ERC20/ERC20.sol\":5580:5582  to */\n      dup4\n        /* \"@openzeppelin/contracts/token/ERC20/ERC20.sol\":5584:5589  value */\n      dup4\n        /* \"@openzeppelin/contracts/token/ERC20/ERC20.sol\":5566:5573  _update */\n      tag_237\n        /* \"@openzeppelin/contracts/token/ERC20/ERC20.sol\":5566:5590  _update(from, to, value) */\n      jump\t// in\n        /* \"@openzeppelin/contracts/token/ERC20/ERC20.sol\":7888:8094  function _burn(address account, uint256 value) internal {... */\n    tag_136:\n      sub(shl(0xa0, 0x01), 0x01)\n        /* \"@openzeppelin/contracts/token/ERC20/ERC20.sol\":7958:7979  account == address(0) */\n      dup3\n      and\n        /* \"@openzeppelin/contracts/token/ERC20/ERC20.sol\":7954:8043  if (account == address(0)) {... */\n      tag_239\n      jumpi\n        /* \"@openzeppelin/contracts/token/ERC20/ERC20.sol\":8029:8030  0 */\n      0x00\n        /* \"@openzeppelin/contracts/token/ERC20/ERC20.sol\":8002:8032  ERC20InvalidSender(address(0)) */\n      mload(0x40)\n      shl(0xe1, 0x4b637e8f)\n      dup2\n      mstore\n      0x04\n      add\n      tag_122\n      swap2\n      swap1\n      tag_38\n      jump\t// in\n        /* \"@openzeppelin/contracts/token/ERC20/ERC20.sol\":7954:8043  if (account == address(0)) {... */\n    tag_239:\n        /* \"@openzeppelin/contracts/token/ERC20/ERC20.sol\":8052:8087  _update(account, address(0), value) */\n      tag_241\n        /* \"@openzeppelin/contracts/token/ERC20/ERC20.sol\":8060:8067  account */\n      dup3\n        /* \"@openzeppelin/contracts/token/ERC20/ERC20.sol\":8077:8078  0 */\n      0x00\n        /* \"@openzeppelin/contracts/token/ERC20/ERC20.sol\":8081:8086  value */\n      dup4\n        /* \"@openzeppelin/contracts/token/ERC20/ERC20.sol\":8052:8059  _update */\n      tag_237\n        /* \"@openzeppelin/contracts/token/ERC20/ERC20.sol\":8052:8087  _update(account, address(0), value) */\n      jump\t// in\n    tag_241:\n        /* \"@openzeppelin/contracts/token/ERC20/ERC20.sol\":7888:8094  function _burn(address account, uint256 value) internal {... */\n      pop\n      pop\n      jump\t// out\n        /* \"@openzeppelin/contracts/token/ERC20/ERC20.sol\":7362:7570  function _mint(address account, uint256 value) internal {... */\n    tag_176:\n      sub(shl(0xa0, 0x01), 0x01)\n        /* \"@openzeppelin/contracts/token/ERC20/ERC20.sol\":7432:7453  account == address(0) */\n      dup3\n      and\n        /* \"@openzeppelin/contracts/token/ERC20/ERC20.sol\":7428:7519  if (account == address(0)) {... */\n      tag_243\n      jumpi\n        /* \"@openzeppelin/contracts/token/ERC20/ERC20.sol\":7505:7506  0 */\n      0x00\n        /* \"@openzeppelin/contracts/token/ERC20/ERC20.sol\":7476:7508  ERC20InvalidReceiver(address(0)) */\n      mload(0x40)\n      shl(0xe0, 0xec442f05)\n      dup2\n      mstore\n      0x04\n      add\n      tag_122\n      swap2\n      swap1\n      tag_38\n      jump\t// in\n        /* \"@openzeppelin/contracts/token/ERC20/ERC20.sol\":7428:7519  if (account == address(0)) {... */\n    tag_243:\n        /* \"@openzeppelin/contracts/token/ERC20/ERC20.sol\":7528:7563  _update(address(0), account, value) */\n      tag_241\n        /* \"@openzeppelin/contracts/token/ERC20/ERC20.sol\":7544:7545  0 */\n      0x00\n        /* \"@openzeppelin/contracts/token/ERC20/ERC20.sol\":7548:7555  account */\n      dup4\n        /* \"@openzeppelin/contracts/token/ERC20/ERC20.sol\":7557:7562  value */\n      dup4\n        /* \"@openzeppelin/contracts/token/ERC20/ERC20.sol\":7528:7535  _update */\n      tag_237\n        /* \"@openzeppelin/contracts/token/ERC20/ERC20.sol\":7528:7563  _update(address(0), account, value) */\n      jump\t// in\n        /* \"@openzeppelin/contracts/token/ERC20/ERC20.sol\":9605:10037  function _approve(address owner, address spender, uint256 value, bool emitEvent) internal virtual {... */\n    tag_222:\n      sub(shl(0xa0, 0x01), 0x01)\n        /* \"@openzeppelin/contracts/token/ERC20/ERC20.sol\":9717:9736  owner == address(0) */\n      dup5\n      and\n        /* \"@openzeppelin/contracts/token/ERC20/ERC20.sol\":9713:9802  if (owner == address(0)) {... */\n      tag_247\n      jumpi\n        /* \"@openzeppelin/contracts/token/ERC20/ERC20.sol\":9788:9789  0 */\n      0x00\n        /* \"@openzeppelin/contracts/token/ERC20/ERC20.sol\":9759:9791  ERC20InvalidApprover(address(0)) */\n      mload(0x40)\n      shl(0xe0, 0xe602df05)\n      dup2\n      mstore\n      0x04\n      add\n      tag_122\n      swap2\n      swap1\n      tag_38\n      jump\t// in\n        /* \"@openzeppelin/contracts/token/ERC20/ERC20.sol\":9713:9802  if (owner == address(0)) {... */\n    tag_247:\n      sub(shl(0xa0, 0x01), 0x01)\n        /* \"@openzeppelin/contracts/token/ERC20/ERC20.sol\":9815:9836  spender == address(0) */\n      dup4\n      and\n        /* \"@openzeppelin/contracts/token/ERC20/ERC20.sol\":9811:9901  if (spender == address(0)) {... */\n      tag_249\n      jumpi\n        /* \"@openzeppelin/contracts/token/ERC20/ERC20.sol\":9887:9888  0 */\n      0x00\n        /* \"@openzeppelin/contracts/token/ERC20/ERC20.sol\":9859:9890  ERC20InvalidSpender(address(0)) */\n      mload(0x40)\n      shl(0xe1, 0x4a1406b1)\n      dup2\n      mstore\n      0x04\n      add\n      tag_122\n      swap2\n      swap1\n      tag_38\n      jump\t// in\n        /* \"@openzeppelin/contracts/token/ERC20/ERC20.sol\":9811:9901  if (spender == address(0)) {... */\n    tag_249:\n      sub(shl(0xa0, 0x01), 0x01)\n        /* \"@openzeppelin/contracts/token/ERC20/ERC20.sol\":9910:9928  _allowances[owner] */\n      dup1\n      dup6\n      and\n      0x00\n      swap1\n      dup2\n      mstore\n        /* \"@openzeppelin/contracts/token/ERC20/ERC20.sol\":9910:9921  _allowances */\n      0x01\n        /* \"@openzeppelin/contracts/token/ERC20/ERC20.sol\":9910:9928  _allowances[owner] */\n      0x20\n      swap1\n      dup2\n      mstore\n      0x40\n      dup1\n      dup4\n      keccak256\n        /* \"@openzeppelin/contracts/token/ERC20/ERC20.sol\":9910:9937  _allowances[owner][spender] */\n      swap4\n      dup8\n      and\n      dup4\n      mstore\n      swap3\n      swap1\n      mstore\n      keccak256\n        /* \"@openzeppelin/contracts/token/ERC20/ERC20.sol\":9910:9945  _allowances[owner][spender] = value */\n      dup3\n      swap1\n      sstore\n        /* \"@openzeppelin/contracts/token/ERC20/ERC20.sol\":9955:10031  if (emitEvent) {... */\n      dup1\n      iszero\n      tag_229\n      jumpi\n        /* \"@openzeppelin/contracts/token/ERC20/ERC20.sol\":10005:10012  spender */\n      dup3\n      sub(shl(0xa0, 0x01), 0x01)\n        /* \"@openzeppelin/contracts/token/ERC20/ERC20.sol\":9989:10020  Approval(owner, spender, value) */\n      and\n        /* \"@openzeppelin/contracts/token/ERC20/ERC20.sol\":9998:10003  owner */\n      dup5\n      sub(shl(0xa0, 0x01), 0x01)\n        /* \"@openzeppelin/contracts/token/ERC20/ERC20.sol\":9989:10020  Approval(owner, spender, value) */\n      and\n      0x8c5be1e5ebec7d5bd14f71427d1e84f3dd0314c0f7b2291e5b200ac8c7c3b925\n        /* \"@openzeppelin/contracts/token/ERC20/ERC20.sol\":10014:10019  value */\n      dup5\n        /* \"@openzeppelin/contracts/token/ERC20/ERC20.sol\":9989:10020  Approval(owner, spender, value) */\n      mload(0x40)\n      tag_252\n      swap2\n        /* \"#utility.yul\":1733:1758   */\n      dup2\n      mstore\n        /* \"#utility.yul\":1721:1723   */\n      0x20\n        /* \"#utility.yul\":1706:1724   */\n      add\n      swap1\n        /* \"#utility.yul\":1587:1764   */\n      jump\n        /* \"@openzeppelin/contracts/token/ERC20/ERC20.sol\":9989:10020  Approval(owner, spender, value) */\n    tag_252:\n      mload(0x40)\n      dup1\n      swap2\n      sub\n      swap1\n      log3\n        /* \"@openzeppelin/contracts/token/ERC20/ERC20.sol\":9605:10037  function _approve(address owner, address spender, uint256 value, bool emitEvent) internal virtual {... */\n      pop\n      pop\n      pop\n      pop\n      jump\t// out\n        /* \"@openzeppelin/contracts/token/ERC20/ERC20.sol\":5912:7019  function _update(address from, address to, uint256 value) internal virtual {... */\n    tag_237:\n      sub(shl(0xa0, 0x01), 0x01)\n        /* \"@openzeppelin/contracts/token/ERC20/ERC20.sol\":6001:6019  from == address(0) */\n      dup4\n      and\n        /* \"@openzeppelin/contracts/token/ERC20/ERC20.sol\":5997:6537  if (from == address(0)) {... */\n      tag_254\n      jumpi\n        /* \"@openzeppelin/contracts/token/ERC20/ERC20.sol\":6153:6158  value */\n      dup1\n        /* \"@openzeppelin/contracts/token/ERC20/ERC20.sol\":6137:6149  _totalSupply */\n      0x02\n      0x00\n        /* \"@openzeppelin/contracts/token/ERC20/ERC20.sol\":6137:6158  _totalSupply += value */\n      dup3\n      dup3\n      sload\n      tag_255\n      swap2\n      swap1\n      tag_178\n      jump\t// in\n    tag_255:\n      swap1\n      swap2\n      sstore\n      pop\n        /* \"@openzeppelin/contracts/token/ERC20/ERC20.sol\":5997:6537  if (from == address(0)) {... */\n      tag_256\n      swap1\n      pop\n      jump\n    tag_254:\n      sub(shl(0xa0, 0x01), 0x01)\n        /* \"@openzeppelin/contracts/token/ERC20/ERC20.sol\":6211:6226  _balances[from] */\n      dup4\n      and\n        /* \"@openzeppelin/contracts/token/ERC20/ERC20.sol\":6189:6208  uint256 fromBalance */\n      0x00\n        /* \"@openzeppelin/contracts/token/ERC20/ERC20.sol\":6211:6226  _balances[from] */\n      swap1\n      dup2\n      mstore\n      0x20\n      dup2\n      swap1\n      mstore\n      0x40\n      swap1\n      keccak256\n      sload\n        /* \"@openzeppelin/contracts/token/ERC20/ERC20.sol\":6244:6263  fromBalance < value */\n      dup2\n      dup2\n      lt\n        /* \"@openzeppelin/contracts/token/ERC20/ERC20.sol\":6240:6355  if (fromBalance < value) {... */\n      iszero\n      tag_257\n      jumpi\n        /* \"@openzeppelin/contracts/token/ERC20/ERC20.sol\":6315:6319  from */\n      dup4\n        /* \"@openzeppelin/contracts/token/ERC20/ERC20.sol\":6321:6332  fromBalance */\n      dup2\n        /* \"@openzeppelin/contracts/token/ERC20/ERC20.sol\":6334:6339  value */\n      dup4\n        /* \"@openzeppelin/contracts/token/ERC20/ERC20.sol\":6290:6340  ERC20InsufficientBalance(from, fromBalance, value) */\n      mload(0x40)\n      shl(0xe2, 0x391434e3)\n      dup2\n      mstore\n      0x04\n      add\n      tag_122\n      swap4\n      swap3\n      swap2\n      swap1\n      tag_228\n      jump\t// in\n        /* \"@openzeppelin/contracts/token/ERC20/ERC20.sol\":6240:6355  if (fromBalance < value) {... */\n    tag_257:\n      sub(shl(0xa0, 0x01), 0x01)\n        /* \"@openzeppelin/contracts/token/ERC20/ERC20.sol\":6475:6490  _balances[from] */\n      dup5\n      and\n        /* \"@openzeppelin/contracts/token/ERC20/ERC20.sol\":6475:6484  _balances */\n      0x00\n        /* \"@openzeppelin/contracts/token/ERC20/ERC20.sol\":6475:6490  _balances[from] */\n      swap1\n      dup2\n      mstore\n      0x20\n      dup2\n      swap1\n      mstore\n      0x40\n      swap1\n      keccak256\n        /* \"@openzeppelin/contracts/token/ERC20/ERC20.sol\":6493:6512  fromBalance - value */\n      swap1\n      dup3\n      swap1\n      sub\n        /* \"@openzeppelin/contracts/token/ERC20/ERC20.sol\":6475:6512  _balances[from] = fromBalance - value */\n      swap1\n      sstore\n        /* \"@openzeppelin/contracts/token/ERC20/ERC20.sol\":5997:6537  if (from == address(0)) {... */\n    tag_256:\n      sub(shl(0xa0, 0x01), 0x01)\n        /* \"@openzeppelin/contracts/token/ERC20/ERC20.sol\":6551:6567  to == address(0) */\n      dup3\n      and\n        /* \"@openzeppelin/contracts/token/ERC20/ERC20.sol\":6547:6972  if (to == address(0)) {... */\n      tag_259\n      jumpi\n        /* \"@openzeppelin/contracts/token/ERC20/ERC20.sol\":6714:6726  _totalSupply */\n      0x02\n        /* \"@openzeppelin/contracts/token/ERC20/ERC20.sol\":6714:6735  _totalSupply -= value */\n      dup1\n      sload\n      dup3\n      swap1\n      sub\n      swap1\n      sstore\n        /* \"@openzeppelin/contracts/token/ERC20/ERC20.sol\":6547:6972  if (to == address(0)) {... */\n      jump(tag_260)\n    tag_259:\n      sub(shl(0xa0, 0x01), 0x01)\n        /* \"@openzeppelin/contracts/token/ERC20/ERC20.sol\":6925:6938  _balances[to] */\n      dup3\n      and\n        /* \"@openzeppelin/contracts/token/ERC20/ERC20.sol\":6925:6934  _balances */\n      0x00\n        /* \"@openzeppelin/contracts/token/ERC20/ERC20.sol\":6925:6938  _balances[to] */\n      swap1\n      dup2\n      mstore\n      0x20\n      dup2\n      swap1\n      mstore\n      0x40\n      swap1\n      keccak256\n        /* \"@openzeppelin/contracts/token/ERC20/ERC20.sol\":6925:6947  _balances[to] += value */\n      dup1\n      sload\n      dup3\n      add\n      swap1\n      sstore\n        /* \"@openzeppelin/contracts/token/ERC20/ERC20.sol\":6547:6972  if (to == address(0)) {... */\n    tag_260:\n        /* \"@openzeppelin/contracts/token/ERC20/ERC20.sol\":7002:7004  to */\n      dup2\n      sub(shl(0xa0, 0x01), 0x01)\n        /* \"@openzeppelin/contracts/token/ERC20/ERC20.sol\":6987:7012  Transfer(from, to, value) */\n      and\n        /* \"@openzeppelin/contracts/token/ERC20/ERC20.sol\":6996:7000  from */\n      dup4\n      sub(shl(0xa0, 0x01), 0x01)\n        /* \"@openzeppelin/contracts/token/ERC20/ERC20.sol\":6987:7012  Transfer(from, to, value) */\n      and\n      0xddf252ad1be2c89b69c2b068fc378daa952ba7f163c4a11628f55a4df523b3ef\n        /* \"@openzeppelin/contracts/token/ERC20/ERC20.sol\":7006:7011  value */\n      dup4\n        /* \"@openzeppelin/contracts/token/ERC20/ERC20.sol\":6987:7012  Transfer(from, to, value) */\n      mload(0x40)\n      tag_261\n      swap2\n        /* \"#utility.yul\":1733:1758   */\n      dup2\n      mstore\n        /* \"#utility.yul\":1721:1723   */\n      0x20\n        /* \"#utility.yul\":1706:1724   */\n      add\n      swap1\n        /* \"#utility.yul\":1587:1764   */\n      jump\n        /* \"@openzeppelin/contracts/token/ERC20/ERC20.sol\":6987:7012  Transfer(from, to, value) */\n    tag_261:\n      mload(0x40)\n      dup1\n      swap2\n      sub\n      swap1\n      log3\n        /* \"@openzeppelin/contracts/token/ERC20/ERC20.sol\":5912:7019  function _update(address from, address to, uint256 value) internal virtual {... */\n      pop\n      pop\n      pop\n      jump\t// out\n        /* \"#utility.yul\":14:432   */\n    tag_24:\n        /* \"#utility.yul\":163:165   */\n      0x20\n        /* \"#utility.yul\":152:161   */\n      dup2\n        /* \"#utility.yul\":145:166   */\n      mstore\n        /* \"#utility.yul\":126:130   */\n      0x00\n        /* \"#utility.yul\":195:201   */\n      dup3\n        /* \"#utility.yul\":189:202   */\n      mload\n        /* \"#utility.yul\":238:244   */\n      dup1\n        /* \"#utility.yul\":233:235   */\n      0x20\n        /* \"#utility.yul\":222:231   */\n      dup5\n        /* \"#utility.yul\":218:236   */\n      add\n        /* \"#utility.yul\":211:245   */\n      mstore\n        /* \"#utility.yul\":297:303   */\n      dup1\n        /* \"#utility.yul\":292:294   */\n      0x20\n        /* \"#utility.yul\":284:290   */\n      dup6\n        /* \"#utility.yul\":280:295   */\n      add\n        /* \"#utility.yul\":275:277   */\n      0x40\n        /* \"#utility.yul\":264:273   */\n      dup6\n        /* \"#utility.yul\":260:278   */\n      add\n        /* \"#utility.yul\":254:304   */\n      mcopy\n        /* \"#utility.yul\":353:354   */\n      0x00\n        /* \"#utility.yul\":348:350   */\n      0x40\n        /* \"#utility.yul\":339:345   */\n      dup3\n        /* \"#utility.yul\":328:337   */\n      dup6\n        /* \"#utility.yul\":324:346   */\n      add\n        /* \"#utility.yul\":320:351   */\n      add\n        /* \"#utility.yul\":313:355   */\n      mstore\n        /* \"#utility.yul\":423:425   */\n      0x40\n        /* \"#utility.yul\":416:418   */\n      0x1f\n        /* \"#utility.yul\":412:419   */\n      not\n        /* \"#utility.yul\":407:409   */\n      0x1f\n        /* \"#utility.yul\":399:405   */\n      dup4\n        /* \"#utility.yul\":395:410   */\n      add\n        /* \"#utility.yul\":391:420   */\n      and\n        /* \"#utility.yul\":380:389   */\n      dup5\n        /* \"#utility.yul\":376:421   */\n      add\n        /* \"#utility.yul\":372:426   */\n      add\n        /* \"#utility.yul\":364:426   */\n      swap2\n      pop\n      pop\n        /* \"#utility.yul\":14:432   */\n      swap3\n      swap2\n      pop\n      pop\n      jump\t// out\n        /* \"#utility.yul\":690:863   */\n    tag_262:\n        /* \"#utility.yul\":758:778   */\n      dup1\n      calldataload\n      sub(shl(0xa0, 0x01), 0x01)\n        /* \"#utility.yul\":807:838   */\n      dup2\n      and\n        /* \"#utility.yul\":797:839   */\n      dup2\n      eq\n        /* \"#utility.yul\":787:857   */\n      tag_268\n      jumpi\n        /* \"#utility.yul\":853:854   */\n      0x00\n        /* \"#utility.yul\":850:851   */\n      0x00\n        /* \"#utility.yul\":843:855   */\n      revert\n        /* \"#utility.yul\":787:857   */\n    tag_268:\n        /* \"#utility.yul\":690:863   */\n      swap2\n      swap1\n      pop\n      jump\t// out\n        /* \"#utility.yul\":868:1168   */\n    tag_31:\n        /* \"#utility.yul\":936:942   */\n      0x00\n        /* \"#utility.yul\":944:950   */\n      0x00\n        /* \"#utility.yul\":997:999   */\n      0x40\n        /* \"#utility.yul\":985:994   */\n      dup4\n        /* \"#utility.yul\":976:983   */\n      dup6\n        /* \"#utility.yul\":972:995   */\n      sub\n        /* \"#utility.yul\":968:1000   */\n      slt\n        /* \"#utility.yul\":965:1017   */\n      iszero\n      tag_270\n      jumpi\n        /* \"#utility.yul\":1013:1014   */\n      0x00\n        /* \"#utility.yul\":1010:1011   */\n      0x00\n        /* \"#utility.yul\":1003:1015   */\n      revert\n        /* \"#utility.yul\":965:1017   */\n    tag_270:\n        /* \"#utility.yul\":1036:1065   */\n      tag_271\n        /* \"#utility.yul\":1055:1064   */\n      dup4\n        /* \"#utility.yul\":1036:1065   */\n      tag_262\n      jump\t// in\n    tag_271:\n        /* \"#utility.yul\":1026:1065   */\n      swap5\n        /* \"#utility.yul\":1134:1136   */\n      0x20\n        /* \"#utility.yul\":1119:1137   */\n      swap4\n      swap1\n      swap4\n      add\n        /* \"#utility.yul\":1106:1138   */\n      calldataload\n      swap4\n      pop\n      pop\n      pop\n        /* \"#utility.yul\":868:1168   */\n      jump\t// out\n        /* \"#utility.yul\":1365:1582   */\n    tag_38:\n      sub(shl(0xa0, 0x01), 0x01)\n        /* \"#utility.yul\":1543:1575   */\n      swap2\n      swap1\n      swap2\n      and\n        /* \"#utility.yul\":1525:1576   */\n      dup2\n      mstore\n        /* \"#utility.yul\":1513:1515   */\n      0x20\n        /* \"#utility.yul\":1498:1516   */\n      add\n      swap1\n        /* \"#utility.yul\":1365:1582   */\n      jump\t// out\n        /* \"#utility.yul\":1769:2143   */\n    tag_48:\n        /* \"#utility.yul\":1846:1852   */\n      0x00\n        /* \"#utility.yul\":1854:1860   */\n      0x00\n        /* \"#utility.yul\":1862:1868   */\n      0x00\n        /* \"#utility.yul\":1915:1917   */\n      0x60\n        /* \"#utility.yul\":1903:1912   */\n      dup5\n        /* \"#utility.yul\":1894:1901   */\n      dup7\n        /* \"#utility.yul\":1890:1913   */\n      sub\n        /* \"#utility.yul\":1886:1918   */\n      slt\n        /* \"#utility.yul\":1883:1935   */\n      iszero\n      tag_276\n      jumpi\n        /* \"#utility.yul\":1931:1932   */\n      0x00\n        /* \"#utility.yul\":1928:1929   */\n      0x00\n        /* \"#utility.yul\":1921:1933   */\n      revert\n        /* \"#utility.yul\":1883:1935   */\n    tag_276:\n        /* \"#utility.yul\":1954:1983   */\n      tag_277\n        /* \"#utility.yul\":1973:1982   */\n      dup5\n        /* \"#utility.yul\":1954:1983   */\n      tag_262\n      jump\t// in\n    tag_277:\n        /* \"#utility.yul\":1944:1983   */\n      swap3\n      pop\n        /* \"#utility.yul\":2002:2040   */\n      tag_278\n        /* \"#utility.yul\":2036:2038   */\n      0x20\n        /* \"#utility.yul\":2025:2034   */\n      dup6\n        /* \"#utility.yul\":2021:2039   */\n      add\n        /* \"#utility.yul\":2002:2040   */\n      tag_262\n      jump\t// in\n    tag_278:\n        /* \"#utility.yul\":1769:2143   */\n      swap3\n      swap6\n        /* \"#utility.yul\":1992:2040   */\n      swap3\n      swap5\n      pop\n      pop\n      pop\n        /* \"#utility.yul\":2109:2111   */\n      0x40\n        /* \"#utility.yul\":2094:2112   */\n      swap2\n      swap1\n      swap2\n      add\n        /* \"#utility.yul\":2081:2113   */\n      calldataload\n      swap1\n        /* \"#utility.yul\":1769:2143   */\n      jump\t// out\n        /* \"#utility.yul\":2337:2523   */\n    tag_60:\n        /* \"#utility.yul\":2396:2402   */\n      0x00\n        /* \"#utility.yul\":2449:2451   */\n      0x20\n        /* \"#utility.yul\":2437:2446   */\n      dup3\n        /* \"#utility.yul\":2428:2435   */\n      dup5\n        /* \"#utility.yul\":2424:2447   */\n      sub\n        /* \"#utility.yul\":2420:2452   */\n      slt\n        /* \"#utility.yul\":2417:2469   */\n      iszero\n      tag_281\n      jumpi\n        /* \"#utility.yul\":2465:2466   */\n      0x00\n        /* \"#utility.yul\":2462:2463   */\n      0x00\n        /* \"#utility.yul\":2455:2467   */\n      revert\n        /* \"#utility.yul\":2417:2469   */\n    tag_281:\n        /* \"#utility.yul\":2488:2517   */\n      tag_282\n        /* \"#utility.yul\":2507:2516   */\n      dup3\n        /* \"#utility.yul\":2488:2517   */\n      tag_262\n      jump\t// in\n    tag_282:\n        /* \"#utility.yul\":2478:2517   */\n      swap4\n        /* \"#utility.yul\":2337:2523   */\n      swap3\n      pop\n      pop\n      pop\n      jump\t// out\n        /* \"#utility.yul\":2528:2754   */\n    tag_68:\n        /* \"#utility.yul\":2587:2593   */\n      0x00\n        /* \"#utility.yul\":2640:2642   */\n      0x20\n        /* \"#utility.yul\":2628:2637   */\n      dup3\n        /* \"#utility.yul\":2619:2626   */\n      dup5\n        /* \"#utility.yul\":2615:2638   */\n      sub\n        /* \"#utility.yul\":2611:2643   */\n      slt\n        /* \"#utility.yul\":2608:2660   */\n      iszero\n      tag_284\n      jumpi\n        /* \"#utility.yul\":2656:2657   */\n      0x00\n        /* \"#utility.yul\":2653:2654   */\n      0x00\n        /* \"#utility.yul\":2646:2658   */\n      revert\n        /* \"#utility.yul\":2608:2660   */\n    tag_284:\n      pop\n        /* \"#utility.yul\":2701:2724   */\n      calldataload\n      swap2\n        /* \"#utility.yul\":2528:2754   */\n      swap1\n      pop\n      jump\t// out\n        /* \"#utility.yul\":2759:3105   */\n    tag_73:\n        /* \"#utility.yul\":2827:2833   */\n      0x00\n        /* \"#utility.yul\":2835:2841   */\n      0x00\n        /* \"#utility.yul\":2888:2890   */\n      0x40\n        /* \"#utility.yul\":2876:2885   */\n      dup4\n        /* \"#utility.yul\":2867:2874   */\n      dup6\n        /* \"#utility.yul\":2863:2886   */\n      sub\n        /* \"#utility.yul\":2859:2891   */\n      slt\n        /* \"#utility.yul\":2856:2908   */\n      iszero\n      tag_286\n      jumpi\n        /* \"#utility.yul\":2904:2905   */\n      0x00\n        /* \"#utility.yul\":2901:2902   */\n      0x00\n        /* \"#utility.yul\":2894:2906   */\n      revert\n        /* \"#utility.yul\":2856:2908   */\n    tag_286:\n      pop\n      pop\n        /* \"#utility.yul\":2949:2972   */\n      dup1\n      calldataload\n      swap3\n        /* \"#utility.yul\":3069:3071   */\n      0x20\n        /* \"#utility.yul\":3054:3072   */\n      swap1\n      swap2\n      add\n        /* \"#utility.yul\":3041:3073   */\n      calldataload\n      swap2\n      pop\n        /* \"#utility.yul\":2759:3105   */\n      jump\t// out\n        /* \"#utility.yul\":3110:3370   */\n    tag_89:\n        /* \"#utility.yul\":3178:3184   */\n      0x00\n        /* \"#utility.yul\":3186:3192   */\n      0x00\n        /* \"#utility.yul\":3239:3241   */\n      0x40\n        /* \"#utility.yul\":3227:3236   */\n      dup4\n        /* \"#utility.yul\":3218:3225   */\n      dup6\n        /* \"#utility.yul\":3214:3237   */\n      sub\n        /* \"#utility.yul\":3210:3242   */\n      slt\n        /* \"#utility.yul\":3207:3259   */\n      iszero\n      tag_288\n      jumpi\n        /* \"#utility.yul\":3255:3256   */\n      0x00\n        /* \"#utility.yul\":3252:3253   */\n      0x00\n        /* \"#utility.yul\":3245:3257   */\n      revert\n        /* \"#utility.yul\":3207:3259   */\n    tag_288:\n        /* \"#utility.yul\":3278:3307   */\n      tag_289\n        /* \"#utility.yul\":3297:3306   */\n      dup4\n        /* \"#utility.yul\":3278:3307   */\n      tag_262\n      jump\t// in\n    tag_289:\n        /* \"#utility.yul\":3268:3307   */\n      swap2\n      pop\n        /* \"#utility.yul\":3326:3364   */\n      tag_290\n        /* \"#utility.yul\":3360:3362   */\n      0x20\n        /* \"#utility.yul\":3349:3358   */\n      dup5\n        /* \"#utility.yul\":3345:3363   */\n      add\n        /* \"#utility.yul\":3326:3364   */\n      tag_262\n      jump\t// in\n    tag_290:\n        /* \"#utility.yul\":3316:3364   */\n      swap1\n      pop\n        /* \"#utility.yul\":3110:3370   */\n      swap3\n      pop\n      swap3\n      swap1\n      pop\n      jump\t// out\n        /* \"#utility.yul\":3375:3755   */\n    tag_94:\n        /* \"#utility.yul\":3454:3455   */\n      0x01\n        /* \"#utility.yul\":3450:3462   */\n      dup2\n      dup2\n      shr\n      swap1\n        /* \"#utility.yul\":3497:3509   */\n      dup3\n      and\n      dup1\n        /* \"#utility.yul\":3518:3579   */\n      tag_292\n      jumpi\n        /* \"#utility.yul\":3572:3576   */\n      0x7f\n        /* \"#utility.yul\":3564:3570   */\n      dup3\n        /* \"#utility.yul\":3560:3577   */\n      and\n        /* \"#utility.yul\":3550:3577   */\n      swap2\n      pop\n        /* \"#utility.yul\":3518:3579   */\n    tag_292:\n        /* \"#utility.yul\":3625:3627   */\n      0x20\n        /* \"#utility.yul\":3617:3623   */\n      dup3\n        /* \"#utility.yul\":3614:3628   */\n      lt\n        /* \"#utility.yul\":3594:3612   */\n      dup2\n        /* \"#utility.yul\":3591:3629   */\n      sub\n        /* \"#utility.yul\":3588:3749   */\n      tag_293\n      jumpi\n        /* \"#utility.yul\":3671:3681   */\n      0x4e487b71\n        /* \"#utility.yul\":3666:3669   */\n      0xe0\n        /* \"#utility.yul\":3662:3682   */\n      shl\n        /* \"#utility.yul\":3659:3660   */\n      0x00\n        /* \"#utility.yul\":3652:3683   */\n      mstore\n        /* \"#utility.yul\":3706:3710   */\n      0x22\n        /* \"#utility.yul\":3703:3704   */\n      0x04\n        /* \"#utility.yul\":3696:3711   */\n      mstore\n        /* \"#utility.yul\":3734:3738   */\n      0x24\n        /* \"#utility.yul\":3731:3732   */\n      0x00\n        /* \"#utility.yul\":3724:3739   */\n      revert\n        /* \"#utility.yul\":3588:3749   */\n    tag_293:\n      pop\n        /* \"#utility.yul\":3375:3755   */\n      swap2\n      swap1\n      pop\n      jump\t// out\n        /* \"#utility.yul\":4114:4241   */\n    tag_263:\n        /* \"#utility.yul\":4175:4185   */\n      0x4e487b71\n        /* \"#utility.yul\":4170:4173   */\n      0xe0\n        /* \"#utility.yul\":4166:4186   */\n      shl\n        /* \"#utility.yul\":4163:4164   */\n      0x00\n        /* \"#utility.yul\":4156:4187   */\n      mstore\n        /* \"#utility.yul\":4206:4210   */\n      0x11\n        /* \"#utility.yul\":4203:4204   */\n      0x04\n        /* \"#utility.yul\":4196:4211   */\n      mstore\n        /* \"#utility.yul\":4230:4234   */\n      0x24\n        /* \"#utility.yul\":4227:4228   */\n      0x00\n        /* \"#utility.yul\":4220:4235   */\n      revert\n        /* \"#utility.yul\":4246:4414   */\n    tag_126:\n        /* \"#utility.yul\":4319:4328   */\n      dup1\n      dup3\n      mul\n        /* \"#utility.yul\":4350:4359   */\n      dup2\n      iszero\n        /* \"#utility.yul\":4367:4382   */\n      dup3\n      dup3\n      div\n        /* \"#utility.yul\":4361:4383   */\n      dup5\n      eq\n        /* \"#utility.yul\":4347:4384   */\n      or\n        /* \"#utility.yul\":4337:4408   */\n      tag_100\n      jumpi\n        /* \"#utility.yul\":4388:4406   */\n      tag_100\n      tag_263\n      jump\t// in\n        /* \"#utility.yul\":4419:4636   */\n    tag_128:\n        /* \"#utility.yul\":4459:4460   */\n      0x00\n        /* \"#utility.yul\":4485:4486   */\n      dup3\n        /* \"#utility.yul\":4475:4607   */\n      tag_300\n      jumpi\n        /* \"#utility.yul\":4529:4539   */\n      0x4e487b71\n        /* \"#utility.yul\":4524:4527   */\n      0xe0\n        /* \"#utility.yul\":4520:4540   */\n      shl\n        /* \"#utility.yul\":4517:4518   */\n      0x00\n        /* \"#utility.yul\":4510:4541   */\n      mstore\n        /* \"#utility.yul\":4564:4568   */\n      0x12\n        /* \"#utility.yul\":4561:4562   */\n      0x04\n        /* \"#utility.yul\":4554:4569   */\n      mstore\n        /* \"#utility.yul\":4592:4596   */\n      0x24\n        /* \"#utility.yul\":4589:4590   */\n      0x00\n        /* \"#utility.yul\":4582:4597   */\n      revert\n        /* \"#utility.yul\":4475:4607   */\n    tag_300:\n      pop\n        /* \"#utility.yul\":4621:4630   */\n      div\n      swap1\n        /* \"#utility.yul\":4419:4636   */\n      jump\t// out\n        /* \"#utility.yul\":5002:5276   */\n    tag_138:\n      sub(shl(0xa0, 0x01), 0x01)\n        /* \"#utility.yul\":5194:5226   */\n      swap3\n      swap1\n      swap3\n      and\n        /* \"#utility.yul\":5176:5227   */\n      dup3\n      mstore\n        /* \"#utility.yul\":5258:5260   */\n      0x20\n        /* \"#utility.yul\":5243:5261   */\n      dup3\n      add\n        /* \"#utility.yul\":5236:5270   */\n      mstore\n        /* \"#utility.yul\":5164:5166   */\n      0x40\n        /* \"#utility.yul\":5149:5167   */\n      add\n      swap1\n        /* \"#utility.yul\":5002:5276   */\n      jump\t// out\n        /* \"#utility.yul\":5281:5558   */\n    tag_142:\n        /* \"#utility.yul\":5348:5354   */\n      0x00\n        /* \"#utility.yul\":5401:5403   */\n      0x20\n        /* \"#utility.yul\":5389:5398   */\n      dup3\n        /* \"#utility.yul\":5380:5387   */\n      dup5\n        /* \"#utility.yul\":5376:5399   */\n      sub\n        /* \"#utility.yul\":5372:5404   */\n      slt\n        /* \"#utility.yul\":5369:5421   */\n      iszero\n      tag_304\n      jumpi\n        /* \"#utility.yul\":5417:5418   */\n      0x00\n        /* \"#utility.yul\":5414:5415   */\n      0x00\n        /* \"#utility.yul\":5407:5419   */\n      revert\n        /* \"#utility.yul\":5369:5421   */\n    tag_304:\n        /* \"#utility.yul\":5449:5458   */\n      dup2\n        /* \"#utility.yul\":5443:5459   */\n      mload\n        /* \"#utility.yul\":5502:5507   */\n      dup1\n        /* \"#utility.yul\":5495:5508   */\n      iszero\n        /* \"#utility.yul\":5488:5509   */\n      iszero\n        /* \"#utility.yul\":5481:5486   */\n      dup2\n        /* \"#utility.yul\":5478:5510   */\n      eq\n        /* \"#utility.yul\":5468:5528   */\n      tag_282\n      jumpi\n        /* \"#utility.yul\":5524:5525   */\n      0x00\n        /* \"#utility.yul\":5521:5522   */\n      0x00\n        /* \"#utility.yul\":5514:5526   */\n      revert\n        /* \"#utility.yul\":5563:5691   */\n    tag_148:\n        /* \"#utility.yul\":5630:5639   */\n      dup2\n      dup2\n      sub\n        /* \"#utility.yul\":5651:5662   */\n      dup2\n      dup2\n      gt\n        /* \"#utility.yul\":5648:5685   */\n      iszero\n      tag_100\n      jumpi\n        /* \"#utility.yul\":5665:5683   */\n      tag_100\n      tag_263\n      jump\t// in\n        /* \"#utility.yul\":5696:6067   */\n    tag_152:\n      sub(shl(0xa0, 0x01), 0x01)\n        /* \"#utility.yul\":5916:5948   */\n      swap4\n      dup5\n      and\n        /* \"#utility.yul\":5898:5949   */\n      dup2\n      mstore\n        /* \"#utility.yul\":5985:6017   */\n      swap2\n      swap1\n      swap3\n      and\n        /* \"#utility.yul\":5980:5982   */\n      0x20\n        /* \"#utility.yul\":5965:5983   */\n      dup3\n      add\n        /* \"#utility.yul\":5958:6018   */\n      mstore\n        /* \"#utility.yul\":6049:6051   */\n      0x40\n        /* \"#utility.yul\":6034:6052   */\n      dup2\n      add\n        /* \"#utility.yul\":6027:6061   */\n      swap2\n      swap1\n      swap2\n      mstore\n        /* \"#utility.yul\":5886:5888   */\n      0x60\n        /* \"#utility.yul\":5871:5889   */\n      add\n      swap1\n        /* \"#utility.yul\":5696:6067   */\n      jump\t// out\n        /* \"#utility.yul\":7122:7247   */\n    tag_178:\n        /* \"#utility.yul\":7187:7196   */\n      dup1\n      dup3\n      add\n        /* \"#utility.yul\":7208:7218   */\n      dup1\n      dup3\n      gt\n        /* \"#utility.yul\":7205:7241   */\n      iszero\n      tag_100\n      jumpi\n        /* \"#utility.yul\":7221:7239   */\n      tag_100\n      tag_263\n      jump\t// in\n        /* \"#utility.yul\":7955:8300   */\n    tag_228:\n      sub(shl(0xa0, 0x01), 0x01)\n        /* \"#utility.yul\":8175:8207   */\n      swap4\n      swap1\n      swap4\n      and\n        /* \"#utility.yul\":8157:8208   */\n      dup4\n      mstore\n        /* \"#utility.yul\":8239:8241   */\n      0x20\n        /* \"#utility.yul\":8224:8242   */\n      dup4\n      add\n        /* \"#utility.yul\":8217:8251   */\n      swap2\n      swap1\n      swap2\n      mstore\n        /* \"#utility.yul\":8282:8284   */\n      0x40\n        /* \"#utility.yul\":8267:8285   */\n      dup3\n      add\n        /* \"#utility.yul\":8260:8294   */\n      mstore\n        /* \"#utility.yul\":8145:8147   */\n      0x60\n        /* \"#utility.yul\":8130:8148   */\n      add\n      swap1\n        /* \"#utility.yul\":7955:8300   */\n      jump\t// out\n\n    auxdata: 0xa26469706673582212205bfc9a118b5306cc143a68ace2f9ab6bbfdaec3241a5482ea44c5217f7eff51a64736f6c634300081e0033\n}\n",
				"bytecode": {
					"linkReferences": {},
					"object": "60c060405234801561000f575f5ffd5b5060405161145138038061145183398101604081905261002e916100c3565b6040518060400160405280600d81526020016c20b5b4b7102628102a37b5b2b760991b815250604051806040016040528060058152602001640414b2d4c560dc1b8152508160039081610081919061018c565b50600461008e828261018c565b5050506001600160a01b039182166080521660a052610246565b80516001600160a01b03811681146100be575f5ffd5b919050565b5f5f604083850312156100d4575f5ffd5b6100dd836100a8565b91506100eb602084016100a8565b90509250929050565b634e487b7160e01b5f52604160045260245ffd5b600181811c9082168061011c57607f821691505b60208210810361013a57634e487b7160e01b5f52602260045260245ffd5b50919050565b601f82111561018757805f5260205f20601f840160051c810160208510156101655750805b601f840160051c820191505b81811015610184575f8155600101610171565b50505b505050565b81516001600160401b038111156101a5576101a56100f4565b6101b9816101b38454610108565b84610140565b6020601f8211600181146101eb575f83156101d45750848201515b5f19600385901b1c1916600184901b178455610184565b5f84815260208120601f198516915b8281101561021a57878501518255602094850194600190920191016101fa565b508482101561023757868401515f19600387901b60f8161c191681555b50505050600190811b01905550565b60805160a0516111ab6102a65f395f81816101bf015281816104f201528181610689015281816108480152610a4601525f818161014e01528181610463015281816105b90152818161080d0152818161098f0152610b4501526111ab5ff3fe608060405234801561000f575f5ffd5b50600436106100e8575f3560e01c80635f64b55b1161008f5780635f64b55b146101ba57806370a08231146101e157806395d89b41146102095780639c8f9f23146102115780639cd441da14610224578063a9059cbb14610237578063d004f0f71461024a578063dc5fa6c51461025d578063dd62ed3e14610266575f5ffd5b806306fdde03146100ec5780630902f1ac1461010a578063095ea7b3146101265780630fc63d101461014957806318160ddd1461017d57806319e36f3b1461018f57806323b872dd14610198578063313ce567146101ab575b5f5ffd5b6100f4610279565b6040516101019190610f02565b60405180910390f35b6005546006545b60408051928352602083019190915201610101565b610139610134366004610f52565b610309565b6040519015158152602001610101565b6101707f000000000000000000000000000000000000000000000000000000000000000081565b6040516101019190610f7a565b6002545b604051908152602001610101565b61018160065481565b6101396101a6366004610f8e565b610322565b60405160128152602001610101565b6101707f000000000000000000000000000000000000000000000000000000000000000081565b6101816101ef366004610fc8565b6001600160a01b03165f9081526020819052604090205490565b6100f4610345565b61011161021f366004610fe8565b610354565b610181610232366004610fff565b6105a0565b610139610245366004610f52565b6107fd565b610181610258366004610f52565b61080a565b61018160055481565b61018161027436600461101f565b610bc7565b60606003805461028890611050565b80601f01602080910402602001604051908101604052809291908181526020018280546102b490611050565b80156102ff5780601f106102d6576101008083540402835291602001916102ff565b820191905f5260205f20905b8154815290600101906020018083116102e257829003601f168201915b5050505050905090565b5f33610316818585610bf1565b60019150505b92915050565b5f3361032f858285610c03565b61033a858585610c54565b506001949350505050565b60606004805461028890611050565b5f5f5f83116103a65760405162461bcd60e51b815260206004820152601960248201527843616e6e6f742072656d6f76652030206c697175696469747960381b60448201526064015b60405180910390fd5b5f6103b060025490565b905080846005546103c1919061109c565b6103cb91906110b3565b925080846006546103dc919061109c565b6103e691906110b3565b91505f831180156103f657505f82115b6104425760405162461bcd60e51b815260206004820181905260248201527f496e73756666696369656e7420616d6f756e747320746f207769746864726177604482015260640161039d565b61044c3385610cb1565b60405163a9059cbb60e01b81526001600160a01b037f0000000000000000000000000000000000000000000000000000000000000000169063a9059cbb9061049a90339087906004016110d2565b6020604051808303815f875af11580156104b6573d5f5f3e3d5ffd5b505050506040513d601f19601f820116820180604052508101906104da91906110eb565b5060405163a9059cbb60e01b81526001600160a01b037f0000000000000000000000000000000000000000000000000000000000000000169063a9059cbb9061052990339086906004016110d2565b6020604051808303815f875af1158015610545573d5f5f3e3d5ffd5b505050506040513d601f19601f8201168201806040525081019061056991906110eb565b508260055f82825461057b919061110a565b925050819055508160065f828254610593919061110a565b9250508190555050915091565b6040516323b872dd60e01b81525f906001600160a01b037f000000000000000000000000000000000000000000000000000000000000000016906323b872dd906105f29033903090889060040161111d565b6020604051808303815f875af115801561060e573d5f5f3e3d5ffd5b505050506040513d601f19601f8201168201806040525081019061063291906110eb565b6106725760405162461bcd60e51b8152602060048201526011602482015270151c985b9cd9995c88104819985a5b1959607a1b604482015260640161039d565b6040516323b872dd60e01b81526001600160a01b037f000000000000000000000000000000000000000000000000000000000000000016906323b872dd906106c29033903090879060040161111d565b6020604051808303815f875af11580156106de573d5f5f3e3d5ffd5b505050506040513d601f19601f8201168201806040525081019061070291906110eb565b6107425760405162461bcd60e51b8152602060048201526011602482015270151c985b9cd9995c88108819985a5b1959607a1b604482015260640161039d565b6002545f0361075257508161076f565b600554600254610762908561109c565b61076c91906110b3565b90505b5f81116107be5760405162461bcd60e51b815260206004820152601d60248201527f496e73756666696369656e74206c6971756964697479206d696e746564000000604482015260640161039d565b6107c83382610ce9565b8260055f8282546107d99190611141565b925050819055508160065f8282546107f19190611141565b90915550909392505050565b5f33610316818585610c54565b5f7f00000000000000000000000000000000000000000000000000000000000000006001600160a01b0316836001600160a01b0316148061087c57507f00000000000000000000000000000000000000000000000000000000000000006001600160a01b0316836001600160a01b0316145b6108be5760405162461bcd60e51b815260206004820152601360248201527224b73b30b634b21034b7383aba103a37b5b2b760691b604482015260640161039d565b5f821161090d5760405162461bcd60e51b815260206004820152601a60248201527f416d6f756e7420696e206d75737420626520706f736974697665000000000000604482015260640161039d565b6040516323b872dd60e01b81526001600160a01b038416906323b872dd9061093d9033903090879060040161111d565b6020604051808303815f875af1158015610959573d5f5f3e3d5ffd5b505050506040513d601f19601f8201168201806040525081019061097d91906110eb565b505f61098b836103e561109c565b90507f00000000000000000000000000000000000000000000000000000000000000006001600160a01b0316846001600160a01b031603610ac5575f600654826109d5919061109c565b90505f826005546103e86109e9919061109c565b6109f39190611141565b90506109ff81836110b3565b93508460055f828254610a129190611141565b925050819055508360065f828254610a2a919061110a565b909155505060405163a9059cbb60e01b81526001600160a01b037f0000000000000000000000000000000000000000000000000000000000000000169063a9059cbb90610a7d90339088906004016110d2565b6020604051808303815f875af1158015610a99573d5f5f3e3d5ffd5b505050506040513d601f19601f82011682018060405250810190610abd91906110eb565b505050610bc0565b5f60055482610ad4919061109c565b90505f826006546103e8610ae8919061109c565b610af29190611141565b9050610afe81836110b3565b93508460065f828254610b119190611141565b925050819055508360055f828254610b29919061110a565b909155505060405163a9059cbb60e01b81526001600160a01b037f0000000000000000000000000000000000000000000000000000000000000000169063a9059cbb90610b7c90339088906004016110d2565b6020604051808303815f875af1158015610b98573d5f5f3e3d5ffd5b505050506040513d601f19601f82011682018060405250810190610bbc91906110eb565b5050505b5092915050565b6001600160a01b039182165f90815260016020908152604080832093909416825291909152205490565b610bfe8383836001610d1d565b505050565b5f610c0e8484610bc7565b90505f19811015610c4e5781811015610c4057828183604051637dc7a0d960e11b815260040161039d93929190611154565b610c4e84848484035f610d1d565b50505050565b6001600160a01b038316610c7d575f604051634b637e8f60e11b815260040161039d9190610f7a565b6001600160a01b038216610ca6575f60405163ec442f0560e01b815260040161039d9190610f7a565b610bfe838383610def565b6001600160a01b038216610cda575f604051634b637e8f60e11b815260040161039d9190610f7a565b610ce5825f83610def565b5050565b6001600160a01b038216610d12575f60405163ec442f0560e01b815260040161039d9190610f7a565b610ce55f8383610def565b6001600160a01b038416610d46575f60405163e602df0560e01b815260040161039d9190610f7a565b6001600160a01b038316610d6f575f604051634a1406b160e11b815260040161039d9190610f7a565b6001600160a01b038085165f9081526001602090815260408083209387168352929052208290558015610c4e57826001600160a01b0316846001600160a01b03167f8c5be1e5ebec7d5bd14f71427d1e84f3dd0314c0f7b2291e5b200ac8c7c3b92584604051610de191815260200190565b60405180910390a350505050565b6001600160a01b038316610e19578060025f828254610e0e9190611141565b90915550610e769050565b6001600160a01b0383165f9081526020819052604090205481811015610e585783818360405163391434e360e21b815260040161039d93929190611154565b6001600160a01b0384165f9081526020819052604090209082900390555b6001600160a01b038216610e9257600280548290039055610eb0565b6001600160a01b0382165f9081526020819052604090208054820190555b816001600160a01b0316836001600160a01b03167fddf252ad1be2c89b69c2b068fc378daa952ba7f163c4a11628f55a4df523b3ef83604051610ef591815260200190565b60405180910390a3505050565b602081525f82518060208401528060208501604085015e5f604082850101526040601f19601f83011684010191505092915050565b80356001600160a01b0381168114610f4d575f5ffd5b919050565b5f5f60408385031215610f63575f5ffd5b610f6c83610f37565b946020939093013593505050565b6001600160a01b0391909116815260200190565b5f5f5f60608486031215610fa0575f5ffd5b610fa984610f37565b9250610fb760208501610f37565b929592945050506040919091013590565b5f60208284031215610fd8575f5ffd5b610fe182610f37565b9392505050565b5f60208284031215610ff8575f5ffd5b5035919050565b5f5f60408385031215611010575f5ffd5b50508035926020909101359150565b5f5f60408385031215611030575f5ffd5b61103983610f37565b915061104760208401610f37565b90509250929050565b600181811c9082168061106457607f821691505b60208210810361108257634e487b7160e01b5f52602260045260245ffd5b50919050565b634e487b7160e01b5f52601160045260245ffd5b808202811582820484141761031c5761031c611088565b5f826110cd57634e487b7160e01b5f52601260045260245ffd5b500490565b6001600160a01b03929092168252602082015260400190565b5f602082840312156110fb575f5ffd5b81518015158114610fe1575f5ffd5b8181038181111561031c5761031c611088565b6001600160a01b039384168152919092166020820152604081019190915260600190565b8082018082111561031c5761031c611088565b6001600160a01b03939093168352602083019190915260408201526060019056fea26469706673582212205bfc9a118b5306cc143a68ace2f9ab6bbfdaec3241a5482ea44c5217f7eff51a64736f6c634300081e0033",
					"opcodes": "PUSH1 0xC0 PUSH1 0x40 MSTORE CALLVALUE DUP1 ISZERO PUSH2 0xF JUMPI PUSH0 PUSH0 REVERT JUMPDEST POP PUSH1 0x40 MLOAD PUSH2 0x1451 CODESIZE SUB DUP1 PUSH2 0x1451 DUP4 CODECOPY DUP2 ADD PUSH1 0x40 DUP2 SWAP1 MSTORE PUSH2 0x2E SWAP2 PUSH2 0xC3 JUMP JUMPDEST PUSH1 0x40 MLOAD DUP1 PUSH1 0x40 ADD PUSH1 0x40 MSTORE DUP1 PUSH1 0xD DUP2 MSTORE PUSH1 0x20 ADD PUSH13 0x20B5B4B7102628102A37B5B2B7 PUSH1 0x99 SHL DUP2 MSTORE POP PUSH1 0x40 MLOAD DUP1 PUSH1 0x40 ADD PUSH1 0x40 MSTORE DUP1 PUSH1 0x5 DUP2 MSTORE PUSH1 0x20 ADD PUSH5 0x414B2D4C5 PUSH1 0xDC SHL DUP2 MSTORE POP DUP2 PUSH1 0x3 SWAP1 DUP2 PUSH2 0x81 SWAP2 SWAP1 PUSH2 0x18C JUMP JUMPDEST POP PUSH1 0x4 PUSH2 0x8E DUP3 DUP3 PUSH2 0x18C JUMP JUMPDEST POP POP POP PUSH1 0x1 PUSH1 0x1 PUSH1 0xA0 SHL SUB SWAP2 DUP3 AND PUSH1 0x80 MSTORE AND PUSH1 0xA0 MSTORE PUSH2 0x246 JUMP JUMPDEST DUP1 MLOAD PUSH1 0x1 PUSH1 0x1 PUSH1 0xA0 SHL SUB DUP2 AND DUP2 EQ PUSH2 0xBE JUMPI PUSH0 PUSH0 REVERT JUMPDEST SWAP2 SWAP1 POP JUMP JUMPDEST PUSH0 PUSH0 PUSH1 0x40 DUP4 DUP6 SUB SLT ISZERO PUSH2 0xD4 JUMPI PUSH0 PUSH0 REVERT JUMPDEST PUSH2 0xDD DUP4 PUSH2 0xA8 JUMP JUMPDEST SWAP2 POP PUSH2 0xEB PUSH1 0x20 DUP5 ADD PUSH2 0xA8 JUMP JUMPDEST SWAP1 POP SWAP3 POP SWAP3 SWAP1 POP JUMP JUMPDEST PUSH4 0x4E487B71 PUSH1 0xE0 SHL PUSH0 MSTORE PUSH1 0x41 PUSH1 0x4 MSTORE PUSH1 0x24 PUSH0 REVERT JUMPDEST PUSH1 0x1 DUP2 DUP2 SHR SWAP1 DUP3 AND DUP1 PUSH2 0x11C JUMPI PUSH1 0x7F DUP3 AND SWAP2 POP JUMPDEST PUSH1 0x20 DUP3 LT DUP2 SUB PUSH2 0x13A JUMPI PUSH4 0x4E487B71 PUSH1 0xE0 SHL PUSH0 MSTORE PUSH1 0x22 PUSH1 0x4 MSTORE PUSH1 0x24 PUSH0 REVERT JUMPDEST POP SWAP2 SWAP1 POP JUMP JUMPDEST PUSH1 0x1F DUP3 GT ISZERO PUSH2 0x187 JUMPI DUP1 PUSH0 MSTORE PUSH1 0x20 PUSH0 KECCAK256 PUSH1 0x1F DUP5 ADD PUSH1 0x5 SHR DUP2 ADD PUSH1 0x20 DUP6 LT ISZERO PUSH2 0x165 JUMPI POP DUP1 JUMPDEST PUSH1 0x1F DUP5 ADD PUSH1 0x5 SHR DUP3 ADD SWAP2 POP JUMPDEST DUP2 DUP2 LT ISZERO PUSH2 0x184 JUMPI PUSH0 DUP2 SSTORE PUSH1 0x1 ADD PUSH2 0x171 JUMP JUMPDEST POP POP JUMPDEST POP POP POP JUMP JUMPDEST DUP2 MLOAD PUSH1 0x1 PUSH1 0x1 PUSH1 0x40 SHL SUB DUP2 GT ISZERO PUSH2 0x1A5 JUMPI PUSH2 0x1A5 PUSH2 0xF4 JUMP JUMPDEST PUSH2 0x1B9 DUP2 PUSH2 0x1B3 DUP5 SLOAD PUSH2 0x108 JUMP JUMPDEST DUP5 PUSH2 0x140 JUMP JUMPDEST PUSH1 0x20 PUSH1 0x1F DUP3 GT PUSH1 0x1 DUP2 EQ PUSH2 0x1EB JUMPI PUSH0 DUP4 ISZERO PUSH2 0x1D4 JUMPI POP DUP5 DUP3 ADD MLOAD JUMPDEST PUSH0 NOT PUSH1 0x3 DUP6 SWAP1 SHL SHR NOT AND PUSH1 0x1 DUP5 SWAP1 SHL OR DUP5 SSTORE PUSH2 0x184 JUMP JUMPDEST PUSH0 DUP5 DUP2 MSTORE PUSH1 0x20 DUP2 KECCAK256 PUSH1 0x1F NOT DUP6 AND SWAP2 JUMPDEST DUP3 DUP2 LT ISZERO PUSH2 0x21A JUMPI DUP8 DUP6 ADD MLOAD DUP3 SSTORE PUSH1 0x20 SWAP5 DUP6 ADD SWAP5 PUSH1 0x1 SWAP1 SWAP3 ADD SWAP2 ADD PUSH2 0x1FA JUMP JUMPDEST POP DUP5 DUP3 LT ISZERO PUSH2 0x237 JUMPI DUP7 DUP5 ADD MLOAD PUSH0 NOT PUSH1 0x3 DUP8 SWAP1 SHL PUSH1 0xF8 AND SHR NOT AND DUP2 SSTORE JUMPDEST POP POP POP POP PUSH1 0x1 SWAP1 DUP2 SHL ADD SWAP1 SSTORE POP JUMP JUMPDEST PUSH1 0x80 MLOAD PUSH1 0xA0 MLOAD PUSH2 0x11AB PUSH2 0x2A6 PUSH0 CODECOPY PUSH0 DUP2 DUP2 PUSH2 0x1BF ADD MSTORE DUP2 DUP2 PUSH2 0x4F2 ADD MSTORE DUP2 DUP2 PUSH2 0x689 ADD MSTORE DUP2 DUP2 PUSH2 0x848 ADD MSTORE PUSH2 0xA46 ADD MSTORE PUSH0 DUP2 DUP2 PUSH2 0x14E ADD MSTORE DUP2 DUP2 PUSH2 0x463 ADD MSTORE DUP2 DUP2 PUSH2 0x5B9 ADD MSTORE DUP2 DUP2 PUSH2 0x80D ADD MSTORE DUP2 DUP2 PUSH2 0x98F ADD MSTORE PUSH2 0xB45 ADD MSTORE PUSH2 0x11AB PUSH0 RETURN INVALID PUSH1 0x80 PUSH1 0x40 MSTORE CALLVALUE DUP1 ISZERO PUSH2 0xF JUMPI PUSH0 PUSH0 REVERT JUMPDEST POP PUSH1 0x4 CALLDATASIZE LT PUSH2 0xE8 JUMPI PUSH0 CALLDATALOAD PUSH1 0xE0 SHR DUP1 PUSH4 0x5F64B55B GT PUSH2 0x8F JUMPI DUP1 PUSH4 0x5F64B55B EQ PUSH2 0x1BA JUMPI DUP1 PUSH4 0x70A08231 EQ PUSH2 0x1E1 JUMPI DUP1 PUSH4 0x95D89B41 EQ PUSH2 0x209 JUMPI DUP1 PUSH4 0x9C8F9F23 EQ PUSH2 0x211 JUMPI DUP1 PUSH4 0x9CD441DA EQ PUSH2 0x224 JUMPI DUP1 PUSH4 0xA9059CBB EQ PUSH2 0x237 JUMPI DUP1 PUSH4 0xD004F0F7 EQ PUSH2 0x24A JUMPI DUP1 PUSH4 0xDC5FA6C5 EQ PUSH2 0x25D JUMPI DUP1 PUSH4 0xDD62ED3E EQ PUSH2 0x266 JUMPI PUSH0 PUSH0 REVERT JUMPDEST DUP1 PUSH4 0x6FDDE03 EQ PUSH2 0xEC JUMPI DUP1 PUSH4 0x902F1AC EQ PUSH2 0x10A JUMPI DUP1 PUSH4 0x95EA7B3 EQ PUSH2 0x126 JUMPI DUP1 PUSH4 0xFC63D10 EQ PUSH2 0x149 JUMPI DUP1 PUSH4 0x18160DDD EQ PUSH2 0x17D JUMPI DUP1 PUSH4 0x19E36F3B EQ PUSH2 0x18F JUMPI DUP1 PUSH4 0x23B872DD EQ PUSH2 0x198 JUMPI DUP1 PUSH4 0x313CE567 EQ PUSH2 0x1AB JUMPI JUMPDEST PUSH0 PUSH0 REVERT JUMPDEST PUSH2 0xF4 PUSH2 0x279 JUMP JUMPDEST PUSH1 0x40 MLOAD PUSH2 0x101 SWAP2 SWAP1 PUSH2 0xF02 JUMP JUMPDEST PUSH1 0x40 MLOAD DUP1 SWAP2 SUB SWAP1 RETURN JUMPDEST PUSH1 0x5 SLOAD PUSH1 0x6 SLOAD JUMPDEST PUSH1 0x40 DUP1 MLOAD SWAP3 DUP4 MSTORE PUSH1 0x20 DUP4 ADD SWAP2 SWAP1 SWAP2 MSTORE ADD PUSH2 0x101 JUMP JUMPDEST PUSH2 0x139 PUSH2 0x134 CALLDATASIZE PUSH1 0x4 PUSH2 0xF52 JUMP JUMPDEST PUSH2 0x309 JUMP JUMPDEST PUSH1 0x40 MLOAD SWAP1 ISZERO ISZERO DUP2 MSTORE PUSH1 0x20 ADD PUSH2 0x101 JUMP JUMPDEST PUSH2 0x170 PUSH32 0x0 DUP2 JUMP JUMPDEST PUSH1 0x40 MLOAD PUSH2 0x101 SWAP2 SWAP1 PUSH2 0xF7A JUMP JUMPDEST PUSH1 0x2 SLOAD JUMPDEST PUSH1 0x40 MLOAD SWAP1 DUP2 MSTORE PUSH1 0x20 ADD PUSH2 0x101 JUMP JUMPDEST PUSH2 0x181 PUSH1 0x6 SLOAD DUP2 JUMP JUMPDEST PUSH2 0x139 PUSH2 0x1A6 CALLDATASIZE PUSH1 0x4 PUSH2 0xF8E JUMP JUMPDEST PUSH2 0x322 JUMP JUMPDEST PUSH1 0x40 MLOAD PUSH1 0x12 DUP2 MSTORE PUSH1 0x20 ADD PUSH2 0x101 JUMP JUMPDEST PUSH2 0x170 PUSH32 0x0 DUP2 JUMP JUMPDEST PUSH2 0x181 PUSH2 0x1EF CALLDATASIZE PUSH1 0x4 PUSH2 0xFC8 JUMP JUMPDEST PUSH1 0x1 PUSH1 0x1 PUSH1 0xA0 SHL SUB AND PUSH0 SWAP1 DUP2 MSTORE PUSH1 0x20 DUP2 SWAP1 MSTORE PUSH1 0x40 SWAP1 KECCAK256 SLOAD SWAP1 JUMP JUMPDEST PUSH2 0xF4 PUSH2 0x345 JUMP JUMPDEST PUSH2 0x111 PUSH2 0x21F CALLDATASIZE PUSH1 0x4 PUSH2 0xFE8 JUMP JUMPDEST PUSH2 0x354 JUMP JUMPDEST PUSH2 0x181 PUSH2 0x232 CALLDATASIZE PUSH1 0x4 PUSH2 0xFFF JUMP JUMPDEST PUSH2 0x5A0 JUMP JUMPDEST PUSH2 0x139 PUSH2 0x245 CALLDATASIZE PUSH1 0x4 PUSH2 0xF52 JUMP JUMPDEST PUSH2 0x7FD JUMP JUMPDEST PUSH2 0x181 PUSH2 0x258 CALLDATASIZE PUSH1 0x4 PUSH2 0xF52 JUMP JUMPDEST PUSH2 0x80A JUMP JUMPDEST PUSH2 0x181 PUSH1 0x5 SLOAD DUP2 JUMP JUMPDEST PUSH2 0x181 PUSH2 0x274 CALLDATASIZE PUSH1 0x4 PUSH2 0x101F JUMP JUMPDEST PUSH2 0xBC7 JUMP JUMPDEST PUSH1 0x60 PUSH1 0x3 DUP1 SLOAD PUSH2 0x288 SWAP1 PUSH2 0x1050 JUMP JUMPDEST DUP1 PUSH1 0x1F ADD PUSH1 0x20 DUP1 SWAP2 DIV MUL PUSH1 0x20 ADD PUSH1 0x40 MLOAD SWAP1 DUP2 ADD PUSH1 0x40 MSTORE DUP1 SWAP3 SWAP2 SWAP1 DUP2 DUP2 MSTORE PUSH1 0x20 ADD DUP3 DUP1 SLOAD PUSH2 0x2B4 SWAP1 PUSH2 0x1050 JUMP JUMPDEST DUP1 ISZERO PUSH2 0x2FF JUMPI DUP1 PUSH1 0x1F LT PUSH2 0x2D6 JUMPI PUSH2 0x100 DUP1 DUP4 SLOAD DIV MUL DUP4 MSTORE SWAP2 PUSH1 0x20 ADD SWAP2 PUSH2 0x2FF JUMP JUMPDEST DUP3 ADD SWAP2 SWAP1 PUSH0 MSTORE PUSH1 0x20 PUSH0 KECCAK256 SWAP1 JUMPDEST DUP2 SLOAD DUP2 MSTORE SWAP1 PUSH1 0x1 ADD SWAP1 PUSH1 0x20 ADD DUP1 DUP4 GT PUSH2 0x2E2 JUMPI DUP3 SWAP1 SUB PUSH1 0x1F AND DUP3 ADD SWAP2 JUMPDEST POP POP POP POP POP SWAP1 POP SWAP1 JUMP JUMPDEST PUSH0 CALLER PUSH2 0x316 DUP2 DUP6 DUP6 PUSH2 0xBF1 JUMP JUMPDEST PUSH1 0x1 SWAP2 POP POP JUMPDEST SWAP3 SWAP2 POP POP JUMP JUMPDEST PUSH0 CALLER PUSH2 0x32F DUP6 DUP3 DUP6 PUSH2 0xC03 JUMP JUMPDEST PUSH2 0x33A DUP6 DUP6 DUP6 PUSH2 0xC54 JUMP JUMPDEST POP PUSH1 0x1 SWAP5 SWAP4 POP POP POP POP JUMP JUMPDEST PUSH1 0x60 PUSH1 0x4 DUP1 SLOAD PUSH2 0x288 SWAP1 PUSH2 0x1050 JUMP JUMPDEST PUSH0 PUSH0 PUSH0 DUP4 GT PUSH2 0x3A6 JUMPI PUSH1 0x40 MLOAD PUSH3 0x461BCD PUSH1 0xE5 SHL DUP2 MSTORE PUSH1 0x20 PUSH1 0x4 DUP3 ADD MSTORE PUSH1 0x19 PUSH1 0x24 DUP3 ADD MSTORE PUSH25 0x43616E6E6F742072656D6F76652030206C6971756964697479 PUSH1 0x38 SHL PUSH1 0x44 DUP3 ADD MSTORE PUSH1 0x64 ADD JUMPDEST PUSH1 0x40 MLOAD DUP1 SWAP2 SUB SWAP1 REVERT JUMPDEST PUSH0 PUSH2 0x3B0 PUSH1 0x2 SLOAD SWAP1 JUMP JUMPDEST SWAP1 POP DUP1 DUP5 PUSH1 0x5 SLOAD PUSH2 0x3C1 SWAP2 SWAP1 PUSH2 0x109C JUMP JUMPDEST PUSH2 0x3CB SWAP2 SWAP1 PUSH2 0x10B3 JUMP JUMPDEST SWAP3 POP DUP1 DUP5 PUSH1 0x6 SLOAD PUSH2 0x3DC SWAP2 SWAP1 PUSH2 0x109C JUMP JUMPDEST PUSH2 0x3E6 SWAP2 SWAP1 PUSH2 0x10B3 JUMP JUMPDEST SWAP2 POP PUSH0 DUP4 GT DUP1 ISZERO PUSH2 0x3F6 JUMPI POP PUSH0 DUP3 GT JUMPDEST PUSH2 0x442 JUMPI PUSH1 0x40 MLOAD PUSH3 0x461BCD PUSH1 0xE5 SHL DUP2 MSTORE PUSH1 0x20 PUSH1 0x4 DUP3 ADD DUP2 SWAP1 MSTORE PUSH1 0x24 DUP3 ADD MSTORE PUSH32 0x496E73756666696369656E7420616D6F756E747320746F207769746864726177 PUSH1 0x44 DUP3 ADD MSTORE PUSH1 0x64 ADD PUSH2 0x39D JUMP JUMPDEST PUSH2 0x44C CALLER DUP6 PUSH2 0xCB1 JUMP JUMPDEST PUSH1 0x40 MLOAD PUSH4 0xA9059CBB PUSH1 0xE0 SHL DUP2 MSTORE PUSH1 0x1 PUSH1 0x1 PUSH1 0xA0 SHL SUB PUSH32 0x0 AND SWAP1 PUSH4 0xA9059CBB SWAP1 PUSH2 0x49A SWAP1 CALLER SWAP1 DUP8 SWAP1 PUSH1 0x4 ADD PUSH2 0x10D2 JUMP JUMPDEST PUSH1 0x20 PUSH1 0x40 MLOAD DUP1 DUP4 SUB DUP2 PUSH0 DUP8 GAS CALL ISZERO DUP1 ISZERO PUSH2 0x4B6 JUMPI RETURNDATASIZE PUSH0 PUSH0 RETURNDATACOPY RETURNDATASIZE PUSH0 REVERT JUMPDEST POP POP POP POP PUSH1 0x40 MLOAD RETURNDATASIZE PUSH1 0x1F NOT PUSH1 0x1F DUP3 ADD AND DUP3 ADD DUP1 PUSH1 0x40 MSTORE POP DUP2 ADD SWAP1 PUSH2 0x4DA SWAP2 SWAP1 PUSH2 0x10EB JUMP JUMPDEST POP PUSH1 0x40 MLOAD PUSH4 0xA9059CBB PUSH1 0xE0 SHL DUP2 MSTORE PUSH1 0x1 PUSH1 0x1 PUSH1 0xA0 SHL SUB PUSH32 0x0 AND SWAP1 PUSH4 0xA9059CBB SWAP1 PUSH2 0x529 SWAP1 CALLER SWAP1 DUP7 SWAP1 PUSH1 0x4 ADD PUSH2 0x10D2 JUMP JUMPDEST PUSH1 0x20 PUSH1 0x40 MLOAD DUP1 DUP4 SUB DUP2 PUSH0 DUP8 GAS CALL ISZERO DUP1 ISZERO PUSH2 0x545 JUMPI RETURNDATASIZE PUSH0 PUSH0 RETURNDATACOPY RETURNDATASIZE PUSH0 REVERT JUMPDEST POP POP POP POP PUSH1 0x40 MLOAD RETURNDATASIZE PUSH1 0x1F NOT PUSH1 0x1F DUP3 ADD AND DUP3 ADD DUP1 PUSH1 0x40 MSTORE POP DUP2 ADD SWAP1 PUSH2 0x569 SWAP2 SWAP1 PUSH2 0x10EB JUMP JUMPDEST POP DUP3 PUSH1 0x5 PUSH0 DUP3 DUP3 SLOAD PUSH2 0x57B SWAP2 SWAP1 PUSH2 0x110A JUMP JUMPDEST SWAP3 POP POP DUP2 SWAP1 SSTORE POP DUP2 PUSH1 0x6 PUSH0 DUP3 DUP3 SLOAD PUSH2 0x593 SWAP2 SWAP1 PUSH2 0x110A JUMP JUMPDEST SWAP3 POP POP DUP2 SWAP1 SSTORE POP POP SWAP2 POP SWAP2 JUMP JUMPDEST PUSH1 0x40 MLOAD PUSH4 0x23B872DD PUSH1 0xE0 SHL DUP2 MSTORE PUSH0 SWAP1 PUSH1 0x1 PUSH1 0x1 PUSH1 0xA0 SHL SUB PUSH32 0x0 AND SWAP1 PUSH4 0x23B872DD SWAP1 PUSH2 0x5F2 SWAP1 CALLER SWAP1 ADDRESS SWAP1 DUP9 SWAP1 PUSH1 0x4 ADD PUSH2 0x111D JUMP JUMPDEST PUSH1 0x20 PUSH1 0x40 MLOAD DUP1 DUP4 SUB DUP2 PUSH0 DUP8 GAS CALL ISZERO DUP1 ISZERO PUSH2 0x60E JUMPI RETURNDATASIZE PUSH0 PUSH0 RETURNDATACOPY RETURNDATASIZE PUSH0 REVERT JUMPDEST POP POP POP POP PUSH1 0x40 MLOAD RETURNDATASIZE PUSH1 0x1F NOT PUSH1 0x1F DUP3 ADD AND DUP3 ADD DUP1 PUSH1 0x40 MSTORE POP DUP2 ADD SWAP1 PUSH2 0x632 SWAP2 SWAP1 PUSH2 0x10EB JUMP JUMPDEST PUSH2 0x672 JUMPI PUSH1 0x40 MLOAD PUSH3 0x461BCD PUSH1 0xE5 SHL DUP2 MSTORE PUSH1 0x20 PUSH1 0x4 DUP3 ADD MSTORE PUSH1 0x11 PUSH1 0x24 DUP3 ADD MSTORE PUSH17 0x151C985B9CD9995C88104819985A5B1959 PUSH1 0x7A SHL PUSH1 0x44 DUP3 ADD MSTORE PUSH1 0x64 ADD PUSH2 0x39D JUMP JUMPDEST PUSH1 0x40 MLOAD PUSH4 0x23B872DD PUSH1 0xE0 SHL DUP2 MSTORE PUSH1 0x1 PUSH1 0x1 PUSH1 0xA0 SHL SUB PUSH32 0x0 AND SWAP1 PUSH4 0x23B872DD SWAP1 PUSH2 0x6C2 SWAP1 CALLER SWAP1 ADDRESS SWAP1 DUP8 SWAP1 PUSH1 0x4 ADD PUSH2 0x111D JUMP JUMPDEST PUSH1 0x20 PUSH1 0x40 MLOAD DUP1 DUP4 SUB DUP2 PUSH0 DUP8 GAS CALL ISZERO DUP1 ISZERO PUSH2 0x6DE JUMPI RETURNDATASIZE PUSH0 PUSH0 RETURNDATACOPY RETURNDATASIZE PUSH0 REVERT JUMPDEST POP POP POP POP PUSH1 0x40 MLOAD RETURNDATASIZE PUSH1 0x1F NOT PUSH1 0x1F DUP3 ADD AND DUP3 ADD DUP1 PUSH1 0x40 MSTORE POP DUP2 ADD SWAP1 PUSH2 0x702 SWAP2 SWAP1 PUSH2 0x10EB JUMP JUMPDEST PUSH2 0x742 JUMPI PUSH1 0x40 MLOAD PUSH3 0x461BCD PUSH1 0xE5 SHL DUP2 MSTORE PUSH1 0x20 PUSH1 0x4 DUP3 ADD MSTORE PUSH1 0x11 PUSH1 0x24 DUP3 ADD MSTORE PUSH17 0x151C985B9CD9995C88108819985A5B1959 PUSH1 0x7A SHL PUSH1 0x44 DUP3 ADD MSTORE PUSH1 0x64 ADD PUSH2 0x39D JUMP JUMPDEST PUSH1 0x2 SLOAD PUSH0 SUB PUSH2 0x752 JUMPI POP DUP2 PUSH2 0x76F JUMP JUMPDEST PUSH1 0x5 SLOAD PUSH1 0x2 SLOAD PUSH2 0x762 SWAP1 DUP6 PUSH2 0x109C JUMP JUMPDEST PUSH2 0x76C SWAP2 SWAP1 PUSH2 0x10B3 JUMP JUMPDEST SWAP1 POP JUMPDEST PUSH0 DUP2 GT PUSH2 0x7BE JUMPI PUSH1 0x40 MLOAD PUSH3 0x461BCD PUSH1 0xE5 SHL DUP2 MSTORE PUSH1 0x20 PUSH1 0x4 DUP3 ADD MSTORE PUSH1 0x1D PUSH1 0x24 DUP3 ADD MSTORE PUSH32 0x496E73756666696369656E74206C6971756964697479206D696E746564000000 PUSH1 0x44 DUP3 ADD MSTORE PUSH1 0x64 ADD PUSH2 0x39D JUMP JUMPDEST PUSH2 0x7C8 CALLER DUP3 PUSH2 0xCE9 JUMP JUMPDEST DUP3 PUSH1 0x5 PUSH0 DUP3 DUP3 SLOAD PUSH2 0x7D9 SWAP2 SWAP1 PUSH2 0x1141 JUMP JUMPDEST SWAP3 POP POP DUP2 SWAP1 SSTORE POP DUP2 PUSH1 0x6 PUSH0 DUP3 DUP3 SLOAD PUSH2 0x7F1 SWAP2 SWAP1 PUSH2 0x1141 JUMP JUMPDEST SWAP1 SWAP2 SSTORE POP SWAP1 SWAP4 SWAP3 POP POP POP JUMP JUMPDEST PUSH0 CALLER PUSH2 0x316 DUP2 DUP6 DUP6 PUSH2 0xC54 JUMP JUMPDEST PUSH0 PUSH32 0x0 PUSH1 0x1 PUSH1 0x1 PUSH1 0xA0 SHL SUB AND DUP4 PUSH1 0x1 PUSH1 0x1 PUSH1 0xA0 SHL SUB AND EQ DUP1 PUSH2 0x87C JUMPI POP PUSH32 0x0 PUSH1 0x1 PUSH1 0x1 PUSH1 0xA0 SHL SUB AND DUP4 PUSH1 0x1 PUSH1 0x1 PUSH1 0xA0 SHL SUB AND EQ JUMPDEST PUSH2 0x8BE JUMPI PUSH1 0x40 MLOAD PUSH3 0x461BCD PUSH1 0xE5 SHL DUP2 MSTORE PUSH1 0x20 PUSH1 0x4 DUP3 ADD MSTORE PUSH1 0x13 PUSH1 0x24 DUP3 ADD MSTORE PUSH19 0x24B73B30B634B21034B7383ABA103A37B5B2B7 PUSH1 0x69 SHL PUSH1 0x44 DUP3 ADD MSTORE PUSH1 0x64 ADD PUSH2 0x39D JUMP JUMPDEST PUSH0 DUP3 GT PUSH2 0x90D JUMPI PUSH1 0x40 MLOAD PUSH3 0x461BCD PUSH1 0xE5 SHL DUP2 MSTORE PUSH1 0x20 PUSH1 0x4 DUP3 ADD MSTORE PUSH1 0x1A PUSH1 0x24 DUP3 ADD MSTORE PUSH32 0x416D6F756E7420696E206D75737420626520706F736974697665000000000000 PUSH1 0x44 DUP3 ADD MSTORE PUSH1 0x64 ADD PUSH2 0x39D JUMP JUMPDEST PUSH1 0x40 MLOAD PUSH4 0x23B872DD PUSH1 0xE0 SHL DUP2 MSTORE PUSH1 0x1 PUSH1 0x1 PUSH1 0xA0 SHL SUB DUP5 AND SWAP1 PUSH4 0x23B872DD SWAP1 PUSH2 0x93D SWAP1 CALLER SWAP1 ADDRESS SWAP1 DUP8 SWAP1 PUSH1 0x4 ADD PUSH2 0x111D JUMP JUMPDEST PUSH1 0x20 PUSH1 0x40 MLOAD DUP1 DUP4 SUB DUP2 PUSH0 DUP8 GAS CALL ISZERO DUP1 ISZERO PUSH2 0x959 JUMPI RETURNDATASIZE PUSH0 PUSH0 RETURNDATACOPY RETURNDATASIZE PUSH0 REVERT JUMPDEST POP POP POP POP PUSH1 0x40 MLOAD RETURNDATASIZE PUSH1 0x1F NOT PUSH1 0x1F DUP3 ADD AND DUP3 ADD DUP1 PUSH1 0x40 MSTORE POP DUP2 ADD SWAP1 PUSH2 0x97D SWAP2 SWAP1 PUSH2 0x10EB JUMP JUMPDEST POP PUSH0 PUSH2 0x98B DUP4 PUSH2 0x3E5 PUSH2 0x109C JUMP JUMPDEST SWAP1 POP PUSH32 0x0 PUSH1 0x1 PUSH1 0x1 PUSH1 0xA0 SHL SUB AND DUP5 PUSH1 0x1 PUSH1 0x1 PUSH1 0xA0 SHL SUB AND SUB PUSH2 0xAC5 JUMPI PUSH0 PUSH1 0x6 SLOAD DUP3 PUSH2 0x9D5 SWAP2 SWAP1 PUSH2 0x109C JUMP JUMPDEST SWAP1 POP PUSH0 DUP3 PUSH1 0x5 SLOAD PUSH2 0x3E8 PUSH2 0x9E9 SWAP2 SWAP1 PUSH2 0x109C JUMP JUMPDEST PUSH2 0x9F3 SWAP2 SWAP1 PUSH2 0x1141 JUMP JUMPDEST SWAP1 POP PUSH2 0x9FF DUP2 DUP4 PUSH2 0x10B3 JUMP JUMPDEST SWAP4 POP DUP5 PUSH1 0x5 PUSH0 DUP3 DUP3 SLOAD PUSH2 0xA12 SWAP2 SWAP1 PUSH2 0x1141 JUMP JUMPDEST SWAP3 POP POP DUP2 SWAP1 SSTORE POP DUP4 PUSH1 0x6 PUSH0 DUP3 DUP3 SLOAD PUSH2 0xA2A SWAP2 SWAP1 PUSH2 0x110A JUMP JUMPDEST SWAP1 SWAP2 SSTORE POP POP PUSH1 0x40 MLOAD PUSH4 0xA9059CBB PUSH1 0xE0 SHL DUP2 MSTORE PUSH1 0x1 PUSH1 0x1 PUSH1 0xA0 SHL SUB PUSH32 0x0 AND SWAP1 PUSH4 0xA9059CBB SWAP1 PUSH2 0xA7D SWAP1 CALLER SWAP1 DUP9 SWAP1 PUSH1 0x4 ADD PUSH2 0x10D2 JUMP JUMPDEST PUSH1 0x20 PUSH1 0x40 MLOAD DUP1 DUP4 SUB DUP2 PUSH0 DUP8 GAS CALL ISZERO DUP1 ISZERO PUSH2 0xA99 JUMPI RETURNDATASIZE PUSH0 PUSH0 RETURNDATACOPY RETURNDATASIZE PUSH0 REVERT JUMPDEST POP POP POP POP PUSH1 0x40 MLOAD RETURNDATASIZE PUSH1 0x1F NOT PUSH1 0x1F DUP3 ADD AND DUP3 ADD DUP1 PUSH1 0x40 MSTORE POP DUP2 ADD SWAP1 PUSH2 0xABD SWAP2 SWAP1 PUSH2 0x10EB JUMP JUMPDEST POP POP POP PUSH2 0xBC0 JUMP JUMPDEST PUSH0 PUSH1 0x5 SLOAD DUP3 PUSH2 0xAD4 SWAP2 SWAP1 PUSH2 0x109C JUMP JUMPDEST SWAP1 POP PUSH0 DUP3 PUSH1 0x6 SLOAD PUSH2 0x3E8 PUSH2 0xAE8 SWAP2 SWAP1 PUSH2 0x109C JUMP JUMPDEST PUSH2 0xAF2 SWAP2 SWAP1 PUSH2 0x1141 JUMP JUMPDEST SWAP1 POP PUSH2 0xAFE DUP2 DUP4 PUSH2 0x10B3 JUMP JUMPDEST SWAP4 POP DUP5 PUSH1 0x6 PUSH0 DUP3 DUP3 SLOAD PUSH2 0xB11 SWAP2 SWAP1 PUSH2 0x1141 JUMP JUMPDEST SWAP3 POP POP DUP2 SWAP1 SSTORE POP DUP4 PUSH1 0x5 PUSH0 DUP3 DUP3 SLOAD PUSH2 0xB29 SWAP2 SWAP1 PUSH2 0x110A JUMP JUMPDEST SWAP1 SWAP2 SSTORE POP POP PUSH1 0x40 MLOAD PUSH4 0xA9059CBB PUSH1 0xE0 SHL DUP2 MSTORE PUSH1 0x1 PUSH1 0x1 PUSH1 0xA0 SHL SUB PUSH32 0x0 AND SWAP1 PUSH4 0xA9059CBB SWAP1 PUSH2 0xB7C SWAP1 CALLER SWAP1 DUP9 SWAP1 PUSH1 0x4 ADD PUSH2 0x10D2 JUMP JUMPDEST PUSH1 0x20 PUSH1 0x40 MLOAD DUP1 DUP4 SUB DUP2 PUSH0 DUP8 GAS CALL ISZERO DUP1 ISZERO PUSH2 0xB98 JUMPI RETURNDATASIZE PUSH0 PUSH0 RETURNDATACOPY RETURNDATASIZE PUSH0 REVERT JUMPDEST POP POP POP POP PUSH1 0x40 MLOAD RETURNDATASIZE PUSH1 0x1F NOT PUSH1 0x1F DUP3 ADD AND DUP3 ADD DUP1 PUSH1 0x40 MSTORE POP DUP2 ADD SWAP1 PUSH2 0xBBC SWAP2 SWAP1 PUSH2 0x10EB JUMP JUMPDEST POP POP POP JUMPDEST POP SWAP3 SWAP2 POP POP JUMP JUMPDEST PUSH1 0x1 PUSH1 0x1 PUSH1 0xA0 SHL SUB SWAP2 DUP3 AND PUSH0 SWAP1 DUP2 MSTORE PUSH1 0x1 PUSH1 0x20 SWAP1 DUP2 MSTORE PUSH1 0x40 DUP1 DUP4 KECCAK256 SWAP4 SWAP1 SWAP5 AND DUP3 MSTORE SWAP2 SWAP1 SWAP2 MSTORE KECCAK256 SLOAD SWAP1 JUMP JUMPDEST PUSH2 0xBFE DUP4 DUP4 DUP4 PUSH1 0x1 PUSH2 0xD1D JUMP JUMPDEST POP POP POP JUMP JUMPDEST PUSH0 PUSH2 0xC0E DUP5 DUP5 PUSH2 0xBC7 JUMP JUMPDEST SWAP1 POP PUSH0 NOT DUP2 LT ISZERO PUSH2 0xC4E JUMPI DUP2 DUP2 LT ISZERO PUSH2 0xC40 JUMPI DUP3 DUP2 DUP4 PUSH1 0x40 MLOAD PUSH4 0x7DC7A0D9 PUSH1 0xE1 SHL DUP2 MSTORE PUSH1 0x4 ADD PUSH2 0x39D SWAP4 SWAP3 SWAP2 SWAP1 PUSH2 0x1154 JUMP JUMPDEST PUSH2 0xC4E DUP5 DUP5 DUP5 DUP5 SUB PUSH0 PUSH2 0xD1D JUMP JUMPDEST POP POP POP POP JUMP JUMPDEST PUSH1 0x1 PUSH1 0x1 PUSH1 0xA0 SHL SUB DUP4 AND PUSH2 0xC7D JUMPI PUSH0 PUSH1 0x40 MLOAD PUSH4 0x4B637E8F PUSH1 0xE1 SHL DUP2 MSTORE PUSH1 0x4 ADD PUSH2 0x39D SWAP2 SWAP1 PUSH2 0xF7A JUMP JUMPDEST PUSH1 0x1 PUSH1 0x1 PUSH1 0xA0 SHL SUB DUP3 AND PUSH2 0xCA6 JUMPI PUSH0 PUSH1 0x40 MLOAD PUSH4 0xEC442F05 PUSH1 0xE0 SHL DUP2 MSTORE PUSH1 0x4 ADD PUSH2 0x39D SWAP2 SWAP1 PUSH2 0xF7A JUMP JUMPDEST PUSH2 0xBFE DUP4 DUP4 DUP4 PUSH2 0xDEF JUMP JUMPDEST PUSH1 0x1 PUSH1 0x1 PUSH1 0xA0 SHL SUB DUP3 AND PUSH2 0xCDA JUMPI PUSH0 PUSH1 0x40 MLOAD PUSH4 0x4B637E8F PUSH1 0xE1 SHL DUP2 MSTORE PUSH1 0x4 ADD PUSH2 0x39D SWAP2 SWAP1 PUSH2 0xF7A JUMP JUMPDEST PUSH2 0xCE5 DUP3 PUSH0 DUP4 PUSH2 0xDEF JUMP JUMPDEST POP POP JUMP JUMPDEST PUSH1 0x1 PUSH1 0x1 PUSH1 0xA0 SHL SUB DUP3 AND PUSH2 0xD12 JUMPI PUSH0 PUSH1 0x40 MLOAD PUSH4 0xEC442F05 PUSH1 0xE0 SHL DUP2 MSTORE PUSH1 0x4 ADD PUSH2 0x39D SWAP2 SWAP1 PUSH2 0xF7A JUMP JUMPDEST PUSH2 0xCE5 PUSH0 DUP4 DUP4 PUSH2 0xDEF JUMP JUMPDEST PUSH1 0x1 PUSH1 0x1 PUSH1 0xA0 SHL SUB DUP5 AND PUSH2 0xD46 JUMPI PUSH0 PUSH1 0x40 MLOAD PUSH4 0xE602DF05 PUSH1 0xE0 SHL DUP2 MSTORE PUSH1 0x4 ADD PUSH2 0x39D SWAP2 SWAP1 PUSH2 0xF7A JUMP JUMPDEST PUSH1 0x1 PUSH1 0x1 PUSH1 0xA0 SHL SUB DUP4 AND PUSH2 0xD6F JUMPI PUSH0 PUSH1 0x40 MLOAD PUSH4 0x4A1406B1 PUSH1 0xE1 SHL DUP2 MSTORE PUSH1 0x4 ADD PUSH2 0x39D SWAP2 SWAP1 PUSH2 0xF7A JUMP JUMPDEST PUSH1 0x1 PUSH1 0x1 PUSH1 0xA0 SHL SUB DUP1 DUP6 AND PUSH0 SWAP1 DUP2 MSTORE PUSH1 0x1 PUSH1 0x20 SWAP1 DUP2 MSTORE PUSH1 0x40 DUP1 DUP4 KECCAK256 SWAP4 DUP8 AND DUP4 MSTORE SWAP3 SWAP1 MSTORE KECCAK256 DUP3 SWAP1 SSTORE DUP1 ISZERO PUSH2 0xC4E JUMPI DUP3 PUSH1 0x1 PUSH1 0x1 PUSH1 0xA0 SHL SUB AND DUP5 PUSH1 0x1 PUSH1 0x1 PUSH1 0xA0 SHL SUB AND PUSH32 0x8C5BE1E5EBEC7D5BD14F71427D1E84F3DD0314C0F7B2291E5B200AC8C7C3B925 DUP5 PUSH1 0x40 MLOAD PUSH2 0xDE1 SWAP2 DUP2 MSTORE PUSH1 0x20 ADD SWAP1 JUMP JUMPDEST PUSH1 0x40 MLOAD DUP1 SWAP2 SUB SWAP1 LOG3 POP POP POP POP JUMP JUMPDEST PUSH1 0x1 PUSH1 0x1 PUSH1 0xA0 SHL SUB DUP4 AND PUSH2 0xE19 JUMPI DUP1 PUSH1 0x2 PUSH0 DUP3 DUP3 SLOAD PUSH2 0xE0E SWAP2 SWAP1 PUSH2 0x1141 JUMP JUMPDEST SWAP1 SWAP2 SSTORE POP PUSH2 0xE76 SWAP1 POP JUMP JUMPDEST PUSH1 0x1 PUSH1 0x1 PUSH1 0xA0 SHL SUB DUP4 AND PUSH0 SWAP1 DUP2 MSTORE PUSH1 0x20 DUP2 SWAP1 MSTORE PUSH1 0x40 SWAP1 KECCAK256 SLOAD DUP2 DUP2 LT ISZERO PUSH2 0xE58 JUMPI DUP4 DUP2 DUP4 PUSH1 0x40 MLOAD PUSH4 0x391434E3 PUSH1 0xE2 SHL DUP2 MSTORE PUSH1 0x4 ADD PUSH2 0x39D SWAP4 SWAP3 SWAP2 SWAP1 PUSH2 0x1154 JUMP JUMPDEST PUSH1 0x1 PUSH1 0x1 PUSH1 0xA0 SHL SUB DUP5 AND PUSH0 SWAP1 DUP2 MSTORE PUSH1 0x20 DUP2 SWAP1 MSTORE PUSH1 0x40 SWAP1 KECCAK256 SWAP1 DUP3 SWAP1 SUB SWAP1 SSTORE JUMPDEST PUSH1 0x1 PUSH1 0x1 PUSH1 0xA0 SHL SUB DUP3 AND PUSH2 0xE92 JUMPI PUSH1 0x2 DUP1 SLOAD DUP3 SWAP1 SUB SWAP1 SSTORE PUSH2 0xEB0 JUMP JUMPDEST PUSH1 0x1 PUSH1 0x1 PUSH1 0xA0 SHL SUB DUP3 AND PUSH0 SWAP1 DUP2 MSTORE PUSH1 0x20 DUP2 SWAP1 MSTORE PUSH1 0x40 SWAP1 KECCAK256 DUP1 SLOAD DUP3 ADD SWAP1 SSTORE JUMPDEST DUP2 PUSH1 0x1 PUSH1 0x1 PUSH1 0xA0 SHL SUB AND DUP4 PUSH1 0x1 PUSH1 0x1 PUSH1 0xA0 SHL SUB AND PUSH32 0xDDF252AD1BE2C89B69C2B068FC378DAA952BA7F163C4A11628F55A4DF523B3EF DUP4 PUSH1 0x40 MLOAD PUSH2 0xEF5 SWAP2 DUP2 MSTORE PUSH1 0x20 ADD SWAP1 JUMP JUMPDEST PUSH1 0x40 MLOAD DUP1 SWAP2 SUB SWAP1 LOG3 POP POP POP JUMP JUMPDEST PUSH1 0x20 DUP2 MSTORE PUSH0 DUP3 MLOAD DUP1 PUSH1 0x20 DUP5 ADD MSTORE DUP1 PUSH1 0x20 DUP6 ADD PUSH1 0x40 DUP6 ADD MCOPY PUSH0 PUSH1 0x40 DUP3 DUP6 ADD ADD MSTORE PUSH1 0x40 PUSH1 0x1F NOT PUSH1 0x1F DUP4 ADD AND DUP5 ADD ADD SWAP2 POP POP SWAP3 SWAP2 POP POP JUMP JUMPDEST DUP1 CALLDATALOAD PUSH1 0x1 PUSH1 0x1 PUSH1 0xA0 SHL SUB DUP2 AND DUP2 EQ PUSH2 0xF4D JUMPI PUSH0 PUSH0 REVERT JUMPDEST SWAP2 SWAP1 POP JUMP JUMPDEST PUSH0 PUSH0 PUSH1 0x40 DUP4 DUP6 SUB SLT ISZERO PUSH2 0xF63 JUMPI PUSH0 PUSH0 REVERT JUMPDEST PUSH2 0xF6C DUP4 PUSH2 0xF37 JUMP JUMPDEST SWAP5 PUSH1 0x20 SWAP4 SWAP1 SWAP4 ADD CALLDATALOAD SWAP4 POP POP POP JUMP JUMPDEST PUSH1 0x1 PUSH1 0x1 PUSH1 0xA0 SHL SUB SWAP2 SWAP1 SWAP2 AND DUP2 MSTORE PUSH1 0x20 ADD SWAP1 JUMP JUMPDEST PUSH0 PUSH0 PUSH0 PUSH1 0x60 DUP5 DUP7 SUB SLT ISZERO PUSH2 0xFA0 JUMPI PUSH0 PUSH0 REVERT JUMPDEST PUSH2 0xFA9 DUP5 PUSH2 0xF37 JUMP JUMPDEST SWAP3 POP PUSH2 0xFB7 PUSH1 0x20 DUP6 ADD PUSH2 0xF37 JUMP JUMPDEST SWAP3 SWAP6 SWAP3 SWAP5 POP POP POP PUSH1 0x40 SWAP2 SWAP1 SWAP2 ADD CALLDATALOAD SWAP1 JUMP JUMPDEST PUSH0 PUSH1 0x20 DUP3 DUP5 SUB SLT ISZERO PUSH2 0xFD8 JUMPI PUSH0 PUSH0 REVERT JUMPDEST PUSH2 0xFE1 DUP3 PUSH2 0xF37 JUMP JUMPDEST SWAP4 SWAP3 POP POP POP JUMP JUMPDEST PUSH0 PUSH1 0x20 DUP3 DUP5 SUB SLT ISZERO PUSH2 0xFF8 JUMPI PUSH0 PUSH0 REVERT JUMPDEST POP CALLDATALOAD SWAP2 SWAP1 POP JUMP JUMPDEST PUSH0 PUSH0 PUSH1 0x40 DUP4 DUP6 SUB SLT ISZERO PUSH2 0x1010 JUMPI PUSH0 PUSH0 REVERT JUMPDEST POP POP DUP1 CALLDATALOAD SWAP3 PUSH1 0x20 SWAP1 SWAP2 ADD CALLDATALOAD SWAP2 POP JUMP JUMPDEST PUSH0 PUSH0 PUSH1 0x40 DUP4 DUP6 SUB SLT ISZERO PUSH2 0x1030 JUMPI PUSH0 PUSH0 REVERT JUMPDEST PUSH2 0x1039 DUP4 PUSH2 0xF37 JUMP JUMPDEST SWAP2 POP PUSH2 0x1047 PUSH1 0x20 DUP5 ADD PUSH2 0xF37 JUMP JUMPDEST SWAP1 POP SWAP3 POP SWAP3 SWAP1 POP JUMP JUMPDEST PUSH1 0x1 DUP2 DUP2 SHR SWAP1 DUP3 AND DUP1 PUSH2 0x1064 JUMPI PUSH1 0x7F DUP3 AND SWAP2 POP JUMPDEST PUSH1 0x20 DUP3 LT DUP2 SUB PUSH2 0x1082 JUMPI PUSH4 0x4E487B71 PUSH1 0xE0 SHL PUSH0 MSTORE PUSH1 0x22 PUSH1 0x4 MSTORE PUSH1 0x24 PUSH0 REVERT JUMPDEST POP SWAP2 SWAP1 POP JUMP JUMPDEST PUSH4 0x4E487B71 PUSH1 0xE0 SHL PUSH0 MSTORE PUSH1 0x11 PUSH1 0x4 MSTORE PUSH1 0x24 PUSH0 REVERT JUMPDEST DUP1 DUP3 MUL DUP2 ISZERO DUP3 DUP3 DIV DUP5 EQ OR PUSH2 0x31C JUMPI PUSH2 0x31C PUSH2 0x1088 JUMP JUMPDEST PUSH0 DUP3 PUSH2 0x10CD JUMPI PUSH4 0x4E487B71 PUSH1 0xE0 SHL PUSH0 MSTORE PUSH1 0x12 PUSH1 0x4 MSTORE PUSH1 0x24 PUSH0 REVERT JUMPDEST POP DIV SWAP1 JUMP JUMPDEST PUSH1 0x1 PUSH1 0x1 PUSH1 0xA0 SHL SUB SWAP3 SWAP1 SWAP3 AND DUP3 MSTORE PUSH1 0x20 DUP3 ADD MSTORE PUSH1 0x40 ADD SWAP1 JUMP JUMPDEST PUSH0 PUSH1 0x20 DUP3 DUP5 SUB SLT ISZERO PUSH2 0x10FB JUMPI PUSH0 PUSH0 REVERT JUMPDEST DUP2 MLOAD DUP1 ISZERO ISZERO DUP2 EQ PUSH2 0xFE1 JUMPI PUSH0 PUSH0 REVERT JUMPDEST DUP2 DUP2 SUB DUP2 DUP2 GT ISZERO PUSH2 0x31C JUMPI PUSH2 0x31C PUSH2 0x1088 JUMP JUMPDEST PUSH1 0x1 PUSH1 0x1 PUSH1 0xA0 SHL SUB SWAP4 DUP5 AND DUP2 MSTORE SWAP2 SWAP1 SWAP3 AND PUSH1 0x20 DUP3 ADD MSTORE PUSH1 0x40 DUP2 ADD SWAP2 SWAP1 SWAP2 MSTORE PUSH1 0x60 ADD SWAP1 JUMP JUMPDEST DUP1 DUP3 ADD DUP1 DUP3 GT ISZERO PUSH2 0x31C JUMPI PUSH2 0x31C PUSH2 0x1088 JUMP JUMPDEST PUSH1 0x1 PUSH1 0x1 PUSH1 0xA0 SHL SUB SWAP4 SWAP1 SWAP4 AND DUP4 MSTORE PUSH1 0x20 DUP4 ADD SWAP2 SWAP1 SWAP2 MSTORE PUSH1 0x40 DUP3 ADD MSTORE PUSH1 0x60 ADD SWAP1 JUMP INVALID LOG2 PUSH5 0x6970667358 0x22 SLT KECCAK256 JUMPDEST 0xFC SWAP11 GT DUP12 MSTORE8 MOD 0xCC EQ GASPRICE PUSH9 0xACE2F9AB6BBFDAEC32 COINBASE 0xA5 BASEFEE 0x2E LOG4 0x4C MSTORE OR 0xF7 0xEF CREATE2 BYTE PUSH5 0x736F6C6343 STOP ADDMOD 0x1E STOP CALLER "
				},
				"gasEstimates": {
					"creation": {
						"codeDepositCost": "904600",
						"executionCost": "infinite",
						"totalCost": "infinite"
					},
					"external": {
						"addLiquidity(uint256,uint256)": "infinite",
						"allowance(address,address)": "infinite",
						"approve(address,uint256)": "24756",
						"balanceOf(address)": "2559",
						"decimals()": "331",
						"getReserves()": "4430",
						"name()": "infinite",
						"removeLiquidity(uint256)": "infinite",
						"reserveA()": "2448",
						"reserveB()": "2405",
						"swap(address,uint256)": "infinite",
						"symbol()": "infinite",
						"tokenA()": "infinite",
						"tokenB()": "infinite",
						"totalSupply()": "2369",
						"transfer(address,uint256)": "51325",
						"transferFrom(address,address,uint256)": "infinite"
					}
				},
				"methodIdentifiers": {
					"addLiquidity(uint256,uint256)": "9cd441da",
					"allowance(address,address)": "dd62ed3e",
					"approve(address,uint256)": "095ea7b3",
					"balanceOf(address)": "70a08231",
					"decimals()": "313ce567",
					"getReserves()": "0902f1ac",
					"name()": "06fdde03",
					"removeLiquidity(uint256)": "9c8f9f23",
					"reserveA()": "dc5fa6c5",
					"reserveB()": "19e36f3b",
					"swap(address,uint256)": "d004f0f7",
					"symbol()": "95d89b41",
					"tokenA()": "0fc63d10",
					"tokenB()": "5f64b55b",
					"totalSupply()": "18160ddd",
					"transfer(address,uint256)": "a9059cbb",
					"transferFrom(address,address,uint256)": "23b872dd"
				}
			},
			"storageLayout": {
				"storage": [
					{
						"astId": 159,
						"contract": "contracts/AmmExchange.sol:AmmExchange",
						"label": "_balances",
						"offset": 0,
						"slot": "0",
						"type": "t_mapping(t_address,t_uint256)"
					},
					{
						"astId": 165,
						"contract": "contracts/AmmExchange.sol:AmmExchange",
						"label": "_allowances",
						"offset": 0,
						"slot": "1",
						"type": "t_mapping(t_address,t_mapping(t_address,t_uint256))"
					},
					{
						"astId": 167,
						"contract": "contracts/AmmExchange.sol:AmmExchange",
						"label": "_totalSupply",
						"offset": 0,
						"slot": "2",
						"type": "t_uint256"
					},
					{
						"astId": 169,
						"contract": "contracts/AmmExchange.sol:AmmExchange",
						"label": "_name",
						"offset": 0,
						"slot": "3",
						"type": "t_string_storage"
					},
					{
						"astId": 171,
						"contract": "contracts/AmmExchange.sol:AmmExchange",
						"label": "_symbol",
						"offset": 0,
						"slot": "4",
						"type": "t_string_storage"
					},
					{
						"astId": 799,
						"contract": "contracts/AmmExchange.sol:AmmExchange",
						"label": "reserveA",
						"offset": 0,
						"slot": "5",
						"type": "t_uint256"
					},
					{
						"astId": 801,
						"contract": "contracts/AmmExchange.sol:AmmExchange",
						"label": "reserveB",
						"offset": 0,
						"slot": "6",
						"type": "t_uint256"
					}
				],
				"types": {
					"t_address": {
						"encoding": "inplace",
						"label": "address",
						"numberOfBytes": "20"
					},
					"t_mapping(t_address,t_mapping(t_address,t_uint256))": {
						"encoding": "mapping",
						"key": "t_address",
						"label": "mapping(address => mapping(address => uint256))",
						"numberOfBytes": "32",
						"value": "t_mapping(t_address,t_uint256)"
					},
					"t_mapping(t_address,t_uint256)": {
						"encoding": "mapping",
						"key": "t_address",
						"label": "mapping(address => uint256)",
						"numberOfBytes": "32",
						"value": "t_uint256"
					},
					"t_string_storage": {
						"encoding": "bytes",
						"label": "string",
						"numberOfBytes": "32"
					},
					"t_uint256": {
						"encoding": "inplace",
						"label": "uint256",
						"numberOfBytes": "32"
					}
				}
			},
			"userdoc": {
				"kind": "user",
				"methods": {},
				"version": 1
			}
		}
	}
}